S01700006275696C642F697269732F6D61696E2E7372656343
S11300000C9469000C9488000C9488000C9488006B
S11300100C9488000C9488000C9488000C9488003C
S11300200C9488000C9488000C9488000C9488002C
S11300300C9488000C943B050C9488000C94BE032B
S11300400C94280D0C945E0D0C9475040C9480048F
S11300500C948B040C9488000C9488000C948800F5
S11300600C94D2030C9488000C9488000C9488009F
S11300700C9488000C94B9040C9488000C948800A7
S11300800C9488000C9488000C9488000C948800CC
S11300900C9488000C9488000C9488000C948800BC
S11300A00C9488000C9488000C9488000C948800AC
S11300B00C9488000C9488000C9488000C9488009C
S11300C00C9488000C9488000C94880000020E069E
S11300D00C0411241FBECFEFD1E2DEBFCDBF12E06E
S11300E0A0E0B2E0ECE0FEE200E00BBF02C007904B
S11300F00D92AE30B107D9F713E0AEE0B2E001C023
S11301001D92AE3BB107E1F70E9483130C940517CF
S11301100C9400008FB7F894992708958FBF089521
S1130120982F969596959695EBEEF2E0E90FF11DD2
S1130130877021E030E002C0220F331F8A95E2F776
S11301408081822399270895282F9FB7F894E82F58
S1130150FF27E75DFD4F80818F3F81F4E091B60377
S1130160E21771F40BC02093160304C0FF27E75D68
S1130170FD4F20832093B60320E007C025E005C08F
S1130180809116038F3F91F7EECF892F99278FBF68
S1130190822F992708950B960895882319F08CB51A
S11301A0806402C08CB58F7B8CBD0895882319F0C0
S11301B08CB5806802C08CB58F778CBD08950F9381
S11301C01F9380E00E94CD000FB7F8941127229A64
S11301D02398219A209A8CB580618CBD80E00E947E
S11301E0D6008CB5877F8CBD8CB58B7F8CBD81E0B0
S11301F00E94CD008DB581608DBD8CB58C7F8CBD8A
S11302000FBF1F910F910895FB0121E030E002C060
S1130210220F331F8A95E2F784A5822B84A70895C1
S11302208FB7F8942091B8023091B9024091BA0284
S11302305091BB02E0918400F0918500B09B08C00E
S11302402F5F3F4F4F4F5F4FE0918400F091850047
S113025099278FBFC901772766279F014427552710
S1130260622B732B842B952B0895FC018281992793
S1130270982F882721813327822B932B25E096956D
S113028087952A95E1F7817090700895AC01EFB7D6
S1130290F8942091840030918500C901841B950B4A
S11302A003968617970720F0B9016D5F7F4F02C050
S11302B0640F751F6115710511F461E070E0615000
S11302C07040709389006093880082E086BB8091BF
S11302D06F00826080936F008E2F99278FBF0895DF
S11302E0CF93DF93EC010E943501882339F18A8191
S11302F029819927982F88273327822B932B87745A
S11303009C7C81549848D1F48F814E812FB7F89406
S1130310332760910202709103022FBF20E09927D6
S1130320982F88275527842B952B8617970709F034
S113033021E081E02827822F992702C080E090E005
S1130340DF91CF910895FB0121E030E002C0220F3C
S1130350331F8A95E2F784A5822399270895809113
S11303604302823031F481E08093430284E00E94AE
S1130370A4000895EF92FF920F931F937C018FB70F
S1130380F89499270091FE021091FF020F5E1E4F10
S11303901093FF020093FE02015111408FBF86E0CB
S11303A00E94A400C801B7010E9494168A5D9E4F62
S11303B01F910F91FF90EF9008951F93982F1FB7EF
S11303C0F89480910F02823099F580910702891781
S11303D079F58091050220E030E08F3F11F421E0AF
S11303E030E0232BF1F49FEF909307028F3F19F431
S11303F02FEF30E00DC0282F3327F901E25CFD4FC9
S11304008081809305028F3F11F4909306029083BC
S113041020933B0281E080930F0282E00E94A400BB
S113042005C08FEF8093070210920F0221E001C0F4
S113043020E0812F99278FBF90E0213009F491E0CB
S113044081E09827892F99271F91089580911A0395
S1130450882319F02FE150E002C058E02EE1622F0A
S11304607FB7F894809138028E7F80933802809110
S11304707C00982F9F71829586958695837019F0DC
S113048080E090E00CC040E03327892F992728179B
S1130490390709F041E081E04827842F9927982FF4
S11304A09170990F809138028178262F2F71422FF5
S11304B0440F440F892B842B8093380233272093D5
S11304C07C00583059F5809117039091180321E06E
S11304D08638920718F087E090E01FC0833C9105AE
S11304E018F086E090E019C08136910518F085E097
S11304F090E013C08033910518F084E090E00DC0C3
S11305008831910518F083E090E007C00C9718F04B
S113051082E090E002C080E090E0582F5770887D20
S1130520852B886D992780937A00872F99278FBF11
S113053008950F931F93982F1FB7F894809110027A
S1130540823099F580910A02891779F58091080221
S113055020E030E08F3F11F421E030E0232BF1F470
S11305609FEF90930A028F3F19F42FEF30E00DC0F4
S1130570282F3327F901E35BFD4F80818093080224
S11305808F3F11F490930902908320934E0281E0EF
S11305908093100289E00E94A40005C08FEF80932D
S11305A00A021092100201E001C000E0812F992795
S11305B08FBF1FB7F89480911002882311F40E9412
S11305C0CD00812F99278FBF90E0013009F491E08D
S11305D081E09827892F99271F910F9108957FB75C
S11305E0F8946091B2002091240230912502409148
S11305F0260250912702B99B11C08091B3009091BB
S1130600B200280F311D411D511D2F5F3F4F4F4F29
S11306105F4F290F311D411D511D04C0260F311D8F
S1130620411D511D872F99278FBFCA01B901089514
S1130630DF92EF92FF920F931F938FB7F894282FB6
S11306403327D22E9091B3008091B20047B398170C
S113065011F041FF02C02FBF71C080914502882371
S1130660E1F10E94EF02E0901D02F0901E02009161
S11306701F021091200220911C0330911D03409110
S11306801E0350911F036E197F09800B910B621793
S113069073078407950720F01092450271E01EC08D
S11306A02E0D3F1D401F511F809124029091250261
S11306B0A0912602B0912702281B390B4A0B5B0B31
S11306C0273E31054105510540F4822F223010F0B8
S11306D070E005C070E082E002C070E086EE682F32
S11306E061508091B60083FDFCCF8091B200681701
S11306F009F46F5F20912402309125024091260273
S113070050912702DA01C9010196A11DB11D860F7E
S1130710911DA11DB11D82179307A407B50710F4FD
S1130720622F60958091B60083FDFCCF6093B30087
S1130730DFBE772319F080E00E94A4001F910F917F
S1130740FF90EF90DF900895AFB7F894BB27E1E0F6
S1130750E093450260931D0270931E0280931F0272
S11307609093200220931C0330931D0340931E0397
S113077050931F03AFBF0E94180308951F920F9256
S11307800FB60F9211248F938091B0008093B00024
S11307908091B60081FDFCCF8F910F900FBE0F901A
S11307A01F9018951F920F920FB60F9211240F935A
S11307B01F932F933F934F935F936F937F938F93E5
S11307C09F93AF93BF93CF93DF93EF93FF932EB594
S11307D0E091F502F091F602309739F08091B2027F
S11307E09091B302E80FF91F20838091B202909197
S11307F0B30201969093B3028093B20280E00E9408
S1130800D600C091B202D091B3022091150230916A
S11308101602C217D30708F042C00091AE0310912C
S1130820AF034091F5025091F602CE010A962817C3
S1130830390708F4C901DA01AC0FBD1FF801EC0F48
S1130840FD1F9C012150304015C00115110531F0E8
S113085080818EBD0DB407FEFDCF04C01EBC0DB457
S113086007FEFDCF8EB54115510509F08C932196F5
S113087011963196C217D30740F381E00E94D60047
S11308800115110531F00C0F1D1FF80180818EBD7B
S113089001C01EBCD093B302C093B20211C0109227
S11308A0F6021092F5021092AF031092AE0310926A
S11308B01602109215021092B3021092B2028EB573
S11308C0FF91EF91DF91CF91BF91AF919F918F9164
S11308D07F916F915F914F913F912F911F910F9154
S11308E00F900FBE0F901F90189578941F920F923F
S11308F00FB60F9211240F900FBE0F901F901895F2
S113090078941F920F920FB60F9211240F900FBE7E
S11309100F901F90189578941F920F920FB60F9214
S113092011242F933F938F939F93AF93BF932FB72C
S1130930F89433278091B8029091B902A091BA0239
S1130940B091BB020196A11DB11D8093B802909392
S1130950B902A093BA02B093BB022FBFBF91AF916B
S11309609F918F913F912F910F900FBE0F901F90E9
S113097018951F920F920FB60F9211242F933F9345
S11309804F935F936F937F938F939F93AF93BF9393
S1130990EF93FF93409178005091790078948FB74A
S11309A0F894992720913802322F369531702170AE
S11309B08FBF222329F580917A00877F80937A0064
S11309C080918102813021F0823009F043C00AC055
S11309D0332351F05093FB024093FA028DE00E94BE
S11309E0A40038C0332349F48DE790E001970196C1
S11309F00197E1F70E9426022DC0109281022AC0BD
S1130A008FB7F89499278FBF2FB7F8943327809125
S1130A107A00582F5770482F4072987D942B952B4D
S1130A208074977B982B90619F77892F9927809367
S1130A307A00887D842B852B877380619927809326
S1130A407A00887D842B852B877B80699927809306
S1130A507A002FBFFF91EF91BF91AF919F918F913A
S1130A607F916F915F914F913F912F910F900FBEA6
S1130A700F901F9018951F920F920FB60F9211248A
S1130A802F933F934F935F936F937F938F939F9392
S1130A90AF93BF93EF93FF938091B0008093B00026
S1130AA08091B60081FDFCCF8091B3009927019617
S1130AB0AA27BB27209124023091250240912602C7
S1130AC050912702280F391F4A1F5B1F20932402CD
S1130AD030932502409326025093270278940E9473
S1130AE01803FF91EF91BF91AF919F918F917F91E7
S1130AF06F915F914F913F912F910F900FBE0F9087
S1130B001F90189521E0209351022093F702209121
S1130B10840030918500BC01C9010E9446010895FA
S1130B200F931F93CF93DF93182F0FB7F8948091EF
S1130B301002882311F40E94DF00802F99278FBFB1
S1130B408FB7F894C82FDD272C2F809110028823AB
S1130B5061F481E08093100210934E0289E00E94B8
S1130B60A400CFBF80E090E021C0E12FFF27E35B2A
S1130B70FD4F80818F3F89F4E0910902E11789F4E8
S1130B800CC01093080204C0FF27E35BFD4F1083E1
S1130B901093090280E090E002C085E090E02FBF4E
S1130BA005C0809108028F3F79F7EBCFDF91CF9199
S1130BB01F910F910895EF92FF920F931F93E0916D
S1130BC0F402E1FF6FC02091EC023091ED024091FC
S1130BD0EE025091EF02E090F002F090F1020091E9
S1130BE0F2021091F302621B730B840B950B6E15CA
S1130BF07F058007910708F455C0E0FF04C0ED7F2E
S1130C00E093F4020CC02E0D3F1D401F511F209392
S1130C10EC023093ED024093EE025093EF028FB753
S1130C20F894082F112780911202882361F581E03E
S1130C3080931202109200030FBF2FB7F89433274A
S1130C4080917A00806880937A002FBF8FB7F894E0
S1130C50082F1127902F80910C02813091F48091FC
S1130C601202813021F48CE00E94A4001AC0823068
S1130C7041F48091000380930C0283E0809312027C
S1130C8010C09FBF0FC080910003882351F080E003
S1130C900E949000882329F48091EB028160809364
S1130CA0EB020FBF81E00E94A4001F910F91FF90FF
S1130CB0EF9008958FB7F894282F3327922F8091BF
S1130CC00A02882331F480911002823011F42FBF7C
S1130CD013C09FBF8FB7F894282F33278091100239
S1130CE0882369F482E08093100210920A022FBFD5
S1130CF00E94DF00209A289A81E090E008952FBF97
S1130D0080E00E94900580E090E0089580932003A5
S1130D10882311F484E001C081E08093430284E0DD
S1130D200E94A40008954F925F926F927F928F92D7
S1130D309F92AF92BF92CF92DF92EF92FF920F9366
S1130D401F93CF93DF932C0180911402882309F021
S1130D5083C18091B003853009F07EC10E945A0698
S1130D60882309F479C180910703882309F074C1A9
S1130D70B20182E00E94A301882311F490E003C031
S1130D80F20196A59F7080918202981781F090934A
S1130D908202289885EC8EBD0DB407FEFDCF8EB57A
S1130DA090689EBD0DB407FEFDCF8EB5289AE20172
S1130DB021968981F201218140E09927982F882783
S1130DC03327822B932B87749C7C8154984809F495
S1130DD041E0442301F1289886E88EBD0DB407FE56
S1130DE0FDCF8EB51EBC0DB407FEFDCF8EB5289A7F
S1130DF099278F71907020914A0240913F02240FED
S1130E00312D311D43E0359527954A95E1F7281793
S1130E1039070CF421C1289882EC8EBD0DB407FE6D
S1130E20FDCF8EB589E08EBD0DB407FEFDCF8EB526
S1130E30289A0E9410017B018C01B20184E00E9477
S1130E40A301882319F4E0E0F0E006C0D2018C91FC
S1130E508550F201E80FF11D289881E88EBD0DB48C
S1130E6007FEFDCF8EB51EBC0DB407FEFDCF8EB5BB
S1130E70289A8F71893079F0289882EC8EBD0DB450
S1130E8007FEFDCF8EB586E08EBD0DB407FEFDCF07
S1130E908EB5289AE1C08FB7F89499272F9A20919C
S1130EA08400309185008FBF2F98289880E68EBDEE
S1130EB0D2019C910DB407FEFDCF8EB59EBD792F56
S1130EC07250773010F4672F01C067E0DE01962F6F
S1130ED04D910DB407FEFDCF8EB54EBD9150C1F7B7
S1130EE06150C60FD11D6F5F21962E193F092E55F3
S1130EF03F4F3901882477FC8094982C6E0C7F1C1A
S1130F00801E911E309719F4972F961B42C02081A2
S1130F10E1808281A3809927AA27BB27BA2FA92F12
S1130F20982F8827332744275527522F44273327C0
S1130F302227FF24002711278701FF24EE242E29CE
S1130F403F29402B512BBB24CC24DD242A293B29C7
S1130F504C295D29822B932BA42BB52B8619970939
S1130F60A809B9098383292F3A2F4B2F55272283A8
S1130F709D014427552721838B2F9927AA27BB2717
S1130F808083C2CF28810DB407FEFDCF21968EB594
S1130F902EBD9150B8F70DB407FEFDCF8EB5289A3B
S1130FA0289882EC8EBD0DB407FEFDCF8EB586E089
S1130FB08EBD0DB407FEFDCF8EB5289A3097D1F1C2
S1130FC02081E1808281A3809927AA27BB27BA2F99
S1130FD0A92F982F8827332744275527522F442792
S1130FE033272227FF24002711278701FF24EE241B
S1130FF02E293F29402B512BBB24CC24DD242A2924
S11310003B294C295D29822B932BA42BB52B860DD0
S1131010971DA81DB91D8383292F3A2F4B2F5527C0
S113102022839D014427552721838B2F9927AA27A3
S1131030BB278083B20181E00E940401F20160A613
S113104071A682A693A686E08093B00384E0809381
S1131050140280E090E002C085E090E0DF91CF913F
S11310601F910F91FF90EF90DF90CF90BF90AF90C2
S11310709F908F907F906F905F904F900895AF9264
S1131080BF92CF92DF92EF92FF920F931F93CF9371
S1131090DF9380910703882309F402C10E945A0652
S11310A0882309F4FDC08FB7F8949927C0914B02A7
S11310B0D0914C028FBF1092070328988FE88EBD01
S11310C00DB407FEFDCF8EB51EBC0DB407FEFDCFDB
S11310D08EB5289A982F80911402833011F08730AE
S11310E031F485E08093B00388E080931402A92E44
S11310F0BB24A2FE63C080911402863019F41092BE
S1131100140203C0882309F059C0943009F045C083
S1131110289886E88EBD0DB407FEFDCF8EB51EBCA3
S11311200DB407FEFDCFFEB4289A2FE1F222809180
S11311303F02982F96959695EF2DE91B8E0F80937D
S11311403F020091210210912202F80184A58B7FB5
S113115084A7B80183E00E940401F801F6A60E9466
S113116010017B018C01C0902102D0902202B601B3
S113117081E00E940401CE19DF092797CE01AA2736
S113118097FDA095BA2F8E0D9F1DA01FB11FF601CC
S113119080A791A7A2A7B3A70EC0E0912102F09166
S11311A0220284A5877F84A7E0912102F091220284
S11311B084A58D7F84A785E080931402A3FE70C06C
S11311C080911402843009F04EC085E08093B0030E
S11311D01092140280912302833019F41092230296
S11311E05FC0C091B703D091B803CE010E9435010E
S11311F0882389F18A8129819927982F8827332781
S1131200822B932B87749C7C8154984821F58F8181
S11312102E819927982F88273327822B932B8F5F32
S11312209F4FC9F090E08091F702882309F491E080
S1131230992389F012E01093510281E08093F70220
S1131240809184009091850069E973E00E944601D1
S11312501093230225C0109223021092440280E0CE
S11312600E9486061DC08530D9F420914A02289830
S113127086E88EBD0DB407FEFDCF8EB51EBC0DB441
S113128007FEFDCF8EB5289A8F71922F969596956D
S1131290891B280F20934A0289E08093140208C016
S11312A090911402992309F4E5C2993009F012C20D
S11312B0289880E28EBD0DB407FEFDCF8EB51EBC0E
S11312C00DB407FEFDCF8EB5482F5527433008F4E3
S11312D096C3842F99278A970CF091C31EBCE09182
S11312E02102F09122024083542F5250573010F4BF
S11312F0452F01C047E0DF011196242FFD0160E076
S113130070E00DB407FEFDCF8EB51EBC9927819306
S11313106827062E6295607F6025072E762F6295DA
S11313206F700626669576276727660F660F660F29
S11313306025215031F74150A40FB11D4F5F119624
S1131340E0912102F0912202818190E08770823045
S113135009F491E0992349F020E030E080912302E0
S1131360823081F421E030E00DC08FB7F894282F4B
S1131370332790E080910103833008F491E02FBF7C
S1131380292F3327232B09F45CC0952F941B18C0F5
S11313900DB407FEFDCF8EB51EBC8C938D916827CE
S11313A0062E6295607F6025072E762F62956F70FA
S11313B00626669576276727660F660F660F6025F3
S11313C0915030F70DB407FEFDCF8EB51EBC9B01C6
S11313D02827022E2295207F2025032E322F2295A6
S11313E02F700226269532272327220F220F220F41
S11313F020250DB407FEFDCF8EB51EBC2827022E76
S11314002295207F2025032E322F22952F7002262D
S1131410269532272327220F220F220F20250DB4D1
S113142007FEFDCF8EB5E0912102F091220285A73F
S1131430289A15E01093B00310921402232B31F074
S113144015C20DB407FEFDCF8EB5D9C2E0902102BE
S1131450F090220267010894C11CD11CF70181811C
S113146090E0282F3327277030702230310509F49B
S113147091E080912302992321F1823009F025C162
S1131480F7019381E091B703F091B8038381981732
S113149009F01BC12230310509F017C180916F009A
S11314A08D7F80936F001092F702BF0180E00E944D
S11314B00401109223021092440280E00E948606E6
S11314C004C18823C9F4C7010E9470018823A1F0D4
S11314D01093830282E08093840210928502F701C4
S11314E083818093860283E892E00E949306882396
S11314F019F483E080932302009184001091850005
S1131500C7010E947001882311F0045E1C4F1093E0
S1131510B5020093B40280918400909185009801F3
S1131520281B390B12161306A4F480914402882355
S113153069F490E08091F702882309F491E09923FB
S113154041F0C9010E94820580E801C0806880934F
S11315504402F601808527819927582F4427332791
S1131560422B532B80912802282F3327F901EE0FA9
S1131570FF1FE85FFC4F808191817091F80284170E
S1131580950769F4F901EF54FC4F8081871709F43A
S113159067C0872F8F5F8093F80280831DC000E0AF
S11315A010E080E090E0C8E0D3E0E1EBF3E0DF019D
S11315B0682F9C01888199818417950779F4209379
S11315C028029091F8028C91891709F449C0892F57
S11315D08F5F8093F8028C9300E829C08081972F55
S11315E0981B091710F4092F122F6F5FC901019678
S11315F011962296319685309105D1F66530B9F46D
S113160010932802A12FBB27FD01EE0FFF1FE85FF7
S1131610FC4F518340838091F8028F5F8093F802DE
S1131620FD01EF54FC4F8083A754BC4F1C92909152
S1131630F802892F8F778F3779F40F3768F0E1EB51
S1131640F3E0292F207880818F67891320833196D6
S113165083E0E63BF807B9F780912802282F332767
S1131660F6019281A22FBB27FD01E754FC4F808134
S113167080FF07C0FD01EE5FFC4F8081981729F1C0
S113168002C081608083AE5FBC4F9C93DFB6F89448
S1131690809101038330B0F4E0911903E80FE33043
S11316A008F0E350FF27EE0FFF1FE95EFD4F0081B6
S11316B01181F182E0828F5F8093010385E00E94B3
S11316C0A40078018D2D99278FBFF0922202E09219
S11316D02102C3C0892F8150833008F09CC08150FF
S11316E08230E0F43091B0033130C1F420E08091D5
S11316F0F702882309F421E0222381F02F9883E064
S1131700809351023093F702809184009091850078
S11317106BE273E00E94460182E068C0933009F0F6
S113172042C08091B003833009F097C00E945A06EA
S11317308823C9F128988FE88EBD0DB407FEFDCF2C
S11317408EB51EBC0DB407FEFDCF8EB5289A8091D0
S1131750810080648093810080E286BB80916F0069
S1131760806280936F0090913A02289888EC8EBD35
S11317700DB407FEFDCF8EB590669EBD0DB407FE79
S1131780FDCF8EB5289A289882EC8EBD0DB407FE45
S1131790FDCF8EB586E08EBD0DB407FEFDCF8EB5B0
S11317A0289A84E023C0809114028150823000F58D
S11317B08091B0038530E1F40E945A068823C1F079
S11317C0289882EC8EBD0DB407FEFDCF8EB583E064
S11317D08EBD0DB407FEFDCF8EB5289A80916F00A3
S11317E08F7D80936F001092070383E08093B00392
S11317F090911402913041F48091B0038330B1F59B
S11318002F9A9093B00325C0923039F58091B0039C
S1131810833061F51EC0973001F50E945A06882373
S1131820E1F090913A02289888EC8EBD0DB407FE41
S1131830FDCF8EB590669EBD0DB407FEFDCF8EB56F
S1131840289A8091B003853021F484E08093B0031A
S113185004C088E08093140204C08091140288308C
S113186029F41092140283E00E94A40080911402CF
S1131870882309F58091B0038530D1F48091070362
S11318808823B1F480912302882391F48091440247
S1131890882371F490E08091F702882309F491E0A1
S11318A0992331F00E94AF0180911402882319F426
S11318B087E00E94A4008091F702823009F092C070
S11318C01092F702F0905102F2E0FF1609F466C09C
S11318D023E0F21609F46AC081E0F81609F082C028
S11318E02091B4023091B5028091840090918500DA
S11318F040914402403829F4109244020E94AF01FE
S113190071C08901081B190B47FF03C0101611068B
S1131910ECF0C0914002D0914102809123028823CF
S1131920A9F4CE010E9493069927882351F48CA52B
S11319308E7F8CA7F0922302D093B803C093B70391
S113194029C09927F82E882329F102C065E0F62ED4
S113195020914402822F99278F77019759F4207898
S113196022602093440280E198E00E94BA010E9420
S1131970820538C027FF0AC0101611063CF480E81F
S113198080934402C8010E94820502C0109244025E
S11319908F2D09C083E08093440224C01092230257
S11319A01092440280E00E9486061CC08091B0031D
S11319B0823019F4F092B00313C08091140286307F
S11319C079F410921402289881E88EBD0DB407FEB4
S11319D0FDCF8EB51EBC0DB407FEFDCF8EB5289A83
S11319E00E94140D8FB7F894282F33278091390261
S11319F0813061F081E0809339022FBF4ACB289A6D
S1131A0085E08093B0031092140230CF1092390213
S1131A102FBFDF91CF911F910F91FF90EF90DF9037
S1131A20CF90BF90AF9008958FB7F894282F3327A5
S1131A3080913902882329F08068809339022FBF6E
S1131A40089581E0809339022FBF0E943F080895D2
S1131A5078941F920F920FB60F9211242F933F93F5
S1131A604F935F936F937F938F939F93AF93BF93A2
S1131A70EF93FF93E6E8F0E080819181208131814A
S1131A808FB7F894992730934C0220934B0221E0AE
S1131A90209307038FBF0E94140DFF91EF91BF9114
S1131AA0AF919F918F917F916F915F914F913F91F2
S1131AB02F910F900FBE0F901F90189578941F923E
S1131AC00F920FB60F9211242F933F934F935F936E
S1131AD06F937F938F939F93AF93BF93EF93FF93F2
S1131AE080916F008D7F80936F0078949FB7F894F6
S1131AF08091F702813019F482E08093F702892FF4
S1131B0099278FBF0E94140DFF91EF91BF91AF9160
S1131B109F918F917F916F915F914F913F912F9101
S1131B200F900FBE0F901F9018958FB7F894282F21
S1131B30332780913902815080933902803811F023
S1131B402FBF089581E0809339022FBF0E943F0880
S1131B5008951F938FB7F8949927209139022F5F26
S1131B60209339028FBF80914302882311F015E03E
S1131B7023C0809114028823E1F48091B003813062
S1131B8049F490E08091F702882309F491E09923C5
S1131B9081F005C0853019F489E090E00CC083E041
S1131BA0809314020E94140D85E08093430210E098
S1131BB003C085E090E0182F0E94950D812F99278E
S1131BC01F9108951F93FC018FE382878091130274
S1131BD08F5F8093130283832FB7F8943327809108
S1131BE039028F5F809339022FBF8091430288238B
S1131BF011F015E00DC0F093FD02E093FC0281E0CA
S1131C00809343021092F90284E00E94A40010E041
S1131C100E94950D812F99271F910895FF920F938C
S1131C201F93CF93DF93F82E8B01EA01622F2D319E
S1131C3018F086E090E092C0FA0131968181298102
S1131C4070E09927582F44273327422B532BCA017E
S1131C5087749C7C8154984809F471E0772349F493
S1131C60CA0180739070816498688983892F992749
S1131C708183635F68832FB7F894332780910202CE
S1131C80909103022FBF8887892F992789872FB7BF
S1131C90F8943327809104022FBF99278C831D82E7
S1131CA0CE010E94CB00FC01F0820E83812F992784
S1131CB08F838FB7F894282F332780910F028823BE
S1131CC071F482E080930F02109207022FBFCE01BD
S1131CD00E94E20D9927182F882399F00FC02FBF77
S1131CE0D0933D02C0933C028FB7F894C82FDD27F0
S1131CF02C2F80910F02882399F406C080E00E9463
S1131D00DD01812F99272AC081E080930F02109270
S1131D103B0282E00E94A400CFBF80E090E01EC09E
S1131D2080913E028F3F89F4E0910602EE2369F030
S1131D3010C01092050204C0FF27E25CFD4F108220
S1131D401092060280E090E002C085E090E02FBF90
S1131D5005C0809105028F3F79F7EBCFDF91CF91DA
S1131D601F910F91FF900895FF920F931F93CF93AC
S1131D70DF93F82E8B01E82FFF27EE0FFF1FEA54A5
S1131D80FD4F1182108210920B02C091B602D091C5
S1131D90B702209721F080911B0380FF10C081E0DF
S1131DA080930B0203C08BE00E94A400FF20E9F49F
S1131DB00C5B1240D1F4129A10920E0216C0CE019E
S1131DC00E94CB00FC016F818E8128812D50332726
S1131DD07727762F66279927682B792BAE01808188
S1131DE00E940E0E882311F3DECFDF91CF911F9155
S1131DF00F91FF9008952F923F924F925F926F92AE
S1131E007F928F929F92AF92BF92CF92DF92EF9286
S1131E10FF920F931F93CF93DF93CDB7DEB729972C
S1131E200FB6F894DEBF0FBECDBFD82E26E08217C2
S1131E3009F427C22817A8F032E0831709F4B1C0C7
S1131E40381738F0882371F141E0841709F025C46C
S1131E505CC054E0851709F406C1581708F466C13C
S1131E60D3C06AE08617B1F0681740F088E0D8164E
S1131E7009F463C28D1508F475C2FCC2ACE08A177C
S1131E8009F430C38A1708F421C3BDE08B1709F0A5
S1131E9004C440C380911B03882309F4FEC340E0BB
S1131EA051E0F2C280913702882361F52091120338
S1131EB0309113034091140350911503EFB7F89434
S1131EC0FF2760911D0270911E0280911F02909164
S1131ED02002E0901C03F0901D0300911E0310915A
S1131EE01F036E0D7F1D801F911FEFBF20931203F0
S1131EF03093130340931403509315031092370245
S1131F000E94A4030E94EF023AC00E94EF027B01E8
S1131F108C018FB7F8949927109245028FBF809156
S1131F20F40281FFBAC38091EC029091ED02A0917A
S1131F30EE02B091EF02A8019701281B390B4A0B5E
S1131F405B0BDA01C9012091F0023091F10240915A
S1131F50F2025091F302281B390B4A0B5B0B2F3F03
S1131F606FEF36076FEF46076FE7560709F495C31F
S1131F7012161306140615062CF0C801B7010E94A8
S1131F80DB058BC320931203309313034093140394
S1131F9050931503D0923702C801B7010E94A403DD
S1131FA07CC38FB7F894992720913B0220930702B2
S1131FB0D0920F028FBF80910702882309F06DC36E
S1131FC080913C0290913D020E94E20D082F11275E
S1131FD0002309F462C380E00E94DD01E0903C022A
S1131FE0F0903D02C7010E94CB0080910B02882330
S1131FF009F053C36091B6027091B7026E157F0564
S113200009F04BC3402F8FC08091430210924302CA
S1132010853001F50E94EF026093EC027093ED02AB
S11320208093EE029093EF028AEF90E0A0E0B0E09C
S11320308093F0029093F102A093F202B093F30222
S11320408091F4028E7F82608093F40281E00E948A
S1132050A40023C3863009F420C3873009F41DC3C8
S1132060809343021AC32FB7F8943327809139021F
S11320708F5F809339022FBF40914302413081F535
S11320808091F9028F5F8093F902863048F52091A0
S1132090FC023091FD02809144028823C1F490E057
S11320A08091F702882309F491E0992381F0309319
S11320B0410220934002409344028BED91E10E943F
S11320C0BA010E9482051092200383E004C085E0D7
S11320D08093200382E0809343020E94950DDDC229
S11320E0109243020E94950D10912003E090FC028F
S11320F0F090FD02F70182858F3309F0CEC280E0B3
S11321000E94DD01C7010E94CB0080910B0288234D
S113211009F0C3C26091B6027091B7026E157F05D3
S113212009F0BBC2412F0E94B40EB7C28FB7F89416
S1132130282F332780910103882309F4A2C1E09159
S11321401903FF27EE0FFF1FE95EFD4FE080F180CA
S11321502FBFF7018285178106818F3309F05BC099
S1132160C7010E94CB00FC01E081D7016C91812F53
S11321709927582F4427802F9927482B592B8FB7FD
S1132180F894992720910202309103028FBF4217DD
S1132190530721F04F5F5F4F09F057C0EA3009F051
S11321A054C0613109F051C0F70184852585992710
S11321B0982F88273327822B932B089741F5868500
S11321C027859927982F88273327822B932B909341
S11321D0500280934F02815B9140C8F42FB7F8946A
S11321E0332782B194E0892782B92FBF2FB7F8949F
S11321F0332782B192E0892782B92FBF2FB7F89491
S1132200332782B191E0892782B92FBF1EC0129A69
S1132210119A109A1AC0812F9927582F4427802F7A
S11322209927482B592B8FB7F894992720910202AC
S1132230309103028FBF4217530719F04F5F5F4F6E
S113224021F48FB7F89499278FBF9FB7F8948091A2
S11322501903E82FFF27EE0FFF1FE95EFD4FF18200
S1132260E0828F5F80931903833010F0109219037A
S113227080910103815080930103892F99278FBF97
S113228055CF3FB73983F8942090460230904702E7
S11322904090480250904902662477248824AEE492
S11322A0AA2EF3E8BF2ECC24DD24EE24FF2400E084
S11322B010E0222D332D442D552D662D772D882D9C
S11322C090E00E9413152A833B834C835D836E83C5
S11322D07F8388879987822E932EA42EB52E24017E
S11322E0350100E20E941116A22EB32EC42ED52E63
S11322F0A301920156954795379527952A0D3B1DC5
S11323004C1D5D1D57FF05C05F772F5F3F4F4F4F3B
S11323105F4F209346023093470240934802509304
S113232049026981862F99278FBF8FB7F89499271F
S11323303093FF022093FE0213C08FB7F8949927BD
S11323401092F6021092F5021092AF031092AE03AF
S113235010921602109215021092B3021092B20259
S11323608FBF9BC12FB7F894332780914E0280937F
S11323700A0282E0809310022FBF80910A02882310
S113238009F08BC1209A289A8091B003882309F020
S113239075C08EEF91E0019701960197E1F71698C9
S11323A02F9886E090E0019701960197E1F7169A3D
S11323B0289883EC8EBD0DB407FEFDCF8EB51EBCF0
S11323C00DB407FEFDCF8EB5289A289882EC8EBDF9
S11323D00DB407FEFDCF8EB588E08EBD0DB407FEAB
S11323E0FDCF8EB5289A8EEF91E001970196019763
S11323F0E1F728988EEC8EBD0DB407FEFDCF8EB5A7
S11324008DE48EBD0DB407FEFDCF8EB5289A2898B5
S113241089EC8EBD0DB407FEFDCF8EB587EC8EBD65
S11324200DB407FEFDCF8EB5289A289885EC8EBD95
S11324300DB407FEFDCF8EB580E88EBD0DB407FE4A
S1132440FDCF8EB5289A109282028BE080933A02D7
S1132450289888EC8EBD0DB407FEFDCF8EB58BE6B3
S11324608EBD0DB407FEFDCF8EB5289A2F9A81E05C
S11324708093B00380E00E9499020FC10E94140D62
S11324800CC12FBF0AC1550F90911B03852F8923BF
S1132490C9F0E42FFF27EE0FFF1FEA54FD4F208100
S11324A0318111821082852F8095982390931B038C
S11324B0442341F42C5B324009F0ECC0129A109290
S11324C00E02E8C04F5F4830F0F2E7C080910B0283
S11324D0E82FFF27EE0FFF1FEA54FD4F6081718143
S11324E041E021CE2FB7F8943327809100038093E5
S11324F00C0283E0809312022FBF80910C02882388
S113250009F0CBC081E08093810210921A030E94EB
S11325102602C3C010928102C090FA02D090FB023E
S113252080911A03882309F0B8C08FB7F894E82E75
S113253080911202833009F044C080910C028823F8
S113254009F03FC08091EB02882309F09DC091C03F
S1132550EF2DE695E695E695FF274F2D5527E55196
S1132560FD4F9A012770307081E090E002C0880F1F
S1132570991F2A95E2F78095208128232083A09231
S1132580110214C00894A11CB11CA1E0AA16B10444
S113259011F4AA24BB24FA2C8A2D0E9490008823CB
S11325A0B9F6A016B10671F74FEF50E0409300035F
S11325B08FEF80930C0281E0809312028CE00E94E2
S11325C0A400EFBE80910E02882309F066C08091BA
S11325D00002909101028093C902892F9927809368
S11325E0C802C092CB028D2D99278093CA0287E03E
S11325F08093C2021092C3020CEB12E0C8010E9445
S1132600CB00FC018AE080838091B6029091B702EE
S1132610892B09F042C01093B7020093B60281E1FE
S11326208093BC0280910B028823F1F08081609139
S1132630C3027727762F66272091C2023327622BA5
S1132640732B10920B0224E0A8010E940E0E99270E
S1132650282F882349F081E080930B021092B7025F
S11326601092B6022223C9F4129881E080930E02DC
S113267014C081E080930C021092120280917A00BF
S11326808F7780937A009DCF80911102082F1127B4
S1132690580178CF550F41E0F7CE29960FB6F8943C
S11326A0DEBF0FBECDBFDF91CF911F910F91FF9081
S11326B0EF90DF90CF90BF90AF909F908F907F90DE
S11326C06F905F904F903F902F90089580911603E4
S11326D08F3FB1F0282F3327F901E75DFD4F80814B
S11326E0809316038F3F11F48093B6038FEF80839A
S11326F02F3F31F0822F0E94FB0E81E090E008957D
S113270080E090E008951F931FB7F89414BE88E109
S11327100FB6F89480936000109260000FBE4EE0F4
S113272050E06FEF70E089E292E00E94FE168FEFB6
S1132730809316038093B60356985E9854985C98D9
S113274080916F008F7D80936F00209A289A279A3A
S11327502F980E9A169A82E592E090932202809323
S1132760210210924A028AE580933F0281E080931D
S1132770810080E28093B60083E08093B100809171
S11327808400909185004AE720918400309185006F
S11327902817390708F44150442311F0C901F4CF34
S11327A09091B2008091B2008917E1F320918400E6
S11327B0309185009091B2008091B2008917E1F3C5
S11327C08091840090918500821B930B409665E074
S11327D0969587956A95E1F790931803809317036C
S11327E01092B1008091B1008093810080918100AA
S11327F08093B6001092B20010928500109284006B
S11328008FEF87BB87B386BB8091B6008571E1F7F4
S11328100A9A099A089A129A119A109A18B88FEF7C
S113282087B90C98149810927A001092850010922F
S1132830840080916F00816080936F00809181009B
S1132840887F8260809381000E9466138823E1F769
S11328501092EB028FEF80934D0280E00E9490056E
S113286020910002309101022F5F3F4FC901AA2736
S1132870BB278093460290934702A0934802B093EB
S1132880490281E293E090931802809317028F9695
S113289090931A02809319028FE793E090931C029D
S11328A080931B028FEF9FEF90930903809308039B
S11328B090930B0380930A0390930D0380930C036E
S11328C090930F0380930E0390931103809310034E
S11328D0809100028295807F809313028FEF809312
S11328E03E028091B60080628093B6008091B6006B
S11328F081FDFCCF82E08093B0008091B60080FD22
S1132900FCCF83E08093B1008091B60083FDFCCFBF
S113291086EE8093B3008091700082608093700093
S11329200E9418030E9466138823E1F7812F9927D8
S11329308FBF78940E94A90D8FB7F894482F55271C
S113294057C080917000992783709070892B19F477
S1132950E5E0F0E014C08091B6008A71E1F780915F
S1132960B3009091B200891B8C3038F08091B20092
S1132970853F18F4E3E0F0E002C0E2E0F0E080918B
S11329806E00867009F580916F008E72E9F4809173
S113299071008E72C9F40CB407FC16C08091C1009A
S11329A0887191F48091C900887171F48091BC00A0
S11329B082FD0AC080917A0087FF03C081E090E025
S11329C005C085E090E002C080E090E023B78E1758
S11329D008F4E82FFF27E453FF4FE491207F2160A0
S11329E0E22BE3BF78948895F89483B78E7F83BFF6
S11329F0809116038F3F09F4A4CF282F3327F901C0
S1132A00E75DFD4F8081809316038F3F11F480931F
S1132A10B6038FEF80832F3F09F493CF4FBF822FEC
S1132A200E94FB0E89CFACE2B0E0E9E1F5E10C9441
S1132A30C716222E332E442E552E662E772E882E20
S1132A40992EFE013196A8E01192AA95E9F7298200
S1132A503A824B825C826D827E828F829886FE01EE
S1132A603996B8E01192BA95E9F7A986BA86CB8669
S1132A70DC86ED86FE860F87188B89819A81AB816F
S1132A80BC8189A79AA7ABA7BCA77C018D018FEF56
S1132A909FEFA0E0B0E0E822F9220A231B2389A5D6
S1132AA09AA5ABA5BCA51D014424552489859A8506
S1132AB0AB85BC858DA39EA3AFA3B8A75C016D01B4
S1132AC08FEF9FEFA0E0B0E0A822B922CA22DB2258
S1132AD08DA19EA1AFA1B8A53D0188249924C80168
S1132AE0B701A60195010E94A81669A37AA38BA336
S1132AF09CA3C801B701A40193010E94A8167B01FD
S1132B008C01C201B101A60195010E94A8165B01C6
S1132B106C01C201B101A40193010E94A8163B01FA
S1132B204C01EA0CFB1C0C1D1D1D89A19AA1ABA133
S1132B30BCA19D01442755272E0D3F1D401F511F49
S1132B402A153B054C055D0540F480E090E0A1E0CA
S1132B50B0E0680E791E8A1E9B1ECA01AA27BB27F5
S1132B60860D971DA81DB91D8D8F9E8FAF8FB8A39D
S1132B70A9013327222789A19AA1ABA1BCA1A070E6
S1132B80B070280F391F4A1F5B1F298F3A8F4B8F54
S1132B905C8FA98CBA8CCB8CDC8CED8CFE8C0F8D6D
S1132BA018A1FE01719698E011929A95E9F7ED8AC1
S1132BB0FE8A0F8B188F2D813E814F8158856DA120
S1132BC07EA18FA198A50E94A8163B014C012D85DA
S1132BD03E854F85588969A57AA58BA59CA50E9439
S1132BE0A8162D893E894F89588D260F371F481FF7
S1132BF0591F260D371D481D591D2D8B3E8B4F8B9C
S1132C00588F6D887E888F88988C2A2D3B2D4C2D6B
S1132C105D2D662D772D882D992DE2E1AC960C94CF
S1132C20E316A0E1B0E0E7E1F6E10C94C716222E2A
S1132C30332E442E552E662E772E882E992E002361
S1132C4009F466C088E0FE01319611928A95E9F78D
S1132C5029833A834B835C836D837E838F82988739
S1132C60E0E2E01B1E16CCF52D813E814F81588594
S1132C70602F772767FD7095DA01C901062E04C01D
S1132C80B695A795979587950A94D2F78D879E87D1
S1132C90AF87B88B04C0220F331F441F551FEA951A
S1132CA0D2F789819A81AB81BC8104C0B695A7957E
S1132CB0979587956A95D2F7282B392B4A2B5B2B4E
S1132CC029873A874B875C8729843A844B845C84C0
S1132CD06D847E848F8498881BC01D861E861F8603
S1132CE0188A2E2F332727FD3095309521953F4F95
S1132CF08D819E81AF81B88504C0B695A7959795BF
S1132D0087952A95D2F789879A87AB87BC87DCCFCA
S1132D10222D332D442D552D662D772D882D992D5B
S1132D20E2E160960C94E316AA1BBB1B51E107C0B9
S1132D30AA1FBB1FA617B70710F0A61BB70B881F47
S1132D40991F5A95A9F780959095BC01CD010895D6
S1132D50629FD001739FF001829FE00DF11D649F7B
S1132D60E00DF11D929FF00D839FF00D749FF00D07
S1132D70659FF00D9927729FB00DE11DF91F639FA8
S1132D80B00DE11DF91FBD01CF01112408952F924B
S1132D903F924F925F926F927F928F929F92AF92E7
S1132DA0BF92CF92DF92EF92FF920F931F93CF9334
S1132DB0DF93CDB7DEB7CA1BDB0B0FB6F894DEBFCB
S1132DC00FBECDBF09942A88398848885F846E84F1
S1132DD07D848C849B84AA84B984C884DF80EE803B
S1132DE0FD800C811B81AA81B981CE0FD11D0FB644
S1132DF0F894DEBF0FBECDBFED010895DC0101C024
S10F2E006D9341505040E0F70895FFCF5F
S1112E0C0100010022FFFFFFFFFFFF01010094
S9030000FC
