S01700006275696C642F697269732F6D61696E2E7372656343
S11300000C9482010C94A1010C94A1010C94A10103
S11300100C94A1010C94A1010C94A1010C94A101D4
S11300200C94A1010C94A1010C94A1010C94A101C4
S11300300C94A1010C94890E0C94A1010C94A509B3
S11300400C949F160C94D5160C945C0A0C94670AB5
S11300500C94720A0C94A1010C94A1010C94A101BA
S11300600C94B9090C945D0C0C94A1010C94E00C53
S11300700C94A1010C94A1010C94A1010C94370ED1
S11300800C94160E0C94210E0C942C0E0C944A0E07
S11300900C94F90D0C94A1010C940B0E0C94A10179
S11300A00C94A1010C94A1010C94A1010C94A10144
S11300B00C94A1010C94A1010C94A1010C94A10134
S11300C00C94A1010C94A1010C94A1019422B722D7
S11300D03B238E23D827DB27DE27E127E427F827D5
S11300E0FB27FE2724282828332858285B285E2845
S11300F08E2984227C287F2882288C22682900006B
S11301002110422063308440A550C660E770088106
S113011029914AA16BB18CC1ADD1CEE1EFF131127D
S1130120100273325222B5529442F772D662399356
S113013018837BB35AA3BDD39CC3FFF3DEE36224CD
S1130140433420040114E664C774A44485546AA5A6
S11301504BB528850995EEE5CFF5ACC58DD553365D
S1130160722611163006D776F6669556B4465BB7F6
S11301707AA719973887DFF7FEE79DD7BCC7C4482D
S1130180E5588668A7784008611802282338CCC946
S1130190EDD98EE9AFF9488969990AA92BB9F55ABD
S11301A0D44AB77A966A711A500A333A122AFDDB96
S11301B0DCCBBFFB9EEB799B588B3BBB1AABA66C8D
S11301C0877CE44CC55C222C033C600C411CAEEDE6
S11301D08FFDECCDCDDD2AAD0BBD688D499D977E9D
S11301E0B66ED55EF44E133E322E511E700E9FFF36
S11301F0BEEFDDDFFCCF1BBF3AAF599F788F8891EC
S1130200A981CAB1EBA10CD12DC14EF16FE18010CF
S1130210A100C230E3200450254046706760B983D2
S11302209893FBA3DAB33DC31CD37FE35EF3B1021F
S11302309012F322D2323542145277625672EAB5E2
S1130240CBA5A89589856EF54FE52CD50DC5E2346F
S1130250C324A01481046674476424540544DBA7B2
S1130260FAB79987B8975FE77EF71DC73CD7D326BF
S1130270F2369106B01657667676154634564CD942
S11302806DC90EF92FE9C899E9898AB9ABA944580F
S1130290654806782768C018E1088238A3287DCB12
S11302A05CDB3FEB1EFBF98BD89BBBAB9ABB754A5F
S11302B0545A376A167AF10AD01AB32A923A2EFDA2
S11302C00FED6CDD4DCDAABD8BADE89DC98D267CAF
S11302D0076C645C454CA23C832CE01CC10C1FEFF2
S11302E03EFF5DCF7CDF9BAFBABFD98FF89F176EFF
S11302F0367E554E745E932EB23ED10EF01E000231
S11303000E060C0411241FBECFEFD1E2DEBFCDBF19
S113031012E0A0E0B2E0E8E5FDE500E00BBF02C0BA
S113032007900D92AA31B107D9F718E0AAE1B2E01B
S113033001C01D92AC3DB107E1F70E94C4290C94A1
S1130340AB2E0C9400008FB7F894992708958FBFB3
S11303500895282F9FB7F894E82FFF27ED56FD4FF7
S113036080818F3F81F4E091B808E21771F40BC0EB
S11303702093100804C0FF27ED56FD4F20832093DF
S1130380B80820E007C025E005C0809110088F3F21
S113039091F7EECF892F99278FBF822F9927089540
S11303A083E10E94A9019927089585E10E94A9018A
S11303B09927089584E10E94A901992708951F931C
S11303C01FB7F8948091B208882341F48AE00E9410
S11303D0A901882319F481E08093B208812F992719
S11303E08FBF1F910895382FFA01422F2D3118F035
S11303F082E090E008956683872F99278583338769
S113040021878091210290912202892B19F085E0A5
S113041090E008952FB7F894332785E08093240261
S113042010922502F0932002E0931F0282E090E0F4
S113043090932202809321021092270210922602A6
S1130440445F409323022FBF8FB7F894282F33279C
S1130450809148058A3011F42FBF19C02FBF9FB770
S1130460F89480916F03882311F020E006C081E0A6
S113047080936F031092700321E0892F99278FBF17
S1130480222329F00E94DF0180E090E00895109279
S113049022021092210281E090E00895EF92FF92EF
S11304A01F93CF93DF93182F7B01E82FFF27EE0FC5
S11304B0FF1FE25FF74F1182108210921802A09181
S11304C00E08B0910F08109721F08091610380FF0E
S11304D011C081E08093180203C088E10E94A90141
S11304E01123E1F48BEDE81687E0F806B9F41092D5
S11304F0E30414C0FD01359624813327ED016D8199
S11305007727762F662781819927682B792BAD0170
S113051086810E94F301882319F3DFCFDF91CF9105
S11305201F91FF90EF900895AC01E0EFF3E080E0BD
S113053090E09C01858180FF05C0808191818417B2
S1130540950741F0C90101963B968A30910589F7D8
S11305502FEF30E0C90108950E9494028F3F91F07B
S113056099272BE030E0829FF001839FF00D929F4A
S1130570F00D1124E051FC4F858181FF03C0878178
S1130580908508958FEF9FEF08950E9494028F3F06
S113059019F481E090E00895282F33278BE090E050
S11305A0289FF001299FF00D389FF00D1124E05190
S11305B0FC4F85818860858380E090E008952F92C8
S11305C03F924F925F926F927F928F929F92AF92DF
S11305D0BF92CF92DF92EF92FF920F931F93CF932C
S11305E0DF93CDB7DEB729970FB6F894DEBF0FBE01
S11305F0CDBF6FB76983F8942090570330905803A8
S11306004090590350905A03662477248824EEE4DA
S1130610AE2E73E8B72ECC24DD24EE24FF2400E0B4
S113062010E0222D332D442D552D662D772D882D48
S113063090E00E946F2C2A833B834C835D836E83FE
S11306407F8388879987822E932EA42EB52E24012A
S1130650350100E20E946D2DA22EB32EC42ED52E9C
S1130660A301920156954795379527952A0D3B1D71
S11306704C1D5D1D57FF05C05F772F5F3F4F4F4FE8
S11306805F4F20935703309358034093590350937B
S11306905A03E9818E2F99278FBFCA01B901299680
S11306A00FB6F894DEBF0FBECDBFDF91CF911F917F
S11306B00F91FF90EF90DF90CF90BF90AF909F90FD
S11306C08F907F906F905F904F903F902F90089500
S11306D00E94DF02DC01CB010895EF920F931F9378
S11306E0AE2D99E0899FF0011124E15AFB4F40831C
S11306F05183628373830483158326833783A170B4
S113070080858E7F8A2B8260808786E00E94A90183
S11307101F910F91EF9008957FB7F8946091B20004
S113072020918E0230918F0240919002509191025B
S1130730B99B11C08091B3009091B200280F311D74
S1130740411D511D2F5F3F4F4F4F5F4F290F311DEB
S1130750411D511D04C0260F311D411D511D872F00
S113076099278FBFCA01B90108956D3118F080E04F
S113077090E008950C96089568E00E94B5030895EA
S113078062E00E94B50308956E5F0E94B50300976E
S113079009F0029608950B960895882319F08CB5F4
S11307A0806402C08CB58F7B8CBD0895882319F0BA
S11307B08CB5806802C08CB58F778CBD08950F937B
S11307C01F9380E00E94CD030FB7F8941127229A5B
S11307D02398219A209A8CB580618CBD80E00E9478
S11307E0D6038CB5877F8CBD8CB58B7F8CBD81E0A7
S11307F00E94CD038DB581608DBD8CB58C7F8CBD81
S11308000FBF1F910F9108950F931F93CF93DF9301
S1130810182F0FB7F89480911B02882311F40E94BB
S1130820DF03802F99278FBF8FB7F894C82FDD2758
S11308302C2F80911B02882361F481E080931B029A
S11308401093670389E00E94A901CFBF80E090E084
S113085021C0E12FFF27EB59FC4F80818F3F89F4A2
S1130860E0910902E11789F40CC01093080204C056
S1130870FF27EB59FC4F10831093090280E090E0AE
S113088002C085E090E02FBF05C0809108028F3F31
S113089079F7EBCFDF91CF911F910F9108958FB727
S11308A0F894282F3327922F80910A02882331F459
S11308B080911B02823011F42FBF13C09FBF8FB7EA
S11308C0F894282F332780911B02882369F482E04F
S11308D080931B0210920A022FBF0E94DF03209A0A
S11308E0289A81E090E008952FBF80E00E940404DC
S11308F080E090E00895FB0121E030E002C0220F87
S1130900331F8A95E2F784A5822B84A708958FB7B5
S1130910F8942091E7033091E8034091E903509162
S1130920EA03E0918400F0918500B09B08C02F5F3A
S11309303F4F4F4F5F4FE0918400F091850099271E
S11309408FBFC901772766279F0144275527622B4C
S1130950732B842B952B0895FC0182819927982F62
S1130960882721813327822B932BB5E09695879591
S1130970BA95E1F7817090700895AC01EFB7F894DF
S11309802091840030918500C901841B950B039646
S11309908617970720F0B9016D5F7F4F02C0640F7F
S11309A0751F6115710511F461E070E061507040CC
S11309B0709389006093880082E086BB80916F0009
S11309C0826080936F008E2F99278FBF0895809344
S11309D01F08882311F484E001C081E08093200380
S11309E082E00E94A9010895CF93DF93EC010E9455
S11309F0AC04882339F18A8129819927982F882783
S1130A003327822B932B87749C7C81549848D1F490
S1130A108F814E812FB7F894332760910202709131
S1130A2003022FBF20E09927982F88275527842B6E
S1130A30952B8617970709F021E081E02827822F5C
S1130A40992702C080E090E0DF91CF910895FB01E7
S1130A5021E030E002C0220F331F8A95E2F784A51B
S1130A60822399270895EF92FF920F931F937C019D
S1130A708FB7F894992700914B0510914C050F5EA0
S1130A801E4F10934C0500934B05015111408FBF2D
S1130A9084E00E94A901C801B7010E941B2E8A5D4F
S1130AA09E4F1F910F91FF90EF9008950F931F9306
S1130AB0CF93DF93EC01892BE9F02091C6073091A5
S1130AC0C7078FEF2F3F3807A9F080917C02813050
S1130AD019F4198218820BC00091C8071091C90734
S1130AE0C9010E94AC02080F191F1983088380E012
S1130AF090E002C081E090E0DF91CF911F910F91CF
S1130B00089580913302E82FFF27EE0FFF1FEF5562
S1130B10F84F0190F081E02D20913502222351F00D
S1130B208F5F809333028C3011F410923302215082
S1130B3020933502CF010895AC012091A2032C30FB
S1130B4018F081E090E0089580915C03682F620FB3
S1130B50712D711DFB016C30710508F03C97EE0F8F
S1130B60FF1FE15BFA4F518340832F5F2093A20361
S1130B7080E090E00895AC012091A1032C3018F09E
S1130B8081E090E0089580911A08682F620F712D1A
S1130B90711DFB016C30710508F03C97EE0FFF1FCF
S1130BA0E554F74F518340832F5F2093A10380E0E6
S1130BB090E00895685F0E94B503009709F00896D5
S1130BC00895FC018081855199270895CF93DF937F
S1130BD0EC01FB01642F8FB7F894992722B134E01C
S1130BE0232722B98FBF4230E1F58091E3048823A3
S1130BF0C1F5908181818093E8079093E7074BEDDD
S1130C0057E08FEF8093E1078093E00786E18093BC
S1130C10E60780910E0890910F08892B11F55093E7
S1130C200F0840930E086093E4078091180288230C
S1130C30A9F01092180222E06FEF7FEF86E10E9484
S1130C40F3019927282F882349F081E08093180223
S1130C5010920F0810920E08222319F481E0809359
S1130C60E304CE01DF91CF910895FC012781308503
S1130C70C901A3E0880F991FAA95E1F7820F931F7A
S1130C80860F971F6AE070E00E941B2E70876783AF
S1130C900895FC0161859285662329F48AE0989F72
S1130CA0B001112409C077278AE0989FC00111245C
S1130CB00E942F2E11861286CF010E9435060895B8
S1130CC04FB7F8945527FC01B3E0F695E795BA952C
S1130CD0E1F7EB5EFA4F8770907021E030E002C0DC
S1130CE0220F331F8A95E2F78081822B80834FBFC6
S1130CF00895809148058A3021F48091220384303C
S1130D0021F081E080931C0208958CE00E94A901E7
S1130D1010921C0208952FB7F89433278093C600CD
S1130D20E0ECF0E08081806480832FBF0895FC01B3
S1130D306115710519F481E090E0089580916A03CA
S1130D4090916B03892B19F085E090E008957093DE
S1130D50CF076093CE07F0936B03E0936A0310927E
S1130D6053031092520381E0809354038091C00096
S1130D7080648093C0008091C10080648093C1002E
S1130D80808121E030E030935303209352030E948A
S1130D908B0680E090E008958FB7F894992720910E
S1130DA02D022E7F20932D022EE72093AC028FBFBD
S1130DB061E070E08CEA92E00E949706992708951A
S1130DC01F93CF93DF938FB7F8941092B2082091BA
S1130DD0480540E0283009F441E030E0293009F4C6
S1130DE031E0442311F4332351F010924805E0918B
S1130DF05E04FF27EE0FFF1FE359FC4F1082992773
S1130E008FBF442311F4332331F19FB7F8948091B9
S1130E1018088F5F8093180880916603833479F4EF
S1130E202091D4038091D303821779F0822F8F5FAE
S1130E308093D403863048F01092D40306C0A0E017
S1130E40442309F4A1E071E002C0A0E070E0892F1E
S1130E5099278FBF06C0222311F010E06CC0A0E0D8
S1130E6070E08FB7F894992720911C028FBF22233A
S1130E7041F08FB7F89499272AE0209348058FBF53
S1130E8042C08FB7F894992760916D0340916F0326
S1130E908FBF8FB7F894282F332750E09091D30356
S1130EA08091D403981709F451E02FBF552341F5DD
S1130EB0662331F55FB7F89482E080936D038FB7B2
S1130EC0F894282F332740E09091D3038091D403E2
S1130ED0981709F441E02FBF442311F080E006C0C5
S1130EE0E091D403FF27ED52FC4F828180936E037F
S1130EF083E48093660310925E04852F99270EC0C5
S1130F004150423010F010E00BC08FB7F89499278D
S1130F1025E42093660321E020935E048FBF11E053
S1130F20772349F08FB7F8949927A09325028FBFB0
S1130F308EE00E94A9018FB7F894C82FDD27809115
S1130F4048058A3021F40E947906CFBF1DC0CFBF67
S1130F501123D1F02FB7F89433271092D4081092AC
S1130F60D3081092620381E0809348052FBF0E944A
S1130F70CC06882349F08FB7F894992729E0209369
S1130F8048058FBF0E94DF01DF91CF911F91089523
S1130F90DF92EF92FF920F931F938FB7F894282F4D
S1130FA03327D22E9091B3008091B20047B39817A3
S1130FB011F041FF02C02FBF6FC0809156038823F8
S1130FC0D1F10E948C03E0908402F090850200919C
S1130FD086021091870220911B0830911C084091D1
S1130FE01D0850911E086E197F09800B910B621722
S1130FF073078407950728F01092560386EE71E074
S11310001CC02E0D3F1D401F511F80918E029091D8
S11310108F02A0919002B0919102281B390B4A0BC8
S11310205B0B273E31054105510528F4822F223000
S113103018F482E001C086EE70E0682F6150809160
S1131040B60083FDFCCF8091B200681709F46F5F8E
S113105020918E0230918F02409190025091910222
S1131060DA01C9010196A11DB11D860F911DA11DB3
S1131070B11D82179307A407B50710F4622F60957A
S11310808091B60083FDFCCF6093B300DFBE77236D
S113109019F085E00E94A9011F910F91FF90EF9034
S11310A0DF900895AFB7F894BB27E1E0E0935603CF
S11310B060938402709385028093860290938702E2
S11310C020931B0830931C0840931D0850931E085E
S11310D0AFBF0E94C80708959BE0899FF0011124C7
S11310E0E051FC4F7183608312821382148285E085
S11310F085831682108617820895882349F0682F05
S1131100772784EC99E00E942F2E6B3F710510F035
S11311106FEF7FEFCB010895CF92DF92FF920F9391
S11311201F93CF93DF93282F062F482F55278BE04B
S113113090E0489FE001499FD00D589FD00D1124A5
S1131140C051DC4F8D8182FF02C08B7F8D838A81E9
S1131150302F381B0A838B818F5F8B83332379F085
S11311608C81830F81508C833B3048F06881798176
S1131170822F0E946C080A8381E08B836EC08BE00F
S113118090E0489FF001499FF00D589FF00D112405
S1131190E051FC4F83812481820F912D911D03978F
S11311A01CF4333008F459C0C080D180C0EFD3E0C0
S11311B0888199818C159D0509F049C08D81282F5E
S11311C0332720FF44C06B81FC80F60E21FD16C03E
S11311D07727882799272AEF30E040E050E00E94E3
S11311E0F02D2F2D3327442755270E94422EDA0154
S11311F0C9012E830E947D0898878F838D81826028
S11312008D830E8189E0089F800111246B817727EB
S1131210882799272AEF30E040E050E00E94F02D23
S11312202F2D3327442755270E94422EC801820FB1
S1131230911D6AE070E00E942F2ECB016E831B8209
S11312401C820E947D08BC01CE010E9435062B96AB
S113125084E0CE35D80709F0ABCFDF91CF911F9151
S11312600F91FF90DF90CF90089580E090E0E5EF3C
S1131270F3E09C01808180FF08C0C90101963B9680
S11312808A309105B1F72FEF30E0C9010895982F06
S1131290AFEF60E070E040E050E0E5EFF3E0808124
S11312A0282F332720FF0BC021FF09C023FD07C0CF
S11312B0228133812617370710F0A42FB9014F5F1D
S11312C05F4F3B964A30510551F7892F992768178C
S11312D0790718F48FEF90E008958A2F99270895DD
S11312E0AC0130918C028FEF4F3F580711F020E092
S11312F012C0832F99270895E22FFF2783E0EE0F72
S1131300FF1F8A95E1F7E853FD4F8081918184178F
S1131310950719F02F5F231779F7822F99270895DE
S11313201F93CF93DF93162FC0E0D0E06AE10E94B1
S1131330C403FC0180818123811711F4C1E0D0E052
S1131340CE01DF91CF911F9108951F920F920FB696
S11313500F9211248F938091B0008093B0008091FC
S1131360B60081FDFCCF8F910F900FBE0F901F90A0
S113137018951F920F920FB60F9211240F931F937B
S11313802F933F934F935F936F937F938F939F9389
S1131390AF93BF93CF93DF93EF93FF932EB5E09179
S11313A0E104F091E204309739F08091DB039091ED
S11313B0DC03E80FF91F20838091DB039091DC03A9
S11313C001969093DC038093DB0380E00E94D603B4
S11313D0C091DB03D091DC032091490230914A0291
S11313E0C217D30708F042C00091AD081091AE08AF
S11313F04091E1045091E204CE010A96281739077E
S113140008F4C901DA01AC0FBD1FF801EC0FFD1F90
S11314109C012150304015C00115110531F0808127
S11314208EBD0DB407FEFDCF04C01EBC0DB407FE77
S1131430FDCF8EB54115510509F08C932196119677
S11314403196C217D30740F381E00E94D6030115F9
S1131450110531F00C0F1D1FF80180818EBD01C0F4
S11314601EBCD093DC03C093DB0311C01092E204D2
S11314701092E1041092AE081092AD0810924A0244
S1131480109249021092DC031092DB038EB5FF9197
S1131490EF91DF91CF91BF91AF919F918F917F9108
S11314A06F915F914F913F912F911F910F910F90E9
S11314B00FBE0F901F90189578941F920F920FB63D
S11314C00F9211240F900FBE0F901F9018957894CF
S11314D01F920F920FB60F9211240F900FBE0F9010
S11314E01F90189578941F920F920FB60F921124A3
S11314F02F933F938F939F93AF93BF932FB7F894FA
S113150033278091E7039091E803A091E903B09118
S1131510EA030196A11DB11D8093E7039093E803AC
S1131520A093E903B093EA032FBFBF91AF919F91BA
S11315308F913F912F910F900FBE0F901F90189590
S1131540EEEFF0E06927660FF11DE60FF11DC89577
S1131550982F802D3196C89590250895982F8091C5
S11315602802882389F5992379F531E030932802FC
S113157080910B028093290220911D02822F817099
S113158080938B02809110029091110290932B0210
S113159080932A0280911E0280932C02322731709C
S11315A0267EE32FFF27EE0FFF1FE45FFD4F8081B0
S11315B091819093110280931002232B20931D029A
S11315C08FE00E94A901089580911D0280FF02C04E
S11315D08B7F01C08D7F80931D0208950F931F930D
S11315E0082F162F809122038130D9F0813038F0F2
S11315F0823009F44AC0833009F028C159C000235D
S113160009F458C11092C1071092C00710924E05F8
S11316101092DA07109255031092EC031092EB0328
S113162039C1002309F046C18091EB039091EC038A
S11316300E94A00A9093EC038093EB0382E08093D2
S113164022031093DA07143409F000C125C18695EA
S1131650869503C080911D028695817009F0F6C0BD
S113166080911D02992311F0846001C082608093EF
S11316701D0280911D02877E886080931D02109256
S11316801E028FEF80930B0215C1002309F0DEC008
S1131690609355038091EB039091EC030E94A00AA0
S11316A09093EC038093EB0383E08093220302C1C5
S11316B080914E058F3F09F4C9C0002309F461C02D
S11316C0823008F4C3C0E091C007EE2309F4EBC0F4
S11316D04E2F4150E42FFF27E054F84F8281992781
S11316E0382F2227442311F4E2E002C0E42FE15012
S11316F0FF27E054F84F82819927282B392B8091BA
S1131700EB039091EC032817390709F09FC080E0A0
S11317100E94AE0A309155038091D3032091D403E3
S1131720982F9F5F963008F090E0921771F0E82FA1
S1131730FF27ED52FC4F32838F5F8093D3038630B3
S113174010F01092D3030E94DF011092C10710928F
S1131750C00794E09093220310924E051092DA078A
S1131760109255031092EC031092EB0380912D021A
S11317708D7F80932D0280911C02882309F49AC0E6
S113178084C0823008F44EC0E091C107FF27E054C2
S1131790F84F8281482F5527342F20911D02822F24
S11317A0869586958695837099278130910519F0E1
S11317B00297F9F40EC0277E206120931D02442372
S11317C011F485E001C080E080931E0230930B0287
S11317D010C080911E028F3260F4E0911002F091EB
S11317E01102E80FF11D408380911E028F5F8093E8
S11317F01E028091C107E82FFF27E054F84F628151
S11318008F5F8093C107833010F01092C107772750
S11318108091EB039091EC030E94A00A9093EC0357
S11318208093EB038091C007E82FFF27E054F84F23
S113183012838F5F8093C007833010F01092C0072B
S113184080914E058F5F80934E0534C01092C1077E
S11318501092C00714E01093220310924E051092C8
S1131860DA07109255031092EC031092EB03809167
S11318702D028D7F80932D0281E00E94AE0A80911B
S11318801C02882329F0109322030E94790612C0B7
S1131890002381F081E009CF80911D02982F91707F
S11318A080FDD5CED7CE8091C4079927382F222723
S11318B042E01CCF1F910F9108951F920F920FB613
S11318C00F9211242F933F934F935F936F937F93C2
S11318D08F939F93AF93BF93EF93FF938091C00037
S11318E087FF42C06091C600E091ED03F091EE03E2
S11318F0309719F18091B0089091B108E80FF91F61
S1131900608301969093B1088093B0082091D50824
S11319103091D6088217930738F11092EE03109293
S1131920ED03809117058330F9F08091C1008F7722
S11319308093C1001092170517C06E3719F460E048
S113194081E010C080912D026D3721F48260809374
S11319502D020AC081FF05C08D7F80932D0280E295
S1131960682780E00E94EE0AFF91EF91BF91AF914A
S11319709F918F917F916F915F914F913F912F91A3
S11319800F900FBE0F901F901895982F8D5782308F
S113199068F480912D02816080932D0280E2892772
S11319A080934D058DE78093AC0202C09093AC0206
S11319B061E070E08CEA92E00E949706992708950E
S11319C078941F920F920FB60F921124FF920F93E7
S11319D01F932F933F934F935F936F937F938F93B3
S11319E09F93AF93BF93CF93DF93EF93FF93209194
S11319F05203309153038091CE079091CF0728175B
S1131A00390780F4E0916A03F0916B03E20FF31F4E
S1131A1080812F5F3F4F30935303209352030E94E2
S1131A208B06D1C010926B0310926A031092540378
S1131A308091C1008F7B8093C100FFB6F8948091A0
S1131A402D0280FF0EC08E7F80932D0280914D0564
S1131A508093AC0261E070E08CEA92E00E94970609
S1131A60AFC080914805843009F48CC0853040F4BF
S1131A70823021F18330B8F5813009F09CC00DC06B
S1131A80863009F48DC0863008F483C0873009F4A9
S1131A908EC0883009F08FC091C0809166030E9487
S1131AA0C50C082F83E080934805609166038091FC
S1131AB0D3089091D4080E94A00A10C080911808FD
S1131AC00E94C50C082F83E0809348056091180894
S1131AD08091D3089091D4080E94A00A9093D408CE
S1131AE08093D30866C0E0915E04FF27EE0FFF1FCA
S1131AF0E259FC4F80810E94C50C082F10915E04AE
S1131B00C12FDD27FE01EE0FFF1FE259FC4F60815C
S1131B108091D3089091D4080E94A00A9093D4088D
S1131B208093D308209162032F5F209362031130C6
S1131B3039F580912402E0911F02F0912002E80F10
S1131B40F11DE0818F5F8093240290912302981706
S1131B5030F482E080936F0340E050E002C04E2FE7
S1131B605527DE01AA0FBB1FFD01E359FC4F8081FD
S1131B70823031F02F3F21F0A259BC4F4C9319C051
S1131B8084E012C08091D3080E94C50C082F85E020
S1131B900BC08091D4080E94C50C082F86E004C0B5
S1131BA00E94CC06082F87E08093480502C088E095
S1131BB003C0002329F089E0809348050E94DF01D7
S1131BC08F2D99278FBFFF91EF91DF91CF91BF9117
S1131BD0AF919F918F917F916F915F914F913F91C1
S1131BE02F911F910F91FF900F900FBE0F901F9098
S1131BF018951F920F920FB60F9211248F93809114
S1131C00C80087FF02C08091CE008F910F900FBE55
S1131C100F901F90189578941F920F920FB60F9201
S1131C2011240F900FBE0F901F90189578941F9257
S1131C300F920FB60F9211240F900FBE0F901F90AA
S1131C40189578941F920F920FB60F9211240F904B
S1131C500FBE0F901F90189578941F920F920FB695
S1131C600F9211240F900FBE0F901F901895789427
S1131C701F920F920FB60F9211248F939F9380910E
S1131C809600909197009F918F910F900FBE0F90A7
S1131C901F90189578941F920F920FB60F921124EB
S1131CA02F933F938F939F932FB7F894332780916B
S1131CB05D0390915E03019690935E0380935D03B0
S1131CC02FBF9F918F913F912F910F900FBE0F9037
S1131CD01F901895EF92FF920F931F9379018A0139
S1131CE0643018F044E050E002C0462F5527BC0190
S1131CF089E695E00E949B2EE0922E02F0922F023C
S1131D0000933002109331021F910F91FF90EF90D6
S1131D1008951F920F920FB60F9211242F933F93A1
S1131D204F935F936F937F938F939F93AF93BF93DF
S1131D30EF93FF938091B0008093B0008091B60040
S1131D4081FDFCCF8091B30099270196AA27BB2778
S1131D5020918E0230918F02409190025091910215
S1131D60280F391F4A1F5B1F20938E0230938F0266
S1131D70409390025093910278940E94C807FF9177
S1131D80EF91BF91AF919F918F917F916F915F91EF
S1131D904F913F912F910F900FBE0F901F90189568
S1131DA021E020936C03209313052091840030914B
S1131DB08500BC01C9010E94BD040895AF92BF9281
S1131DC0CF92DF92EF92FF920F931F9380911402B0
S1131DD090911502A0911602B0911702B695A7959D
S1131DE0979587958093190390931A03A0931B03E7
S1131DF0B0931C030E94DF02E0901903F0901A03D1
S1131E0000911B0310911C03A80197010E94422E0C
S1131E105B016C01AE0CBF1CC01ED11EA092190345
S1131E20B0921A03C0921B03D0921C031092BF07F6
S1131E300E948C03AB01BC01E1E0EE2E960185010A
S1131E4081E00E946D031F910F91FF90EF90DF904E
S1131E50CF90BF90AF90089580E890E0A0E0B0E00C
S1131E608093140290931502A0931602B093170264
S1131E700E94DE0E08950F931F93FC0100810D5004
S1131E80112762E00E94B503FC01208133272F70E3
S1131E903070C901880F991F820F931F081B0250CD
S1131EA0802F99271F910F9108951F93982F1FB783
S1131EB0F89480911A02823099F58091070289176B
S1131EC079F58091050220E030E08F3F11F421E0A4
S1131ED030E0232BF1F49FEF909307028F3F19F426
S1131EE02FEF30E00DC0282F3327F901E953FD4FC0
S1131EF08081809305028F3F11F4909306029083B2
S1131F002093C40281E080931A0280E00E94A90118
S1131F1005C08FEF8093070210921A0221E001C0DE
S1131F2020E0812F99278FBF90E0213009F491E0C0
S1131F3081E09827892F99271F91089580E00E94B6
S1131F40550F992708950F931F93982F1FB7F8944F
S1131F5080911B02823099F580910A02891779F5E4
S1131F608091080220E030E08F3F11F421E030E05E
S1131F70232BF1F49FEF90930A028F3F19F42FEF74
S1131F8030E00DC0282F3327F901EB59FC4F808135
S1131F90809308028F3F11F4909309029083209359
S1131FA0670381E080931B0289E00E94A90105C0B8
S1131FB08FEF80930A0210921B0201E001C000E03F
S1131FC0812F99278FBF1FB7F89480911B02882314
S1131FD011F40E94CD03812F99278FBF90E0013027
S1131FE009F491E081E09827892F99271F910F9197
S1131FF0089580E00E94A30F9927089580912003FB
S1132000823031F481E08093200382E00E94A901B0
S113201008954F925F926F927F928F929F92AF92A8
S1132020BF92CF92DF92EF92FF920F931F93CF93C1
S1132030DF932C0180914802882309F083C18091A9
S1132040AF08853009F07EC10E944F04882309F44B
S113205079C18091C507882309F074C1B20182E077
S11320600E942705882311F490E003C0F20196A58D
S11320709F708091A003981781F09093A0032898F3
S113208085EC8EBD0DB407FEFDCF8EB590689EBD68
S11320900DB407FEFDCF8EB5289AE2012196898101
S11320A0F201218140E09927982F88273327822B3A
S11320B0932B87749C7C8154984809F441E0442311
S11320C001F1289886E88EBD0DB407FEFDCF8EB5CC
S11320D01EBC0DB407FEFDCF8EB5289A99278F71CB
S11320E0907020915B0340911803240F312D311D12
S11320F043E0359527954A95E1F7281739070CF4FD
S113210021C1289882EC8EBD0DB407FEFDCF8EB59B
S113211089E08EBD0DB407FEFDCF8EB5289A0E94CE
S113212087047B018C01B20184E00E942705882387
S113213019F4E0E0F0E006C0D2018C918550F20180
S1132140E80FF11D289881E88EBD0DB407FEFDCF80
S11321508EB51EBC0DB407FEFDCF8EB5289A8F71C7
S1132160893079F0289882EC8EBD0DB407FEFDCF3E
S11321708EB586E08EBD0DB407FEFDCF8EB5289AD0
S1132180E1C08FB7F89499272F9A20918400309159
S113219085008FBF2F98289880E68EBDD2019C9130
S11321A00DB407FEFDCF8EB59EBD792F72507730EA
S11321B010F4672F01C067E0DE01962F4D910DB436
S11321C007FEFDCF8EB54EBD9150C1F76150C60FCD
S11321D0D11D6F5F21962E193F092E553F4F3901AE
S11321E0882477FC8094982C6E0C7F1C801E911E92
S11321F0309719F4972F961B42C02081E180828189
S1132200A3809927AA27BB27BA2FA92F982F8827FD
S1132210332744275527522F442733272227FF24C7
S1132220002711278701FF24EE242E293F29402B64
S1132230512BBB24CC24DD242A293B294C295D299C
S1132240822B932BA42BB52B86199709A809B909BE
S11322508383292F3A2F4B2F552722839D0144270F
S1132260552721838B2F9927AA27BB278083C2CF89
S113227028810DB407FEFDCF21968EB52EBD915059
S1132280B8F70DB407FEFDCF8EB5289A289882ECD6
S11322908EBD0DB407FEFDCF8EB586E08EBD0DB4A8
S11322A007FEFDCF8EB5289A3097D1F12081E180C9
S11322B08281A3809927AA27BB27BA2FA92F982FF9
S11322C08827332744275527522F4427332722278B
S11322D0FF24002711278701FF24EE242E293F29FC
S11322E0402B512BBB24CC24DD242A293B294C2907
S11322F05D29822B932BA42BB52B860D971DA81D2E
S1132300B91D8383292F3A2F4B2F552722839D01F3
S11323104427552721838B2F9927AA27BB278083FE
S1132320B20181E00E947B04F20160A671A682A63C
S113233093A686E08093AF0884E08093480280E00F
S113234090E002C085E090E0DF91CF911F910F9162
S1132350FF90EF90DF90CF90BF90AF909F908F90C1
S11323607F906F905F904F900895AF92BF92CF92FD
S1132370DF92EF92FF920F931F93CF93DF9380919D
S1132380C507882309F402C10E944F04882309F475
S1132390FDC08FB7F8949927C0915F03D091600373
S11323A08FBF1092C50728988FE88EBD0DB407FE25
S11323B0FDCF8EB51EBC0DB407FEFDCF8EB5289A99
S11323C0982F80914802833011F0873031F485E0F2
S11323D08093AF0888E080934802A92EBB24A2FE14
S11323E063C080914802863019F41092480203C0F9
S11323F0882309F059C0943009F045C0289886E82C
S11324008EBD0DB407FEFDCF8EB51EBC0DB407FE08
S1132410FDCFFEB4289A2FE1F22280911803982F61
S113242096959695EF2DE91B8E0F809318030091D6
S1132430880210918902F80184A58B7F84A7B801D2
S113244083E00E947B04F801F6A60E9487047B01C6
S11324508C01C0908802D0908902B60181E00E946C
S11324607B04CE19DF092797CE01AA2797FDA095F3
S1132470BA2F8E0D9F1DA01FB11FF60180A791A733
S1132480A2A7B3A70EC0E0918802F091890284A5A7
S1132490877F84A7E0918802F091890284A58D7FCB
S11324A084A785E080934802A3FE70C0809148020F
S11324B0843009F04EC085E08093AF081092480242
S11324C080918D02833019F410928D025FC0C09107
S11324D0B908D091BA08CE010E94AC04882389F1CE
S11324E08A8129819927982F88273327822B932B38
S11324F087749C7C8154984821F58F812E8199277B
S1132500982F88273327822B932B8F5F9F4FC9F0F7
S113251090E080911305882309F491E0992389F0D0
S113252012E010936C0381E0809313058091840082
S11325309091850069E973E00E94BD0410938D02B7
S113254025C010928D021092210380E00E94E704BE
S11325501DC08530D9F420915B03289886E88EBD90
S11325600DB407FEFDCF8EB51EBC0DB407FEFDCF26
S11325708EB5289A8F71922F96959695891B280F60
S113258020935B0389E08093480208C0909148023D
S1132590992309F4E6C2993009F013C2289880E21D
S11325A08EBD0DB407FEFDCF8EB51EBC0DB407FE67
S11325B0FDCF8EB5482F5527433008F497C3842F99
S11325C099278A970CF092C31EBCE0918802F0917F
S11325D089024083142F1250173010F4912F01C038
S11325E097E0BF016F5F7F4F292FFB0140E050E070
S11325F00DB407FEFDCF8EB51EBC808381914827A4
S1132600042E4295407F4025052E542F42954F704D
S11326100426469554274527440F440F440F40256C
S1132620215031F79150DB01A90FB11D9F5F119625
S1132630E0918802F091890281818770823009F4E7
S113264021E0222349F020E030E080918D028230A5
S113265081F421E030E00DC08FB7F894282F3327A0
S113266060E08091B907833008F461E02FBF262F22
S11326703327232B09F45CC0191B912F18C00DB408
S113268007FEFDCF8EB51EBC8C938D914827042E7A
S11326904295407F4025052E542F42954F700426C5
S11326A0469554274527440F440F440F4025915025
S11326B030F70DB407FEFDCF8EB51EBC9A01282756
S11326C0022E2295207F2025032E322F22952F7053
S11326D00226269532272327220F220F220F202598
S11326E00DB407FEFDCF8EB51EBC2827022E229501
S11326F0207F2025032E322F22952F700226269527
S113270032272327220F220F220F20250DB407FE84
S1132710FDCF8EB5E0918802F091890285A7289AB1
S113272015E01093AF0810924802232B31F015C224
S11327300DB407FEFDCF8EB5D9C2E0908802F090AB
S1132740890267010894C11CD11CF701818190E0C2
S1132750282F3327277030702230310509F491E097
S113276080918D02992321F1823009F025C1F7016E
S11327709381E091B908F091BA088381981709F020
S11327801BC12230310509F017C180916F008D7F84
S113279080936F0010921305BF0180E00E947B04B8
S11327A010928D021092210380E00E94E70404C17C
S11327B08823C9F4C7010E94F4048823A1F010936C
S11327C0A30382E08093A4031092A503F7018381FD
S11327D08093A60383EA93E00E940910882319F4E6
S11327E083E080938D020091840010918500C701DD
S11327F00E94F404882311F0045E1C4F1093DE033E
S11328000093DD0380918400909185009801281B3A
S1132810390B12161306A4F480912103882369F45A
S113282090E080911305882309F491E0992341F005
S1132830C9010E94D00E80E801C080688093210302
S1132840F601808527819927582F44273327422B67
S1132850532B80919202282F3327F901EE0FFF1F8B
S1132860E053F84F80819181709114058417950786
S113287069F4F901ED54F74F8081871709F467C0B3
S1132880872F8F5F8093140580831DC000E010E0C4
S113289080E090E0C0EDD7E0E3EBF8E0DF01682FE3
S11328A09C01888199818417950779F42093920279
S11328B0909114058C91891709F449C0892F8F5F71
S11328C0809314058C9300E829C08081972F981B6E
S11328D0091710F4092F122F6F5FC9010196119681
S11328E02296319685309105D1F66530B9F410936E
S11328F09202A12FBB27FD01EE0FFF1FE053F84FFB
S113290051834083809114058F5F80931405FD01EA
S1132910ED54F74F8083A952B74F1C929091140540
S1132920892F8F778F3779F40F3768F0E3EBF8E06E
S1132930292F207880818F6789132083319688E03E
S1132940E83BF807B9F780919202282F3327F60164
S11329509281A22FBB27FD01E952F74F808180FFAE
S113296007C0FD01E654F84F8081981729F102C091
S113297081608083A654B84F9C93DFB6F89480910D
S1132980B9078330B0F4E0911708E80FE33008F09A
S1132990E350FF27EE0FFF1FE358FD4F0081118125
S11329A0F182E0828F5F8093B90783E00E94A901DE
S11329B078018D2D99278FBFF0928902E0928802C9
S11329C0C3C0892F8150833008F09CC0815082306D
S11329D0E0F43091AF083130C1F420E08091130568
S11329E0882309F421E0222381F02F9883E0809347
S11329F06C033093130580918400909185006BE201
S1132A0073E00E94BD0482E068C0933009F042C0C4
S1132A108091AF08833009F097C00E944F04882347
S1132A20C9F128988FE88EBD0DB407FEFDCF8EB591
S1132A301EBC0DB407FEFDCF8EB5289A809181008F
S1132A4080648093810080E286BB80916F00806205
S1132A5080936F009091C302289888EC8EBD0DB4CA
S1132A6007FEFDCF8EB590669EBD0DB407FEFDCF6B
S1132A708EB5289A289882EC8EBD0DB407FEFDCF42
S1132A808EB586E08EBD0DB407FEFDCF8EB5289AB7
S1132A9084E023C0809148028150823000F5809107
S1132AA0AF088530E1F40E944F048823C1F02898D0
S1132AB082EC8EBD0DB407FEFDCF8EB583E08EBDD6
S1132AC00DB407FEFDCF8EB5289A80916F008F7DDF
S1132AD080936F001092C50783E08093AF089091B4
S1132AE04802913041F48091AF088330B1F52F9AB8
S1132AF09093AF0825C0923039F58091AF088330A8
S1132B0061F51EC0973001F50E944F048823E1F05F
S1132B109091C302289888EC8EBD0DB407FEFDCFBA
S1132B208EB590669EBD0DB407FEFDCF8EB5289A76
S1132B308091AF08853021F484E08093AF0804C00D
S1132B4088E08093480204C080914802883029F4C8
S1132B501092480281E00E94A901809148028823D2
S1132B6009F58091AF088530D1F48091C507882399
S1132B70B1F480918D02882391F4809121038823FC
S1132B8071F490E080911305882309F491E099236E
S1132B9031F00E94FE0F80914802882319F487E0E7
S1132BA00E94A90180911305823009F092C010920D
S1132BB01305F0906C03F2E0FF1609F466C023E0FD
S1132BC0F21609F46AC081E0F81609F082C0209177
S1132BD0DD033091DE038091840090918500409163
S1132BE02103403829F4109221030E94FE0F71C082
S1132BF08901081B190B47FF03C010161106ECF0DE
S1132C00C0911D03D0911E0380918D028823A9F4E5
S1132C10CE010E9409109927882351F48CA58E7F38
S1132C208CA7F0928D02D093BA08C093B90829C03A
S1132C309927F82E882329F102C065E0F62E209109
S1132C402103822F99278F77019759F420782260E6
S1132C502093210380E198E00E9433050E94D00E66
S1132C6038C027FF0AC0101611063CF480E8809390
S1132C702103C8010E94D00E02C0109221038F2D9F
S1132C8009C083E08093210324C010928D02109226
S1132C90210380E00E94E7041CC08091AF088230C9
S1132CA019F4F092AF0813C080914802863079F489
S1132CB010924802289881E88EBD0DB407FEFDCF1E
S1132CC08EB51EBC0DB407FEFDCF8EB5289A0E94AA
S1132CD08B168FB7F894282F33278091C202813046
S1132CE061F081E08093C2022FBF49CB289A85E02E
S1132CF08093AF081092480230CF1092C2022FBFC7
S1132D00DF91CF911F910F91FF90EF90DF90CF90C3
S1132D10BF90AF9008958FB7F894282F33278091F0
S1132D20C202882329F080688093C2022FBF0895CD
S1132D3081E08093C2022FBF0E94B5110895789458
S1132D401F920F920FB60F9211242F933F934F931C
S1132D505F936F937F938F939F93AF93BF93EF93FF
S1132D60FF93E6E8F0E080819181208131818FB783
S1132D70F89499273093600320935F0321E0209314
S1132D80C5078FBF0E948B16FF91EF91BF91AF9142
S1132D909F918F917F916F915F914F913F912F916F
S1132DA00F900FBE0F901F90189578941F920F925A
S1132DB00FB60F9211242F933F934F935F936F930A
S1132DC07F938F939F93AF93BF93EF93FF938091E0
S1132DD06F008D7F80936F0078949FB7F8948091F3
S1132DE01305813019F482E080931305892F992704
S1132DF08FBF0E948B16FF91EF91BF91AF919F916E
S1132E008F917F916F915F914F913F912F910F908F
S1132E100FBE0F901F9018952FB7F8943327809109
S1132E20670380930A0282E080931B022FBF809184
S1132E300A02882309F07EC0209A289A8091AF085C
S1132E40882309F075C08EEF91E0019701960197F0
S1132E50E1F716982F9886E090E001970196019784
S1132E60E1F7169A289883EC8EBD0DB407FEFDCFCA
S1132E708EB51EBC0DB407FEFDCF8EB5289A2898DA
S1132E8082EC8EBD0DB407FEFDCF8EB588E08EBDFD
S1132E900DB407FEFDCF8EB5289A8EEF91E0019711
S1132EA001960197E1F728988EEC8EBD0DB407FECC
S1132EB0FDCF8EB58DE48EBD0DB407FEFDCF8EB56E
S1132EC0289A289889EC8EBD0DB407FEFDCF8EB5E7
S1132ED087EC8EBD0DB407FEFDCF8EB5289A2898D9
S1132EE085EC8EBD0DB407FEFDCF8EB580E88EBD9A
S1132EF00DB407FEFDCF8EB5289A1092A0038BE087
S1132F008093C302289888EC8EBD0DB407FEFDCFD4
S1132F108EB58BE68EBD0DB407FEFDCF8EB5289A17
S1132F202F9A81E08093AF0880E00E94A30F089558
S1132F300E948B1608958FB7F894282F3327809119
S1132F40C20281508093C202803811F02FBF0895CD
S1132F5081E08093C2022FBF0E94B51108951F9390
S1132F60FC018FE3828780913C028F5F80933C0257
S1132F7083832FB7F89433278091C2028F5F8093A5
S1132F80C2022FBF80912003882311F015E00DC0E9
S1132F90F0934A05E093490581E080932003109261
S1132FA0160582E00E94A90110E00E949B17812F60
S1132FB099271F910895FF920F931F93CF93DF9347
S1132FC0F82E8B01EA01622F2D3118F086E090E093
S1132FD092C0FA0131968181298170E09927582F96
S1132FE044273327422B532BCA0187749C7C81547A
S1132FF0984809F471E0772349F4CA01807390700A
S1133000816498688983892F99278183635F6883A2
S11330102FB7F894332780910202909103022FBFB7
S11330208887892F992789872FB7F8943327809128
S113303004022FBF99278C831D82CE010E94CB03EB
S1133040FC01F0820E83812F99278F838FB7F89428
S1133050282F332780911A02882371F482E0809309
S11330601A02109207022FBFCE010E94AF179927B0
S1133070182F882399F00FC02FBFD093C602C09396
S1133080C5028FB7F894C82FDD272C2F80911A0220
S1133090882399F406C080E00E94550F812F992758
S11330A02AC081E080931A021092C40280E00E9438
S11330B0A901CFBF80E090E01EC08091C7028F3F7E
S11330C089F4E0910602EE2369F010C01092050223
S11330D004C0FF27E953FD4F10821092060280E0DE
S11330E090E002C085E090E02FBF05C0809105020A
S11330F08F3F79F7EBCFDF91CF911F910F91FF9025
S11331000895EF92FF920F931F93CF93DF938091D3
S113311012029927019664E070E00E942F2E682F16
S11331208093120200E0462F5527FA01EE0FFF1F8D
S1133130E152FC4FC081D181209799F0E62FE695AA
S1133140E695E695FF27E75EF74F808199279A0178
S11331502770307002C0959587952A95E2F780FF15
S11331600DC0CA01019664E070E00E942F2E682F02
S11331700F5F0430C1F6009312021FC06093120265
S11331806430D8F4E88083EFE80EFF240F81112720
S1133190102F00278E819927082B192BCE010E940E
S11331A0CB03FC012E2DAE01B80180810E94DB17F8
S11331B0882319F081E10E94A901DF91CF911F9129
S11331C00F91FF90EF900895EF92FF920F931F934A
S11331D0CF93DF93E82E8B01F42E83E08E1518F441
S11331E081E090E03BC0CE2DDD27CC0FDD1FC15226
S11331F0DC4F88819981892B19F085E090E02EC0FD
S113320079836883EDE0FE0EFB01F082F3EFFF0E9D
S113321080911202843018F480E090E01FC0CB014A
S11332200E94CB03FC018081F80167817727762F08
S1133230662726813327622B732BE09212022F2DEF
S1133240A8010E94DB179927282F882329F084E0FE
S11332508093120219821882822F9927DF91CF91CD
S11332601F910F91FF90EF900895CF92DF92EF920C
S1133270FF920F931F93CF93DF936C01809183028E
S1133280882309F484C080911F03882309F07FC038
S113329066E08BE492E00E94B503EC01892B09F40B
S11332A076C081E080931F03C9828D2D992788837E
S11332B08AE2C816D10429F020E030E040E050E072
S11332C008C020912E0230912F024091300250917B
S11332D03102FE0132962383BB27A52F942F832F1F
S11332E08283CA01AA27BB278183252F332744273A
S11332F055272A83E280FF2400271127102F0F2D42
S1133300FE2CEE24522F4427332722279927AA275D
S1133310BB27DC0199278827282B392B4A2B5B2BC9
S113332083819927AA27BB27282B392B4A2B5B2B70
S1133330E22AF32A042B152BE114F10401051105EB
S113334011F410E011C08AE2C816D10421F414E08B
S113335069E675E003C010E060E070E0412F552796
S1133360CE0106960E949B2E8FEF8093510280938C
S113337052028BE492E00E94CB03FC0180E680833E
S11333801A5F412F6BE472E080E00E94E418DF9141
S1133390CF911F910F91FF90EF90DF90CF90089500
S11333A0EF920F931F9380913202826080933202D6
S11333B08FB7F894992720910202309103028FBFAE
S11333C03093680520936705809139028823E9F4D6
S11333D081E08093390280E890E0A0E0B0E080933F
S11333E0140290931502A0931602B09317020E9440
S11333F0DE0E0E948C03AB01BC01EE2400E010E25F
S113340020E030E082E00E946D0380E090E01F91B4
S11334100F91EF9008950E94DF022FB7F89433279D
S113342070934C0560934B052FBF0895AF92BF92E4
S1133430CF92DF92EF92FF920F931F93282F33279F
S11334408BE090E0289FF001299FF00D389FF00D4C
S11334501124E35CFD4F82819381A481B58100979F
S1133460A105B10569F080819181880F991F91832D
S113347080838150944020F080E094E091838083A5
S11334808BE090E0289F5001299FB00C389FB00C2E
S113349011248DE392E0A80EB91EF501868197816F
S11334A0A085B18582839383A483B583C080D180B2
S11334B0EE24FF2469E0CC0CDD1CEE1CFF1C6A9595
S11334C0D1F70E94DF02DC01CB01F50100811181FB
S11334D0B801762F6627770F0E941B2EAA27BB27D9
S11334E08C0D9D1DAE1DBF1D222733274AE0000F02
S11334F0111F221F331F4A95D1F7081B190B2A0BE2
S11335003B0B0683178320873187228133814481D3
S11335105581280F391F4A1F5B1F2283338344833D
S113352055831F910F91FF90EF90DF90CF90BF9044
S1133530AF900895CF93DF93EC010E947009282F78
S113354080918C022817D1F0382F315030938C029F
S113355013C0822F9927E3E0880F991FEA95E1F7BA
S1133560DC01A853BD4FFC01E053FD4F88E00190FE
S11335700D928150E1F72F5F231758F38091C6070E
S11335809091C7078C179D07A1F48FEF9FEF90933D
S1133590C7078093C6071092C9071092C8071092F4
S11335A0CA071092CB0781E080933B0285E10E9419
S11335B0A901DF91CF910895AF92BF92CF92DF928C
S11335C0EF92FF920F931F93CF93DF9380917C022E
S11335D0882309F0DDC0CC24DD240FEF1FEFAFEF0B
S11335E0AA2EBA2EEE24FF243EC0C22FDD27F3E01C
S11335F0CC0FDD1FFA95E1F7C853DD4F2A813B81DB
S11336008FEF2F3F380761F180916705909168052E
S11336102817390729F1888199810E94AC02FC019D
S11336206C817D81AC01460F571F288139818091BF
S1133630C6079091C707AF812817390741F47093E3
S1133640C9076093C807A093CB075A0109C0AA23EE
S113365039F4F29728F44017510710F46E018A01E7
S11336600894E11CF11C2E2D80918C02E81608F4BC
S1133670BCCFEFEF0F3F1E0709F479C0FFEFAF1681
S1133680FFEFBF0691F08091CB07882341F0809132
S1133690C8079091C9070A960817190730F0C8019E
S11336A00F968A159B0508F062C0809113089091CB
S11336B01408A0911508B09116080196A11DB11D1A
S11336C08093130890931408A0931508B0931608D8
S11336D08091C6079091C7070E9494028F3F81F0A2
S11336E0282F33278BE090E0289FF001299FF00DCD
S11336F0389FF00D1124E051FC4F8581877F85832D
S1133700F601808191810E94C502F6018081918138
S11337100E9494028F3F41F0EBE08E9FF001112450
S1133720E051FC4F12861186F601808191819093BD
S1133730C7078093C607848195819093C9078093B6
S1133740C80787818093CB07C501801B910B4597E0
S113375070F080E890E0A0E0B0E0809314029093D1
S11337601502A0931602B09317020E94DE0E8091F8
S11337703B02882359F4FFEFAF16FFEFBF0631F485
S11337800F5F1F4F19F084E10E94A90110923B02C0
S1133790DF91CF911F910F91FF90EF90DF90CF9029
S11337A0BF90AF90089568E00E94B503FC01848146
S11337B09927982F882725813327822B932B0895C7
S11337C068E00E94B503FC0186819927089568E0AA
S11337D00E94B503FC0187819927089568E00E943F
S11337E0B503FC0181819927089568E00E94B5031F
S11337F0FC0186819927089568E00E94B503FC01C5
S113380084819927982F882725813327822B932B0E
S11338100895DF92EF92FF920F931F93CF93DF935C
S11338208C01D0907B02F090D203EE2432C068E089
S1133830C8010E94B503FC014F2D43705527248114
S11338403327322F222785819927282B392BEA0108
S1133850CC0FDD1FCC0FDD1FC40FD51FC355DD4FAB
S1133860888199812817390791F4C8010E94F51BB2
S11338709A81981761F4C8010E94EE1B9C819817E5
S113388031F4C8010E94E71B9B81981721F0E3944F
S1133890F394ED1461F68E2D9927DF91CF911F914A
S11338A00F91FF90EF90DF9008958F929F92AF92C7
S11338B0BF92DF92EF92FF920F931F93CF93DF9308
S11338C04C01442309F484C0FC01A080B1808091A0
S11338D07B02843009F046C0C5010E94091C209176
S11338E07B02622F0E940F2E492F9217D8F599233D
S11338F059F48091D2039927019664E070E00E9404
S11339002F2E8093D20329C08091D203840F912D4E
S1133910911D9C0123703070E901CC0FDD1FCC0F89
S1133920DD1FC20FD31F019664E070E00E942F2EAA
S1133930FC01EE0FFF1FEE0FFF1FE80FF91FC35529
S1133940DD4FE355FD4F85E0019009928150E1F789
S11339504F5F80917B024817B8F280917B028150BF
S113396080937B02D0907B020091D2030D0D112D28
S1133970111D0370107068E0C5010E94B503FC01BD
S11339807801EE0CFF1CEE0CFF1CE00EF11E8DEA1C
S113399092E0E80EF91E84819927982F88272581C3
S11339A03327822B932BF70191838083C5010E94D7
S11339B0F51BF7018283C5010E94EE1BF701848386
S11339C0C5010E94E71BF7018383D394D0927B0245
S11339D0F401808191810E949C05C4010E94BB0571
S11339E0DF91CF911F910F91FF90EF90DF90BF90E7
S11339F0AF909F908F900895AF92BF92CF92DF9235
S1133A00EF92FF920F931F930E948C037B018C0112
S1133A1060915F04709160048091610490916204EC
S1133A20A0903F02B0904002C0904102D090420268
S1133A30A114B104C104D10409F44EC0EFB7F89441
S1133A402091150520FD36C0A8019701261B370BD0
S1133A50480B590B2A153B054C055D05C8F4A21A01
S1133A60B30AC40AD50A80913F0290914002A09102
S1133A704102B0914202821B930BA40BB50B8093BD
S1133A803F0290934002A0934102B093420215C0BA
S1133A9081E090E0A0E0B0E080933F029093400288
S1133AA0A0934102B093420291E0A92EB12CC12C03
S1133AB0D12C03C02E7F209315058E2F99278FBFFD
S1133AC00E948C03AB01BC0181E0E82E96018501C4
S1133AD080E00E946D0305C0809167048D7F809310
S1133AE067041F910F91FF90EF90DF90CF90BF90EC
S1133AF0AF900895FF920F931F93CF93DF93F82E07
S1133B00282F33278BE090E0289FE001299FD00DD8
S1133B10389FD00D1124C35CDD4F81E090E0998380
S1133B2088831A868A819B81AC81BD810097A10517
S1133B30B105A1F00FB7F8941127C9010E946006DE
S1133B400FBF1A821B821C821D821E821F8218864E
S1133B5019868F2D0E94161A0E94FC1CDF91CF91AA
S1133B601F910F91FF9008958A9719F480E00E94A5
S1133B707A1D08951F93CF93DF938FB7F8949927F5
S1133B8020912902C0912A02D0912B0230912C025B
S1133B9010918B028FBF222309F06FC0932F9C508A
S1133BA08B85863309F069C0943009F066C02FB75D
S1133BB0F894332782B191E0892782B92FBF80918D
S1133BC07A02882309F459C08C859D85AE85BF850A
S1133BD08093690590936A05A0936B05B0936C0577
S1133BE080912E0290912F02A0913002B091310267
S1133BF0CD01AA27BB270196A11DB11D80932E02DA
S1133C0090932F02A0933002B09331020097A10544
S1133C10B10561F481E090E0A0E0B0E080932E0271
S1133C2090932F02A0933002B093310220912E0280
S1133C3030912F024091300250913102A901332773
S1133C4022278091000290910102AA27BB27280F06
S1133C50391F4A1F5B1F20932E0230932F0240937B
S1133C603002509331028AE290E00E94351980E0DC
S1133C700E947A1D82E10E94A9018FB7F894E12F76
S1133C80FF27EE0FFF1FE45FFD4FD183C083209118
S1133C901D02112311F02B7F01C02D7F20931D02E3
S1133CA01092280299278FBFDF91CF911F91089519
S1133CB0AF92BF92CF92DF92EF92FF920F931F9336
S1133CC0CF93DF935B016C01C0E0D0E0EFE5F4E05B
S1133CD0608561FFD4C02081318142815381E480B9
S1133CE0F58006811781D601C501821B930BA40BB5
S1133CF0B50B8E159F05A007B10708F4C0C060FF7F
S1133D0003C06D7F608708C02E0D3F1D401F511FEB
S1133D102083318342835383C13009F43EC0C130D0
S1133D2038F0C23009F498C0C33009F0AEC09EC068
S1133D3020916304309164044091650450916604B9
S1133D4080913F0290914002A0914102B0914202C1
S1133D500097A105B105F1F082179307A407B507F1
S1133D60C9F480914702882361F42FB7F89433276C
S1133D708091EF0381608093EF032FBF83E10E9462
S1133D80A90180E090E00E94600680E00E94161A7B
S1133D90109247020E94FC1C78C08091380288234C
S1133DA009F473C080913902882309F46EC08091AC
S1133DB0BF07882349F585E10E94A90186E10E9495
S1133DC0A901A0901402B0901502C0901602D090E0
S1133DD017028091190390911A03A0911B03B091CB
S1133DE01C03A81AB90ACA0ADB0A81E08093BF0738
S1133DF00E948C03AB01BC01F1E0EF2E960185011A
S1133E0081E00E946D0341C08091140290911502DB
S1133E10A0911602B0911702880F991FAA1FBB1F09
S1133E208093140290931502A0931602B093170284
S1133E308150904DA740B04060F080E090EDA7E045
S1133E40B0E08093140290931502A0931602B093ED
S1133E5017020E94DE0E19C0809138028823A9F04F
S1133E6080913902882389F085E106C0809132026D
S1133E708F7E8093320284E10E94A90106C02196BC
S1133E803996C430D10509F023CF86E00E94A901F8
S1133E90DF91CF911F910F91FF90EF90DF90CF9022
S1133EA0BF90AF900895EF92FF920F931F9380916C
S1133EB0C102882361F520910A0830910B084091D2
S1133EC00C0850910D08EFB7F894FF276091840215
S1133ED0709185028091860290918702E0901B0880
S1133EE0F0901C0800911D0810911E086E0D7F1D96
S1133EF0801F911FEFBF20930A0830930B08409353
S1133F000C0850930D081092C1020E9452080E949E
S1133F108C030E94581E1F910F91FF90EF900895FB
S1133F20AF92BF92CF92DF92EF92FF920F931F93C3
S1133F300E948C035B016C018FB7F894992710924F
S1133F4056038FBFAFEFEA2EAFEFFA2EAFEF0A2F73
S1133F50AFE71A2F60E0EFE5F4E0808581FF1CC035
S1133F6080819181A281B381A6019501281B390B1F
S1133F704A0B5B0BDA01C9012481358146815781E3
S1133F80281B390B4A0B5B0B2E153F0540075107C5
S1133F901CF479018A0161E0399634E0E338F307CF
S1133FA0E1F66623D9F01E141F04100611062CF046
S1133FB0C601B5010E94581E11C0E0920A08F09291
S1133FC00B0800930C0810930D0881E08093C10244
S1133FD0A8019701C601B5010E9452081F910F91D3
S1133FE0FF90EF90DF90CF90BF90AF900895AF9285
S1133FF0BF92CF92DF92EF920F931F935B016C01FC
S11340000E948C03AB01BC01B1E0EB2E960185014B
S113401083E00E946D031F910F91EF90DF90CF908A
S1134020BF90AF900895CF92DF92EF92FF920F93DB
S11340301F936C017B010E94DF02DC01CB01B601FE
S11340400E941B2EE80EF91E00271127C801B70194
S11340500E94F71F1F910F91FF90EF90DF90CF9078
S113406008950F931F93CF93DF93EC01E0913302F4
S1134070FF27EE0FFF1FEF55F84F008111816623D4
S113408029F06CE170E08CE190E032C08091320262
S113409083FF40C0BE0180E00E9427058823D1F53C
S11340A08F819927982F88272E813327822B932B52
S11340B00E949402982F8F3F71F08BE0989FF0013B
S11340C01124E051FC4F82858F5F8287853018F080
S11340D0CF010E94490685E10E94A901F80183816C
S11340E081508383882339F067E070E087E090E0B3
S11340F00E9413203FC00E948105809132028F7E6E
S11341008093320267E070E087E090E00E94132021
S113411040E02CC00E948105809132028F7E809302
S1134120320267E070E087E090E00E9413208F8104
S11341309927982F88272E813327822B932B0E942F
S11341409402982F8F3F89F08BE0989FF0011124FF
S1134150E051FC4F81858F5F818782858F5F8287E5
S1134160853018F0CF010E94490641E0BE01C80124
S11341700E94551CDF91CF911F910F910895282F14
S1134180CB01213039F0213028F0223031F02330B6
S113419089F407C010921F030895642F0E943120F0
S11341A008956352734031F480913A02882311F0E8
S11341B010923A020895EF92FF920F931F93E82E04
S11341C08B01F42EE82FFF27EE0FFF1FE152FC4F67
S11341D0118210820E9481184F2DB8018E2D0E94E9
S11341E0BF201F910F91FF90EF900895FF920F93BE
S11341F01F93CF93DF9380911908882301F161E025
S1134200F62E00E010E0CFEDD3E090911908892F4D
S11342108F2169F068817981198218828F2D8095A8
S113422098239093190843E0802F0E94BF200F5FCA
S11342301F4F22960830110511F0FF0CE6CFDF91D5
S1134240CF911F910F91FF9008950F931F93CF93D8
S1134250DF93062F109112021430A0F4E12FFF27F0
S1134260EE0FFF1FE152FC4FC081D181C817D9075F
S113427049F4118210820E948118402FBE01812FBF
S11342800E94BF20DF91CF911F910F9108958F92CB
S11342909F92BF92CF92DF92EF92FF920F931F9360
S11342A0CF93DF93CDB7DEB722970FB6F894DEBF76
S11342B00FBECDBF8091320284FDECC090E08091AE
S11342C03502882309F491E0992309F0E3C0809131
S11342D07C02882359F420E08091C6079091C70797
S11342E08F5F9F4F09F021E0222331F0CE01019628
S11342F00E945605882339F060E177E280E090E07F
S11343000E94F71FC7C0E0913302FF27EE0FFF1F83
S1134310EF55F84FC080D180D601ED91FC91B0806B
S11343208090C6079090C707CF010E94091C20E027
S113433090917B02891708F421E0222359F00E940E
S11343408105F601808191810E949C05C6010E942D
S1134350BB059DC080917C02D601ED90FC90882322
S113436081F168E0C7010E94B503FC01B780A09108
S11343706803B0916903F7018FE201900D928150B7
S1134380E1F70091680310916903C8010E94E105F7
S1134390F82EFBE0BF1651F4682FC8010E94DA051D
S11343A04F2DBC01C8010E94E6058C0110936903DE
S11343B00093680360E0D6018D919C910E943120A6
S11343C069C009811A8168E0C7010E94B503FC0134
S11343D00383012F1127028368E0F6018081918114
S11343E00E94B503FC0180818F738083D6014D91B7
S11343F05C91DA011196FD0121813327322F2227A6
S1134400FA01818199278062282B392B2183232F5C
S11344103327FD0121838091320288608093320228
S113442080FF0FC068E0D6018D919C910E94B50376
S1134430FC01808180648083809132028E7F80932E
S11344403202F60100811181F8018682892D9927B3
S11344508783C8010E94CB03FC0181E78083F3EFCB
S1134460BF0E4B2D5527B80182E00E94E41899270E
S1134470882331F4809132028061809332020AC031
S1134480823041F4D601ED91FC9189E2808384E18C
S11344900E94A90122960FB6F894DEBF0FBECDBFCD
S11344A0DF91CF911F910F91FF90EF90DF90CF900C
S11344B0BF909F908F9008952F923F924F925F925A
S11344C06F927F928F929F92AF92BF92CF92DF9220
S11344D0EF92FF920F931F93CF93DF93CDB7DEB785
S11344E022970FB6F894DEBF0FBECDBFE82FFF278B
S11344F0E931F10508F012C7EA59FF4FEE0FFF1F2B
S11345000590F491E02D09948FB7F8942091EF036E
S113451020FDE2C520E0E4C580916103882309F40D
S1134520FDC640E051E0B4C62FB7F894332780911C
S1134530C4028093070282E080931A022FBF809105
S11345400702882309F0EAC68091C5029091C60249
S11345500E94AF17082F1127002309F4DFC60E9419
S11345609E0F602F8091C5029091C602D4C08091A5
S1134570200310922003853009F06DC041E0F42E31
S1134580F092380280913902882311F00E94680366
S11345908091320284608093320290E080913502EF
S11345A0882309F491E0992311F40E94DA0180919F
S11345B03F0290914002A0914102B09142020097C3
S11345C0A105B10531F510923F02109240021092FC
S11345D0410210924202109243021092440210923D
S11345E04502109246021092470280E00E94161A79
S11345F00FB7F894112780E090E00E9460060FBF87
S11346000E94FC1C8AE290E00E94B41DF0927A029F
S113461004C08AE290E00E94B41D11E0109383026A
S11346200E94D0192091C6073091C70710937C02CD
S113463080916705909168059093C7078093C6079A
S11346401092C9071092C8072F5F3F4F09F066C642
S11346500E94DA0163C6863041F4109238028091D8
S113466032028B7F8093320259C6873009F456C6D2
S11346708093200353C62FB7F89433278091C20246
S11346808F5F8093C2022FBF40912003413081F598
S1134690809116058F5F80931605863048F520912A
S11346A0490530914A05809121038823C1F490E0A3
S11346B080911305882309F491E0992381F03093C4
S11346C01E0320931D03409321038BED91E10E946F
S11346D033050E94D00E10921F0883E004C085E0C9
S11346E080931F0882E0809320030E949B1716C6C4
S11346F0109220030E949B17F0901F080091490517
S113470010914A05F80182858F3309F007C60E948B
S11347109E0F6F2DC8010E94252100C68FB7F89403
S1134720282F33278091B907882309F4F6C5E0912F
S11347301708FF27EE0FFF1FE358FD4F60807180BD
S11347402FBFF3018285178106818F3309F0FAC3E5
S1134750C3010E94CB034C01FC017081F301619100
S11347605F01812F9927582F4427802F9927482BA1
S1134770592B8FB7F89499272091020230910302A4
S11347808FBF4217530721F04F5F5F4F09F0AEC54B
S11347901CE0212E312C260C371CB3EF5B2E560E59
S11347A0703709F4C0C0713730F4703641F0713697
S11347B009F0E2C390C0713709F0DEC39AC2F30175
S11347C0848525859927D82ECC243327C22AD32A39
S11347D02685678590897189FAE2CF16D10421F084
S11347E088249924540108C080902E0290902F02AE
S11347F0A0903002B090310280918302882309F4A2
S1134800BBC3892F9927AA27BB27EE24F82E092F8B
S11348101A2F332744275527522F4427332722277B
S1134820862F9927AA27BB27DC0199278827282BBD
S1134830392B4A2B5B2B872F9927AA27BB27282B99
S1134840392B4A2B5B2BE22AF32A042B152B8114D8
S11348509104A104B10461F4E114F104010511050A
S113486069F12AE2C216D10401F58AEF580E16C086
S1134870E114F10401051105C1F0D801C70188193B
S11348809909AA09BB09181619061A061B068CF4FD
S11348909AE2C916D10449F4EAEF5E0EA801970121
S11348A0652DC10106960E946A0EC6010E94B41DC0
S11348B063C3E814F9040A051B0559F4FAE2CF1698
S11348C0D10409F059C3809147028F5F8093470256
S11348D053C3C60125C080918302882309F44CC3C5
S11348E0F301848525859927982F88273327822BE0
S11348F0932B8A9709F040C380912E0290912F0246
S1134900A0913002B09131020097A105B10509F4DC
S113491033C3F10180819927982F8827822B932B09
S11349200E94351929C3F301878126819927982F7D
S113493088273327822B932B8F5F9F4F09F0ECC07E
S1134940C3010E94C0037C01F3018185208599275E
S1134950D82ECC243327C22AD32AC6010E9494021B
S11349608F3F21F0F701618177271CC00E94350930
S1134970182F8F3FD1F0B6010E946C08F7014181D6
S1134980212F33278BE090E0289FF001299FF00D21
S1134990389FF00D1124E051FC4F4283F7016181EF
S11349A07727812F0E948C08B7C081E40E944709B1
S11349B0182F8F3FA1F0282F33278BE090E0289FFA
S11349C0F001299FF00D389FF00D1124E051FC4FA8
S11349D0808191810E949A1AB601812F9BC090E038
S11349E0F30185A5893C08F091E0992309F494C06A
S11349F0C3010E943B0F982FF4018081803709F096
S1134A008BC0953009F0B8C265E0C3010E94C403AD
S1134A108C01FC01818122819927982F88273327D3
S1134A20822B932B8F5F9F4F09F47CC0F801838105
S1134A3024819927582F44273327422B532B411580
S1134A40510521F180918C02E82EFF246091C60764
S1134A507091C707A0E020E030E0E8ECF2E00EC07F
S1134A60808191818617970731F084819581481759
S1134A70590708F4A1E02F5F3F4F38962E153F05E4
S1134A8014F4AA2369F3AA2309F451C010E0E5EF52
S1134A90F3E08081992780FF04C083FD02C081FF79
S1134AA01F5F3B9624E0E336F20799F71123A1F147
S1134AB00E946803612F77270E941B2E00E010E0FC
S1134AC0E5EFF3E09081992349F0292F332723FD63
S1134AD005C021FD03C081508F3F39F00F5F1F4F88
S1134AE03B960A301105C1F0EDCF202F0F3FA1F006
S1134AF033278BE090E0289FF001299FF00D389F29
S1134B00F00D1124E051FC4F808191810E949A1A8A
S1134B10B601802F0E946C08C3010E943B0F8530B0
S1134B2009F02AC265E0C3010E94C4038C01F501A7
S1134B30F084B78060E4C3010E949009382E6801B4
S1134B400894C11CD11CF801818126010894411CE0
S1134B50511CF60121819927982F88273327822B0E
S1134B60932B8F5F9F4F09F4BCC08F2D9927F82E8C
S1134B70EE248B2D9927E82AF92A63E0A62EB12C7E
S1134B80A00EB11EF801838154E0852E912C800E75
S1134B90911E24819927982F88273327822B932BC2
S1134BA0892B49F5C7010E9494028F3F09F50E94A1
S1134BB035098F3F11F0B70119C08AE00E944709F7
S1134BC0182F8F3FA9F0282F33278BE090E0289FE0
S1134BD0F001299FF00D389FF00D1124E051FC4F96
S1134BE0808191810E949A1AB701812F0E946C08DA
S1134BF0C7010E94C502F501B080F401A080F6014E
S1134C00D080F201C080C7010E94AC028C01C701B0
S1134C100E947009482F8A30F1F18B2D9927782F43
S1134C2066278A2D9927682B792B8D2D9927382F64
S1134C3022278C2D9927282B392B80918C024817F9
S1134C40C9F40233110538F5E42FFF2703E0EE0F12
S1134C50FF1F0A95E1F7E853FD4FF182E0823383A9
S1134C6022837583648381E0868317824F5F409338
S1134C708C0211C0E42FFF2713E0EE0FFF1F1A95DB
S1134C80E1F7E853FD4FF182E08233832283758399
S1134C90648381E0868380911302882311F5C70120
S1134CA00E947009E82F80918C02E81748F4FF27CE
S1134CB0B3E0EE0FFF1FBA95E1F7E853FD4F3782DB
S1134CC08091CB07882311F0332049F08091C607E7
S1134CD09091C7078E159F0521F4332011F00E948F
S1134CE0D50160E8C3010E949009882309F444C1F6
S1134CF026C1C3010E94E71BC82EC3010E94EE1BFC
S1134D00182F1F5FC3010E94BC035C01FC011183C7
S1134D10FCE1F51508F430C1C3010E94091C20E030
S1134D2090917B02891708F421E0222309F024C121
S1134D3010913502812F9927D82E882309F43FC07A
S1134D40C3010E94FC1B4C0100913302010F01506E
S1134D50DA940C3010F4E02F02C0E02FEC50FF275F
S1134D60EE0FFF1FEF55F84F0190F081E02DE0802A
S1134D70F180C7010E94FC1B8815990509F0BAC28D
S1134D80C7010E94F51B182FC3010E94F51B1817B9
S1134D9009F0B0C2C7010E94EE1B182FC3010E9484
S1134DA0EE1B181709F0A6C2C7010E94E71B182FB3
S1134DB0C3010E94E71B181709F09CC2DDC0809153
S1134DC07C02882399F0C3010E94E105182F2BE08F
S1134DD0C21609F0D1C0682FC3010E94DA05412F21
S1134DE0BC01C3010E94E6053C01C6C080E02091DD
S1134DF0A203222309F481E0882309F0BDC0909125
S1134E00A103992309F481E0882309F0B5C099230B
S1134E1009F4B2C080911A08E82FFF27EE0FFF1F94
S1134E20E554F74F008111811182108291509093C3
S1134E30A1038F5F80931A088C3011F410921A0822
S1134E400115110509F498C0222309F495C0809135
S1134E505C03E82FFF27EE0FFF1FE15BFA4FE080B2
S1134E60F1801182108221502093A2038F5F8093DE
S1134E705C038C3011F410925C03E114F10409F426
S1134E807BC08FE2F70111928A95E9F788E290E0FE
S1134E90680E791E87E0F30111928A95E9F788ED8F
S1134EA09FEF680E791EF801718260828FEF828312
S1134EB08EE18383909135029C3008F020C280916A
S1134EC03402E82FFF27EE0FFF1FEF55F84F118331
S1134ED000838F5F809334028C3011F4109234027B
S1134EE09F5F90933502CE0101960E945605882358
S1134EF0B1F4F501828123819927982F88273327DC
S1134F00822B932B29813A812817390740F00E947C
S1134F102C0F6CE170E08CE190E00E9413208091F2
S1134F20820481FD02C00E94DA01370125C0C30159
S1134F300E94BC03FC01808180788038E9F40E94DF
S1134F402C0F1AC0812F9927582F4427802F992777
S1134F50482B592B8FB7F89499272091020230914E
S1134F6003028FBF4217530719F04F5F5F4F21F4BD
S1134F708FB7F89499278FBF9FB7F894809117083B
S1134F80E82FFF27EE0FFF1FE358FD4F7182608269
S1134F908F5F80931708833010F010921708809168
S1134FA0B90781508093B907892F99278FBFB6CB52
S1134FB00E940B1AB3C10E94531FB0C10E94901FDC
S1134FC0ADC10E94F90FAAC18FB7F8949927109226
S1134FD0E2041092E1041092AE081092AD0810920F
S1134FE04A02109249021092DC031092DB032AC099
S1134FF00E940C1793C10E94E00690C18091C100E9
S11350008F7B8093C1008091C1008F778093C10012
S113501010921705109254038091C1008860809308
S1135020C1008091C10080618093C1008091C10062
S113503080688093C1008FB7F8949927109248052F
S1135040109222038FBF6AC18DE00E94A90166C13C
S11350508091C100877F8093C1008091C1008F7EC1
S11350608093C1005BC110922202109221028FB77B
S1135070F8949927409125028FBF809126028111CF
S113508043E020911F02309120028091270288235F
S113509009F044C180911802882309F03FC160914E
S11350A00E0870910F086217730709F037C11BC10E
S11350B00E94BA1D33C10E94F62030C180911202B1
S11350C0E82FFF27EE0FFF1FE152FC4F6081718133
S11350D041E00E94DB2022C12E7F2093EF0321E0D8
S11350E099278FBF222309F419C18AE290E00E9414
S11350F035190E94D00112C10E9447210FC10E949C
S1135100DC1A0CC180913A02882309F007C1E091AE
S11351106303F091640310828091C6079091C707DE
S1135120E0916303F09164038283892F992781833B
S113513080917C02882329F08091C8079091C90747
S113514020C08091C6079091C7070091C8071091AD
S1135150C9072FEF8F3F920781F4E0916303F09129
S113516064030483812F99278383E0916303F0917F
S113517064038081806880830CC00E94AC02800F2D
S1135180911FE0916303F09164038483892F99272D
S1135190838383E293E00E94C0036C0168E083E2AE
S11351A093E00E94C403F5E0AF2EB12CA80EB91E03
S11351B0FF2440E000E010E0EBE08E2E912C73E041
S11351C0E72E8091370299270196800F911F6AE09C
S11351D070E00E942F2E9C019927889DD001899D03
S11351E0B00D989DB00D1124A051BC4FFD018581D7
S11351F0992780FF15C081FF13C08D919C91119751
S1135200FE9CA00111244A0D5B1DFA018183892FA4
S113521099278083FD018681FA018283F394422FCA
S11352200930110529F00F5F1F4FF6E0FF1548F60E
S113523040933702809136028F5F8093360281500B
S1135240F60181838F2D8F7080838FEF80932903E4
S113525080932A0383E293E00E94CB03FC0180E75E
S1135260808383E0F89EC0011124895F482F55276D
S113527063E273E083E00E94E4189927882309F429
S113528048C0843009F04AC01092380247C0550F14
S113529090916103852F8923B9F0E42FFF27EE0F46
S11352A0FF1FE25FF74F2081318111821082852F29
S11352B08095982390936103442331F42B5D374008
S11352C029F51092E30422C04F5F483000F326C052
S11352D080911802E82FFF27EE0FFF1FE25FF74FC0
S11352E06081718141E00E944E0218C0713709F05B
S11352F043CE1DCE0150DD2009F461CD29CDC70177
S11353000E949C05C8010E94BB0536CE550F41E0A2
S1135310BFCF81E080933A0201C02FBF22960FB61F
S1135320F894DEBF0FBECDBFDF91CF911F910F91D7
S1135330FF90EF90DF90CF90BF90AF909F908F90B1
S11353407F906F905F904F903F902F900895809141
S113535010088F3FB1F0282F3327F901ED56FD4F88
S11353608081809310088F3F11F48093B8088FEFE9
S113537080832F3F31F0822F0E945C2281E090E0F5
S1135380089580E090E00895FF920F931F93FFB675
S1135390F89414BE88E10FB6F894809360001092DC
S11353A060000FBE49E150E06FEF70E083E992E0E6
S11353B00E94A42E8FEF809310088093B80856980B
S11353C05E9854985C9880916F008F7D80936F00F5
S11353D0209A289A279A2F980E9A169A81E793E092
S11353E0909389028093880210925B038AE58093EC
S11353F0180381E08093810080E28093B60083E00B
S11354008093B10080918400909185004AE72091B7
S11354108400309185002817390708F4415044234B
S113542011F0C901F4CF9091B2008091B2008917B4
S1135430E1F320918400309185009091B200809135
S1135440B2008917E1F38091840090918500821B5A
S1135450930B4096F5E096958795FA95E1F790932E
S11354601208809311081092B1008091B1008093CA
S11354708100809181008093B6001092B200109256
S11354808500109284008FEF87BB87B386BB809121
S1135490B6008571E1F70A9A099A089A129A119A44
S11354A0109A18B88FEF87B90C9814981092950039
S11354B010929400809171008160809371008091BA
S11354C09100887F826080939100109285001092F1
S11354D0840080916F00816080936F0080918100CF
S11354E0887F8260809381000E94A7298823E1F746
S11354F01092D20310927B02EBEBF8E088E195E086
S113550081939193049628E0E33DF207C9F78CE078
S11355108093A10310921A08EFE4F5E08DE695E07C
S1135520819391938F9625E0E736F207C9F78CE0D3
S11355308093A20310925C031092380210923902F5
S1135540109213081092140810921508109216085D
S113555010927C028FEF9FEF9093C7078093C6074A
S11355601092C9071092C8071092CA071092CB076D
S113557010928C026AE183E293E00E94C403909348
S113558064038093630384EE94E0909369038093AF
S1135590680310928A02E5EFF3E010823B9684E000
S11355A0E336F807D1F780E094E090933E028093CD
S11355B03D021092470210923F0210924002109254
S11355C0410210924202109243021092440210923D
S11355D04502109246021092EF031092150512E054
S11355E006E0609111087091120888279927ECE071
S11355F0660F771F881F991FEA95D1F720E031EED7
S113560040E050E00E94422E215030402093C400DC
S1135610832F99278093C5001093C0000093C20084
S11356201092C1002093CC008093CD001093C80049
S11356300093CA001092C90084E490E09093CD07CF
S11356408093CC0710926D0310926F038AE08093CD
S11356504805109262031092660310921808109283
S1135660D4081092D3081092B20810925E041092DB
S1135670C1071092C00784E08093220310924E0564
S11356801092DA07109255031092EC031092EB0378
S11356901092D4031092D3038FEF8093650380E0BC
S11356A00E940404182F8091B60080628093B60093
S11356B08091B60081FDFCCF82E08093B0008091A0
S11356C0B60080FDFCCF83E08093B1008091B600EA
S11356D083FDFCCF86EE8093B300809170008260DE
S11356E0809370000E94C80780910002909101028B
S11356F00196AA27BB278093570390935803A0933E
S11357005903B0935A0380E298E090937E02809309
S11357107D028F969093800280937F028EE798E0BB
S113572090938202809381028FEF9FEF9093D10731
S11357308093D0079093D3078093D2079093D50793
S11357408093D4079093D7078093D6079093D90773
S11357508093D807809100028295807F80933C02D9
S11357608FEF8093C7020E94A7298823E1F78F2D2A
S113577099278FBF78948FB7F894282F3327922FC7
S1135780809148058A3031F080912203843011F0F1
S11357902FBF04C09FBF8BE00E94A9018FB7F8946C
S11357A099272091C2022F5F2093C2028FBF80915C
S11357B020038823D9F4809148028823B9F4809186
S11357C0AF08813049F490E080911305882309F4EF
S11357D091E0992359F002C0853041F083E0809331
S11357E048020E948B1685E0809320030E949B1739
S11357F08FB7F894482F552757C080917000992788
S113580083709070892B19F4E5E0F0E014C0809166
S1135810B6008A71E1F78091B3009091B200891BC0
S11358208C3038F08091B200853F18F4E3E0F0E06A
S113583002C0E2E0F0E080916E00867009F580918C
S11358406F008E72E9F4809171008E72C9F40CB409
S113585007FC16C08091C100887191F48091C90041
S1135860887171F48091BC0082FD0AC080917A0035
S113587087FF03C081E090E005C085E090E002C0AE
S113588080E090E023B78E1708F4E82FFF27E2505A
S1135890FD4FE491207F2160E22BE3BF789488954B
S11358A0F89483B78E7F83BF809110088F3F09F4EB
S11358B0A4CF282F3327F901ED56FD4F8081809323
S11358C010088F3F11F48093B8088FEF80832F3F27
S11358D009F493CF4FBF822F0E945C2289CFACE2A0
S11358E0B0E0E5E7FCE20C94642E222E332E442E25
S11358F0552E662E772E882E992EFE013196A8E01D
S11359001192AA95E9F729823A824B825C826D82D0
S11359107E828F829886FE013996B8E01192BA95FC
S1135920E9F7A986BA86CB86DC86ED86FE860F87E4
S1135930188B89819A81AB81BC8189A79AA7ABA76F
S1135940BCA77C018D018FEF9FEFA0E0B0E0E822BF
S1135950F9220A231B2389A59AA5ABA5BCA51D0181
S11359604424552489859A85AB85BC858DA39EA343
S1135970AFA3B8A75C016D018FEF9FEFA0E0B0E08B
S1135980A822B922CA22DB228DA19EA1AFA1B8A56B
S11359903D0188249924C801B701A60195010E94FC
S11359A0F02D69A37AA38BA39CA3C801B701A4011A
S11359B093010E94F02D7B018C01C201B101A6016B
S11359C095010E94F02D5B016C01C201B101A4019B
S11359D093010E94F02D3B014C01EA0CFB1C0C1DB1
S11359E01D1D89A19AA1ABA1BCA19D0144275527E6
S11359F02E0D3F1D401F511F2A153B054C055D050B
S1135A0040F480E090E0A1E0B0E0680E791E8A1EC8
S1135A109B1ECA01AA27BB27860D971DA81DB91D69
S1135A208D8F9E8FAF8FB8A3A9013327222789A119
S1135A309AA1ABA1BCA1A070B070280F391F4A1F56
S1135A405B1F298F3A8F4B8F5C8FA98CBA8CCB8CC0
S1135A50DC8CED8CFE8C0F8D18A1FE01719698E004
S1135A6011929A95E9F7ED8AFE8A0F8B188F2D8192
S1135A703E814F8158856DA17EA18FA198A50E947A
S1135A80F02D3B014C012D853E854F85588969A534
S1135A907AA58BA59CA50E94F02D2D893E894F895E
S1135AA0588D260F371F481F591F260D371D481DB7
S1135AB0591D2D8B3E8B4F8B588F6D887E888F8818
S1135AC0988C2A2D3B2D4C2D5D2D662D772D882D00
S1135AD0992DE2E1AC960C94802EA0E1B0E0E3E7CE
S1135AE0FDE20C94642E222E332E442E552E662E67
S1135AF0772E882E992E002309F466C088E0FE01D3
S1135B00319611928A95E9F729833A834B835C8312
S1135B106D837E838F829887E0E2E01B1E16CCF5AE
S1135B202D813E814F815885602F772767FD7095C1
S1135B30DA01C901062E04C0B695A79597958795F5
S1135B400A94D2F78D879E87AF87B88B04C0220F43
S1135B50331F441F551FEA95D2F789819A81AB817F
S1135B60BC8104C0B695A795979587956A95D2F799
S1135B70282B392B4A2B5B2B29873A874B875C8749
S1135B8029843A844B845C846D847E848F849888D1
S1135B901BC01D861E861F86188A2E2F332727FDBD
S1135BA03095309521953F4F8D819E81AF81B88589
S1135BB004C0B695A795979587952A95D2F78987B6
S1135BC09A87AB87BC87DCCF222D332D442D552DEE
S1135BD0662D772D882D992DE2E160960C94802E08
S1135BE0629FD001739FF001829FE00DF11D649FBD
S1135BF0E00DF11D929FF00D839FF00D749FF00D49
S1135C00659FF00D9927729FB00DE11DF91F639FE9
S1135C10B00DE11DF91FBD01CF0111240895991B99
S1135C2079E004C0991F961708F0961B881F7A958F
S1135C30C9F780950895AA1BBB1B51E107C0AA1F91
S1135C40BB1FA617B70710F0A61BB70B881F991F19
S1135C505A95A9F780959095BC01CD01089597FBBD
S1135C60092E07260AD077FD04D0E5DF06D00020F0
S1135C701AF4709561957F4F0895F6F79095819584
S1135C809F4F0895A1E21A2EAA1BBB1BFD010DC054
S1135C90AA1FBB1FEE1FFF1FA217B307E407F507D8
S1135CA020F0A21BB30BE40BF50B661F771F881FB4
S1135CB0991F1A9469F760957095809590959B014A
S1135CC0AC01BD01CF0108952F923F924F925F9294
S1135CD06F927F928F929F92AF92BF92CF92DF92F8
S1135CE0EF92FF920F931F93CF93DF93CDB7DEB75D
