S01700006275696C642F697269732F6D61696E2E7372656343
S11300000C948D000C9413090C941D090C9427096D
S11300100C9431090C943B090C9445090C944F0938
S11300200C9459090C94AC000C94AC000C94AC00E6
S11300300C94AC000C94CF0A0C94AC000C941808EB
S11300400C9495140C94CB140C94CF080C94DA08EB
S11300500C94E5080C94AC000C94AC000C94AC002B
S11300600C942C080C94AC000C94AC000C94AC00D4
S11300700C94AC000C94A1170C94AC000C949C0A46
S11300800C94450A0C94860A0C94910A0C94AF0AB9
S11300900C94AC000C94AC000C94AC000C94AC002C
S11300A00C94AC000C94AC000C94AC000C94AC001C
S11300B00C94AC000C94AC000C94AC000C94AC000C
S11300C00C94AC000C94AC000C94AC004924902427
S11300D0CF246325D125D425DF25122606276A26B9
S11300E07E260D27332746275227542758275C2777
S11300F0602772278327F927652874289F28A22858
S1130100A428C52803294E243129432955245529D7
S11301102D2A1A2B00020E060C0411241FBECFEF49
S1130120D1E2DEBFCDBF12E0A0E0B2E0E6E8F1E646
S113013000E00BBF02C007900D92A631B107D9F7BA
S113014018E0A6E1B2E001C01D92AF3FB107E1F7AC
S11301500E94232C0C94C2300C9400008FB7F894A6
S1130160992708958FBF0895AC01ECE5F4E080E091
S113017090E09C01858180FF05C080819181841776
S1130180950741F0C90101963B968A30910589F79C
S11301902FEF30E0C90108950E94B4008F3F91F021
S11301A099272BE030E0829FF001839FF00D929F0E
S11301B0F00D1124E45AFB4F858181FF03C0878130
S11301C0908508958FEF9FEF08950E94B4008F3FAC
S11301D019F481E090E00895282F33278BE090E014
S11301E0289FF001299FF00D389FF00D1124E45A47
S11301F0FB4F85818860858380E090E008952F928D
S11302003F924F925F926F927F928F929F92AF92A2
S1130210BF92CF92DF92EF92FF920F931F93CF93EF
S1130220DF93CDB7DEB729970FB6F894DEBF0FBEC4
S1130230CDBF6FB76983F89420909A0330909B03E5
S113024040909C0350909D036624772488242EE4D8
S1130250A22E93E8B92ECC24DD24EE24FF2400E062
S113026010E0222D332D442D552D662D772D882D0C
S113027090E00E94862E2A833B834C835D836E83A9
S11302807F8388879987822E932EA42EB52E2401EE
S1130290350100E20E94842FA22EB32EC42ED52E47
S11302A0A301920156954795379527952A0D3B1D35
S11302B04C1D5D1D57FF05C05F772F5F3F4F4F4FAC
S11302C05F4F20939A0330939B0340939C03509376
S11302D09D03E9818E2F99278FBFCA01B901299601
S11302E00FB6F894DEBF0FBECDBFDF91CF911F9143
S11302F00F91FF90EF90DF90CF90BF90AF909F90C1
S11303008F907F906F905F904F903F902F900895C3
S1130310282F9FB7F894E82FFF27EB53FD4F8081D8
S11303208F3F81F4E091DF08E21771F40BC0209352
S11303301A0804C0FF27EB53FD4F20832093DF08E6
S113034020E007C025E005C080911A088F3F91F78F
S1130350EECF892F99278FBF822F99270895EF9287
S11303600F931F93AE2D99E0899FF0011124E4535C
S1130370FB4F4083518362837383048315832683F5
S11303803783A17080858E7F8A2B8260808787E087
S11303900E9488011F910F91EF9008957FB7F89400
S11303A06091B2002091C0023091C1024091C2021A
S11303B05091C302B99B11C08091B3009091B200D7
S11303C0280F311D411D511D2F5F3F4F4F4F5F4F70
S11303D0290F311D411D511D04C0260F311D411D22
S11303E0511D872F99278FBFCA01B90108956D3117
S11303F018F080E090E008950C9608956E5F0E94D6
S1130400F701009709F0029608950B960895882342
S113041019F08CB5806402C08CB58F7B8CBD0895B7
S1130420882319F08CB5806802C08CB58F778CBD99
S113043008950F931F9380E00E9407020FB7F8946A
S11304401127229A2398219A209A8CB580618CBD19
S113045080E00E9410028CB5877F8CBD8CB58B7FA9
S11304608CBD81E00E9407028DB581608DBD8CB585
S11304708C7F8CBD0FBF1F910F9108950F931F9315
S1130480CF93DF93182F0FB7F89480911702882326
S113049011F40E941902802F99278FBF8FB7F89407
S11304A0C82FDD272C2F80911702882361F481E067
S11304B0809317021093E0038AE00E948801CFBF63
S11304C080E090E021C0E12FFF27E455FC4F8081BC
S11304D08F3F89F4E0910902E11789F40CC010936D
S11304E0080204C0FF27E455FC4F1083109309024F
S11304F080E090E002C085E090E02FBF05C08091CD
S113050008028F3F79F7EBCFDF91CF911F910F91C5
S11305100895FB0121E030E002C0220F331F8A95C9
S1130520E2F784A5822B84A708958FB7F8942091CD
S11305305604309157044091580450915904E09165
S11305408400F0918500B09B08C02F5F3F4F4F4F50
S11305505F4FE0918400F091850099278FBFC90116
S1130560772766279F0144275527622B732B842BFB
S1130570952B0895FC0182819927982F8827218142
S11305803327822B932B75E0969587957A95E1F71F
S1130590817090700895AC01EFB7F89420918400B5
S11305A030918500C901841B950B03968617970724
S11305B020F0B9016D5F7F4F02C0640F751F611594
S11305C0710511F461E070E061507040709389002E
S11305D06093880082E086BB80916F008260809384
S11305E06F008E2F99278FBF0895CF93DF93EC016F
S11305F00E94BA02882339F18A8129819927982F88
S113060088273327822B932B87749C7C81549848AA
S1130610D1F48F814E812FB7F89433276091020271
S1130620709103022FBF20E09927982F8827552720
S1130630842B952B8617970709F021E081E0282762
S1130640822F992702C080E090E0DF91CF91089536
S1130650FB0121E030E002C0220F331F8A95E2F74C
S113066084A5822399270895EF92FF920F931F93F5
S11306707C018FB7F8949927009181051091820528
S11306800F5E1E4F109382050093810501511140A6
S11306908FBF85E00E948801C801B7010E943230F3
S11306A08A5D9E4F1F910F91FF90EF9008950F93D5
S11306B01F93CF93DF93EC01892BE9F02091FF077F
S11306C0309100088FEF2F3F3807A9F08091760210
S11306D0813019F4198218820BC00091010810911D
S11306E00208C9010E94CC00080F191F198308834E
S11306F080E090E002C081E090E0DF91CF911F9113
S11307000F91089580912D02E82FFF27EE0FFF1F10
S1130710E452F84F0190F081E02D20912F02222322
S113072051F08F5F80932D028D3011F410922D02C1
S1130730215020932F02CF010895AC01209117047A
S11307402C3018F081E090E008958091A103682F87
S1130750620F712D711DFB016C30710508F03C971F
S1130760EE0FFF1FEB57FA4F518340832F5F209307
S1130770170480E090E00895AC01209116042C3019
S113078018F081E090E0089580913E08682F620F90
S1130790712D711DFB016C30710508F03C97EE0F53
S11307A0FF1FEE51F74F518340832F5F20931604B0
S11307B080E090E00895685F0E94F701009709F0D7
S11307C008960895FC018081855199270895FC01BC
S11307D027813085C901A3E0880F991FAA95E1F705
S11307E0820F931F860F971F6AE070E00E943230D9
S11307F0708767830895FC0161859285662329F4D7
S11308008AE0989FB001112409C077278AE0989F55
S1130810C00111240E94463011861286CF010E9425
S1130820E7030895FC01635F60830895AF92BF926C
S1130830CF92DF92EF92FF920F931F93F82E5A01FB
S11308406B010E94CE01AB01BC01EE24960185012F
S11308508F2D0E94AF011F910F91FF90EF90DF90B9
S1130860CF90BF90AF900895982F969596959695B2
S1130870EAE5F4E0E90FF11D877021E030E002C001
S1130880220F331F8A95E2F78081822399270895E6
S1130890982F969596959695EFE0F8E0E90FF11D5F
S11308A0877021E030E002C0220F331F8A95E2F7FF
S11308B080818223992708950F931F93CF93DF9309
S11308C0182F8FB7F894282F3327022F80912302F3
S11308D0882379F581E0809323021093CA042FBF03
S11308E02FB7F894332780917A00806880937A0038
S11308F02FBF8FB7F894C82FDD279C2F80910D024E
S11309008230A9F480912302813021F484E10E9491
S1130910880109C0823059F48091CA0480930D0281
S113092083E080932302CFBF80E090E025C09FBF87
S1130930FBCF8091CA04811711F42FBFF5CF812F0B
S11309400E943404882319F085E090E014C0E12F5C
S1130950E695E695E695FF27E65AFB4F177081E08A
S113096090E002C0880F991F1A95E2F72081282B86
S1130970208380E090E00FBFDF91CF911F910F9112
S113098008959FB7F894292F3327422F90910B0293
S1130990981741F480911902833021F42FBF81E02C
S11309A090E008954FBF80E090E00895982F9695C9
S11309B096959695EFEBF2E0E90FF11D877021E033
S11309C030E002C0220F331F8A95E2F78081822330
S11309D099270895882339F083E090E090932008C4
S11309E080931F0810980895AC0120912F022D3098
S11309F018F081E090E0089580912E02E82FFF27FF
S1130A00EE0FFF1FE452F84F518340838F5F8093B2
S1130A102E028D3011F410922E022F5F20932F029C
S1130A2080E090E00895F82F722FAFB7F89480918A
S1130A30FF028E7F8093FF0280917C00E82FEF718C
S1130A40262F3327829586958695837099272817B4
S1130A50390719F020E030E00DC050E02F2F332784
S1130A608E2F99272817390709F051E081E058277C
S1130A70252F3327522F5170252F220F8091FF02EB
S1130A8081783F2F3F71932F990F990F822B892BD8
S1130A908093FF0241704295440F407E40726295FC
S1130AA0660F660F607C432B462B842F9927809317
S1130AB07C00783061F580911B0890911C0821E03E
S1130AC08638920718F027E030E020C0833C910577
S1130AD018F026E030E01AC08136910518F025E0C0
S1130AE030E014C08033910518F024E030E00EC0EB
S1130AF08831910518F023E030E008C08C3091056E
S1130B0018F022E030E002C020E030E0722F77706D
S1130B10887D872B886D992780937A008A2F99275F
S1130B208FBF852F9927089580910F02882319F08C
S1130B308FE120E002C028E083E040E060E00E9412
S1130B401305089580912608882319F08FE120E089
S1130B5002C028E081E040E060E00E9413050895AF
S1130B60982F969596959695EBECF4E0E90FF11D88
S1130B70877021E030E002C0220F331F8A95E2F72C
S1130B8080818223992708950F931F93CF93DF9336
S1130B90182F8FB7F894282F3327022F809119022A
S1130BA0882331F581E0809319021093A7052FBFA4
S1130BB08FB7F894C82FDD279C2F80910B028230C9
S1130BC0A9F480911902813021F48BE00E948801FC
S1130BD009C0823059F48091A70580930B0283E009
S1130BE080931902CFBF80E090E025C09FBFFBCF68
S1130BF08091A705811711F42FBFF5CF812F0E9493
S1130C00B005882319F085E090E014C0E12FE69543
S1130C10E695E695FF27E553FB4F177081E090E0DA
S1130C2002C0880F991F1A95E2F72081282B208390
S1130C3080E090E00FBFDF91CF911F910F91089555
S1130C404FB7F8945527FC0123E0F695E7952A95CC
S1130C50E1F7E55BFA4F8770907021E030E002C065
S1130C60220F331F8A95E2F78081822B80834FBF46
S1130C700895DF92EF92FF920F931F938FB7F8942A
S1130C80282F3327D22E9091B3008091B20047B31E
S1130C90981711F041FF02C02FBF71C080919403D7
S1130CA08823E1F10E94CE01E0907F02F09080025F
S1130CB0009181021091820220913F0830914008F6
S1130CC040914108509142086E197F09800B910BA5
S1130CD0621773078407950720F01092940371E05C
S1130CE01EC02E0D3F1D401F511F8091C0029091C8
S1130CF0C102A091C202B091C302281B390B4A0B56
S1130D005B0B273E31054105510540F4822F22300B
S1130D1010F070E005C070E082E002C070E086EE82
S1130D20682F61508091B60083FDFCCF8091B200A2
S1130D30681709F46F5F2091C0023091C10240919D
S1130D40C2025091C302DA01C9010196A11DB11D6D
S1130D50860F911DA11DB11D82179307A407B50726
S1130D6010F4622F60958091B60083FDFCCF6093F0
S1130D70B300DFBE772319F086E00E9488011F913B
S1130D800F91FF90EF90DF900895AFB7F894BB27D1
S1130D90E1E0E093940360937F0270938002809378
S1130DA081029093820220933F083093400840933D
S1130DB0410850934208AFBF0E94390608959BE052
S1130DC0899FF0011124E45AFB4F718360831282DE
S1130DD01382148285E08583168210861782089513
S1130DE0882349F0682F772784EC99E00E944630E5
S1130DF06B3F710510F06FEF7FEFCB010895CF9239
S1130E00DF92FF920F931F93CF93DF93282F062F28
S1130E10482F55278BE090E0489FE001499FD00D73
S1130E20589FD00D1124C45ADB4F8D8182FF02C01C
S1130E308B7F8D838A81302F381B0A838B818F5F50
S1130E408B83332379F08C81830F81508C833B30E7
S1130E5048F068817981822F0E94DF060A8381E04D
S1130E608B836EC08BE090E0489FF001499FF00DAA
S1130E70589FF00D1124E45AFB4F83812481820F83
S1130E80912D911D03971CF4333008F459C0C08090
S1130E90D180CCE5D4E0888199818C159D0509F039
S1130EA049C08D81282F332720FF44C06B81FC80EB
S1130EB0F60E21FD16C07727882799272AEF30E000
S1130EC040E050E00E9407302F2D33274427552758
S1130ED00E945930DA01C9012E830E94F0069887D6
S1130EE08F838D8182608D830E8189E0089F8001CC
S1130EF011246B817727882799272AEF30E040E077
S1130F0050E00E9407302F2D3327442755270E9495
S1130F105930C801820F911D6AE070E00E9446308A
S1130F20CB016E831B821C820E94F006BC01CE01A1
S1130F300E94E7032B9684E0CA3CD80709F0ABCFA4
S1130F40DF91CF911F910F91FF90DF90CF90089583
S1130F5080E090E0E1E6F4E09C01808180FF08C03D
S1130F60C90101963B968A309105B1F72FEF30E025
S1130F70C9010895982FAFEF60E070E040E050E0C1
S1130F80E1E6F4E08081282F332720FF0BC021FF06
S1130F9009C023FD07C0228133812617370710F0CB
S1130FA0A42FB9014F5F5F4F3B964A30510551F76B
S1130FB0892F99276817790718F48FEF90E008951F
S1130FC08A2F99270895AC013091BD028FEF4F3FCE
S1130FD0580711F020E012C0832F99270895E22FBB
S1130FE0FF2763E0EE0FFF1F6A95E1F7EA5FFC4F0E
S1130FF0808191818417950719F02F5F231779F762
S1131000822F992708951F93CF93DF93162FC0E063
S1131010D0E06AE10E94FE01FC01808181238117F6
S113102011F4C1E0D0E0CE01DF91CF911F9108957A
S11310301F920F920FB60F9211248F938091B000DC
S11310408093B0008091B60081FDFCCF8F910F900A
S11310500FBE0F901F9018951F920F920FB60F920C
S113106011240F931F932F933F934F935F936F9389
S11310707F938F939F93AF93BF93CF93DF93EF931C
S1131080FF932EB5E0911405F0911505309739F0D2
S11310908091480490914904E80FF91F20838091BE
S11310A0480490914904019690934904809348041C
S11310B080E00E941002C0914804D091490420911C
S11310C0430230914402C217D30708F042C0009192
S11310D0D7081091D8084091140550911505CE01F8
S11310E00A962817390708F4C901DA01AC0FBD1FA5
S11310F0F801EC0FFD1F9C012150304015C0011573
S1131100110531F080818EBD0DB407FEFDCF04C002
S11311101EBC0DB407FEFDCF8EB54115510509F077
S11311208C93219611963196C217D30740F381E030
S11311300E9410020115110531F00C0F1D1FF8015A
S113114080818EBD01C01EBCD0934904C093480465
S113115011C010921505109214051092D80810921F
S1131160D70810924402109243021092490410923C
S113117048048EB5FF91EF91DF91CF91BF91AF916C
S11311809F918F917F916F915F914F913F912F919B
S11311901F910F910F900FBE0F901F901895789488
S11311A01F920F920FB60F9211240F900FBE0F9043
S11311B01F90189578941F920F920FB60F921124D6
S11311C00F900FBE0F901F90189578941F920F9256
S11311D00FB60F9211242F933F938F939F93AF9346
S11311E0BF932FB7F89433278091560490915704F6
S11311F0A0915804B09159040196A11DB11D80938A
S1131200560490935704A0935804B09359042FBFE5
S1131210BF91AF919F918F913F912F910F900FBEEE
S11312200F901F9018951F920F920FB60F921124D2
S11312300F900FBE0F901F9018951F920F920FB62C
S11312400F9211240F900FBE0F901F9018951F92AC
S11312500F920FB60F9211240F900FBE0F901F9094
S113126018951F920F920FB60F9211240F900FBE74
S11312700F901F9018951F920F920FB60F92112482
S11312800F900FBE0F901F9018951F920F920FB6DC
S11312900F9211240F900FBE0F901F9018951F925C
S11312A00F920FB60F9211240F900FBE0F901F9044
S11312B018951F920F920FB60F9211240F900FBE24
S11312C00F901F9018958FB7F8946091A2037091B6
S11312D0A3032091940030919500C09B06C06F5FDA
S11312E07F4F209194003091950099278FBF8827D4
S11312F09927CB017727662744275527622B732B21
S1131300842B952B0895EF92FF920F931F930E94C5
S113131063097B018C012091DC033091DD03409152
S1131320DE035091DF038091A6039091A703A0915F
S1131330A803B091A903820F931FA41FB51FE2163F
S1131340F3060407150730F082179307A407B507BF
S113135058F005C082179307A407B507E0F5E8160F
S1131360F9060A071B07B8F59C01AD012E193F09C0
S1131370400B510B213060E8360760E0460760E01F
S1131380560768F180E090E8A0E0B0E0E80EF91EAE
S11313900A1F1B1FE092DC03F092DD030093DE03BF
S11313A01093DF0380E090E8AFEFBFEFE80EF91E83
S11313B00A1F1B1F20503048404050402093A60372
S11313C03093A7034093A8035093A90320E030E887
S11313D040E050E014C020E030E040E050E0809372
S11313E0DC039093DD03A093DE03B093DF0310923C
S11313F0A6031092A7031092A8031092A903A901AF
S1131400B7012091940030919500C9018E199F096C
S11314108C599F4F8417950720F0B9016C597F4F61
S113142002C0640F751F6115710511F461E070E06D
S113143061507040709399006093980082E088BB7B
S1131440809171008260809371001F910F91FF90D1
S1131450EF9008950F931F930FB7F894112760939B
S1131460DC037093DD038093DE039093DF0320930A
S1131470A6033093A7034093A8035093A9030E94A3
S113148083090FBF1F910F91089578941F920F92B3
S11314900FB60F9211241F932F933F934F935F9393
S11314A06F937F938F939F93AF93BF93EF93FF9328
S11314B0809171008D7F8093710078941FB7F894A8
S11314C08091A6039091A703A091A803B091A903CA
S11314D00097A105B10519F40E94940502C00E9469
S11314E08309812F99278FBFFF91EF91BF91AF910E
S11314F09F918F917F916F915F914F913F912F9128
S11315001F910F900FBE0F901F90189578941F9203
S11315100F920FB60F9211240F900FBE0F901F90D1
S1131520189578941F920F920FB60F9211240F9072
S11315300FBE0F901F90189578941F920F920FB6BC
S11315400F9211248F939F9380919600909197000E
S11315509F918F910F900FBE0F901F9018957894C4
S11315601F920F920FB60F9211242F933F938F93D4
S11315709F932FB7F89433278091A2039091A303EC
S113158001969093A3038093A2032FBF9F918F9101
S11315903F912F910F900FBE0F901F9018951F929F
S11315A00F920FB60F9211242F933F934F935F9393
S11315B06F937F938F939F93AF93BF93EF93FF9317
S11315C08091B0008093B0008091B60081FDFCCF83
S11315D08091B30099270196AA27BB272091C002C6
S11315E03091C1024091C2025091C302280F391FA9
S11315F04A1F5B1F2093C0023093C1024093C20272
S11316005093C30278940E943906FF91EF91BF91E1
S1131610AF919F918F917F916F915F914F913F9186
S11316202F910F900FBE0F901F901895AF92BF92FD
S1131630CF92DF92EF92FF920F931F938091120249
S113164090911302A0911402B0911502B695A7953A
S11316509795879580935B0390935C03A0935D03B8
S1131660B0935E030E94FF00E0905B03F0905C0384
S113167000915D0310915E03A80197010E94593007
S11316805B016C01AE0CBF1CC01ED11EA0925B039B
S1131690B0925C03C0925D03D0925E031092FC078B
S11316A00E94CE01AB01BC01F1E0EF2E9601850151
S11316B085E00E94AF011F910F91FF90EF90DF90A2
S11316C0CF90BF90AF90089521E02093E40320933E
S11316D045052091840030918500BC01C9010E9418
S11316E0CB02089583E090E09093200880931F0834
S11316F011988091A3059091A405A091A505B0919E
S1131700A6058093B9029093BA02A093BB02B0934A
S1131710BC024091A5055527542F44278091A60566
S11317209927482B592B6627772780E00E941604B7
S11317300895EF92FF920F931F9379018A01643009
S113174018F044E050E002C0462F5527BC0183EA5C
S113175095E00E94B230E0922802F09229020093B0
S11317602A0210932B020E94720B1F910F91FF907B
S1131770EF900895EF92FF920F931F93CF93DF930F
S1131780982F8FB7F894E82E80911902833009F0CE
S113179045C080910B02891709F040C08091CB04A9
S11317A0882309F045C03EC0EF2DE695E695E69501
S11317B0FF274F2D5527E553FB4F9A0127703070B3
S11317C081E090E002C0880F991F2A95E2F7809586
S11317D0208128232083C093180211C02196C2308F
S11317E0D10511F4C0E0D0E0FC2E8C2F0E94B0058E
S11317F08823D1F6C017D10789F74FEF50E0409303
S1131800A7058FEF80930B0281E0809319028BE090
S11318100E948801EFBE80E090E010C0EFBE81E03E
S113182090E00CC082E080930B0210921902F2CF78
S113183080911802082F1127E801D0CFDF91CF91B2
S11318401F910F91FF90EF9008950F931F93982F7E
S11318501FB7F89480911702823099F580910A029B
S1131860891779F58091080220E030E08F3F11F468
S113187021E030E0232BF1F49FEF90930A028F3F95
S113188019F42FEF30E00DC0282F3327F901E45568
S1131890FC4F8081809308028F3F11F490930902DA
S11318A090832093E00381E0809317028AE00E94F2
S11318B0880105C08FEF80930A021092170201E09D
S11318C001C000E0812F99278FBF1FB7F894809142
S11318D01702882311F40E940702812F99278FBFD2
S11318E090E0013009F491E081E09827892F99274D
S11318F01F910F9108958FB7F894282F3327922FB3
S113190080910A02882331F480911702823011F405
S11319102FBF13C09FBF8FB7F894282F3327809110
S11319201702882369F482E08093170210920A0256
S11319302FBF0E941902209A289A81E090E008950E
S11319402FBF80E00E943E0280E090E008951F9344
S1131950982F1FB7F89480911602823091F58091E8
S11319600702891771F58091050220E030E08F3F6E
S113197011F421E030E0232BE9F49FEF9093070268
S11319808F3F19F42FEF30E00DC0282F3327F901D2
S1131990EB5FFC4F8081809305028F3F11F490939D
S11319A0060290832093020381E0809316020E9432
S11319B0880105C08FEF809307021092160221E080
S11319C001C020E0812F99278FBF90E0213009F4D6
S11319D091E081E09827892F99271F910895EF922C
S11319E0FF920F931F93CF93DF93982F8FB7F894A1
S11319F0E82E80912302833009F045C080910D02C6
S1131A00891709F040C080915A04882309F04AC01C
S1131A103EC0EF2DE695E695E695FF274F2D552719
S1131A20E65AFB4F9A012770307081E090E002C0C3
S1131A30880F991F2A95E2F7809520812823208317
S1131A40C093220211C02196C230D10511F4C0E026
S1131A50D0E0FC2E8C2F0E9434048823D1F6C017CA
S1131A60D10789F74FEF50E04093CA048FEF80937A
S1131A700D0281E08093230284E10E948801EFBE7D
S1131A8080E090E015C0EFBE81E090E011C082E0FC
S1131A9080930D021092230280917A008F778093B5
S1131AA07A00EDCF80912202082F1127E801CBCFD5
S1131AB0DF91CF911F910F91FF90EF9008950F93B5
S1131AC01F93FC0100810D50112762E00E94F70171
S1131AD0FC01208133272F703070C901880F991FB2
S1131AE0820F931F081B0250802F99271F910F917B
S1131AF00895EF92FF920F931F93CF93DF93982F44
S1131B008FB7F894E82E80912502833009F045C000
S1131B1080910E02891709F040C080910F08882334
S1131B2009F048C03EC0EF2DE695E695E695FF27FF
S1131B304F2D5527E15FF74F9A012770307081E0F0
S1131B4090E002C0880F991F2A95E2F780952081C2
S1131B5028232083C093240211C02196C130D105CB
S1131B6011F4C0E0D0E0FC2E8C2F0E94480488239E
S1131B70D1F6C017D10789F74FEF50E040937D02AB
S1131B808FEF80930E0281E08093250287E10E940B
S1131B908801EFBE80E090E013C0EFBE81E090E0EA
S1131BA00FC081E080930E021092250280932602DA
S1131BB089E1EDCF80912402082F1127E801CDCFD0
S1131BC0DF91CF911F910F91FF90EF900895809135
S1131BD06303823031F481E08093630383E00E94E5
S1131BE08801089580934308882311F484E001C098
S1131BF081E08093630383E00E94880108954F92FB
S1131C005F926F927F928F929F92AF92BF92CF9288
S1131C10DF92EF92FF920F931F93CF93DF932C01E8
S1131C2080914202882309F083C18091D9088530CC
S1131C3009F07EC10E947B0C882309F479C180914C
S1131C40FE07882309F074C1B20182E00E942803D0
S1131C50882311F490E003C0F20196A59F7080914F
S1131C601504981781F090931504289885EC8EBD7F
S1131C700DB407FEFDCF8EB590689EBD0DB407FE72
S1131C80FDCF8EB5289AE20121968981F201218146
S1131C9040E09927982F88273327822B932B87742A
S1131CA09C7C8154984809F441E0442301F128982C
S1131CB086E88EBD0DB407FEFDCF8EB51EBC0DB4F7
S1131CC007FEFDCF8EB5289A99278F7190702091C9
S1131CD0A00340915603240F312D311D43E0359567
S1131CE027954A95E1F7281739070CF421C128985C
S1131CF082EC8EBD0DB407FEFDCF8EB589E08EBD9E
S1131D000DB407FEFDCF8EB5289A0E9495027B0183
S1131D108C01B20184E00E942803882319F4E0E0D6
S1131D20F0E006C0D2018C918550F201E80FF11D5C
S1131D30289881E88EBD0DB407FEFDCF8EB51EBC7C
S1131D400DB407FEFDCF8EB5289A8F71893079F0D6
S1131D50289882EC8EBD0DB407FEFDCF8EB586E0CB
S1131D608EBD0DB407FEFDCF8EB5289AE1C08FB7A6
S1131D70F89499272F9A20918400309185008FBF81
S1131D802F98289880E68EBDD2019C910DB407FE51
S1131D90FDCF8EB59EBD792F7250773010F4672F2A
S1131DA001C067E0DE01962F4D910DB407FEFDCF13
S1131DB08EB54EBD9150C1F76150C60FD11D6F5FF6
S1131DC021962E193F092E553F4F3901882477FC5F
S1131DD08094982C6E0C7F1C801E911E309719F4F1
S1131DE0972F961B42C02081E1808281A38099278E
S1131DF0AA27BB27BA2FA92F982F88273327442730
S1131E005527522F442733272227FF240027112741
S1131E108701FF24EE242E293F29402B512BBB247C
S1131E20CC24DD242A293B294C295D29822B932BA0
S1131E30A42BB52B86199709A809B9098383292FDF
S1131E403A2F4B2F552722839D0144275527218361
S1131E508B2F9927AA27BB278083C2CF28810DB453
S1131E6007FEFDCF21968EB52EBD9150B8F70DB467
S1131E7007FEFDCF8EB5289A289882EC8EBD0DB44E
S1131E8007FEFDCF8EB586E08EBD0DB407FEFDCFF7
S1131E908EB5289A3097D1F12081E1808281A38088
S1131EA09927AA27BB27BA2FA92F982F882733272A
S1131EB044275527522F442733272227FF2400275E
S1131EC011278701FF24EE242E293F29402B512B73
S1131ED0BB24CC24DD242A293B294C295D29822BCF
S1131EE0932BA42BB52B860D971DA81DB91D838399
S1131EF0292F3A2F4B2F552722839D0144275527FD
S1131F0021838B2F9927AA27BB278083B20181E0E5
S1131F100E948902F20160A671A682A693A686E0B9
S1131F208093D90884E08093420280E090E002C06C
S1131F3085E090E0DF91CF911F910F91FF90EF909A
S1131F40DF90CF90BF90AF909F908F907F906F90D5
S1131F505F904F900895AF92BF92CF92DF92EF922D
S1131F60FF920F931F93CF93DF938091FE078823F3
S1131F7009F402C10E947B0C882309F4FDC08FB7C9
S1131F80F8949927C091A403D091A5038FBF109210
S1131F90FE0728988FE88EBD0DB407FEFDCF8EB5E1
S1131FA01EBC0DB407FEFDCF8EB5289A982F8091E4
S1131FB04202833011F0873031F485E08093D908F0
S1131FC088E080934202A92EBB24A2FE63C08091C4
S1131FD04202863019F41092420203C0882309F0A9
S1131FE059C0943009F045C0289886E88EBD0DB4D8
S1131FF007FEFDCF8EB51EBC0DB407FEFDCFFEB4AB
S1132000289A2FE1F22280915603982F969596955F
S1132010EF2DE91B8E0F80935603009183021091DC
S11320208402F80184A58B7F84A7B80183E00E9411
S11320308902F801F6A60E9495027B018C01C090EA
S11320408302D0908402B60181E00E948902CE19F5
S1132050DF092797CE01AA2797FDA095BA2F8E0DE9
S11320609F1DA01FB11FF60180A791A7A2A7B3A728
S11320700EC0E0918302F091840284A5877F84A737
S1132080E0918302F091840284A58D7F84A785E08A
S113209080934202A3FE70C080914202843009F012
S11320A04EC085E08093D908109242028091BE020E
S11320B0833019F41092BE025FC0C091E008D09141
S11320C0E108CE010E94BA02882389F18A8129811C
S11320D09927982F88273327822B932B87749C7CEE
S11320E08154984821F58F812E819927982F88272C
S11320F03327822B932B8F5F9F4FC9F090E0809101
S11321004505882309F491E0992389F012E010939E
S1132110E40381E0809345058091840090918500DB
S113212069E973E00E94CB021093BE0225C01092AD
S1132130BE021092640380E00E94F20D1DC085303F
S1132140D9F42091A003289886E88EBD0DB407FE2B
S1132150FDCF8EB51EBC0DB407FEFDCF8EB5289AFB
S11321608F71922F96959695891B280F2093A00323
S113217089E08093420208C090914202992309F4B5
S1132180E6C2993009F013C2289880E28EBD0DB4DE
S113219007FEFDCF8EB51EBC0DB407FEFDCF8EB578
S11321A0482F5527433008F497C3842F99278A97DB
S11321B00CF092C31EBCE0918302F0918402408330
S11321C0142F1250173010F4912F01C097E0BF0163
S11321D06F5F7F4F292FFB0140E050E00DB407FEF5
S11321E0FDCF8EB51EBC808381914827042E429575
S11321F0407F4025052E542F42954F700426469566
S113220054274527440F440F440F4025215031F7EC
S11322109150DB01A90FB11D9F5F1196E0918302DC
S1132220F091840281818770823009F421E02223B5
S113223049F020E030E08091BE02823081F421E058
S113224030E00DC08FB7F894282F332760E08091D9
S1132250F607833008F461E02FBF262F3327232BA2
S113226009F45CC0191B912F18C00DB407FEFDCFF3
S11322708EB51EBC8C938D914827042E4295407FC9
S11322804025052E542F42954F7004264695542719
S11322904527440F440F440F4025915030F70DB4A7
S11322A007FEFDCF8EB51EBC9A012827022E22956B
S11322B0207F2025032E322F22952F70022626956B
S11322C032272327220F220F220F20250DB407FEC9
S11322D0FDCF8EB51EBC2827022E2295207F2025F7
S11322E0032E322F22952F7002262695322723277C
S11322F0220F220F220F20250DB407FEFDCF8EB52D
S1132300E0918302F091840285A7289A15E0109346
S1132310D90810924202232B31F015C20DB407FEE6
S1132320FDCF8EB5D9C2E0908302F090840267019C
S11323300894C11CD11CF701818190E0282F332718
S1132340277030702230310509F491E08091BE028B
S1132350992321F1823009F025C1F7019381E0919D
S1132360E008F091E1088381981709F01BC122303D
S1132370310509F017C180916F008D7F80936F0044
S113238010924505BF0180E00E9489021092BE02AE
S11323901092640380E00E94F20D04C18823C9F402
S11323A0C7010E94F5028823A1F01093180482E06B
S11323B08093190410921A04F701838180931B04FB
S11323C088E194E00E94FF0D882319F483E0809350
S11323D0BE020091840010918500C7010E94F5029D
S11323E0882311F0045E1C4F10934B0400934A049D
S11323F080918400909185009801281B390B121656
S11324001306A4F480916403882369F490E0809116
S11324104505882309F491E0992341F0C9010E94FC
S1132420640B80E801C0806880936403F6018085B2
S113243027819927582F44273327422B532B8091E8
S1132440C402282F3327F901EE0FFF1FEB5FF74F6C
S11324508081918170914A058417950769F4F90187
S1132460E652F74F8081871709F467C0872F8F5F83
S113247080934A0580831DC000E010E080E090E076
S1132480C5E0D8E0EAEDF8E0DF01682F9C0188811F
S113249099818417950779F42093C40290914A0591
S11324A08C91891709F449C0892F8F5F80934A055D
S11324B08C9300E829C08081972F981B091710F48A
S11324C0092F122F6F5FC90101961196229631963A
S11324D085309105D1F66530B9F41093C402A12F6B
S11324E0BB27FD01EE0FFF1FEB5FF74F51834083C6
S11324F080914A058F5F80934A05FD01E652F74FAC
S11325008083A650B74F1C9290914A05892F8F77EC
S11325108F3779F40F3768F0EAEDF8E0292F207847
S113252080818F6789132083319688E0EF3DF80717
S1132530B9F78091C402282F3327F6019281A22F84
S1132540BB27FD01E650F74F808180FF07C0FD01E6
S1132550E950F84F8081981729F102C08160808387
S1132560A950B84F9C93DFB6F8948091F607833056
S1132570B0F4E0912508E80FE33008F0E350FF27BA
S1132580EE0FFF1FE958FD4F00811181F182E082B7
S11325908F5F8093F60784E00E94880178018D2D77
S11325A099278FBFF0928402E0928302C3C0892FDF
S11325B08150833008F09CC081508230E0F4309127
S11325C0D9083130C1F420E080914505882309F40D
S11325D021E0222381F02F9883E08093E403309359
S11325E0450580918400909185006BE273E00E9420
S11325F0CB0282E068C0933009F042C08091D908D0
S1132600833009F097C00E947B0C8823C9F1289875
S11326108FE88EBD0DB407FEFDCF8EB51EBC0DB484
S113262007FEFDCF8EB5289A809181008064809347
S1132630810080E286BB80916F00806280936F008E
S113264090910103289888EC8EBD0DB407FEFDCF50
S11326508EB590669EBD0DB407FEFDCF8EB5289A4B
S1132660289882EC8EBD0DB407FEFDCF8EB586E0B2
S11326708EBD0DB407FEFDCF8EB5289A84E023C02D
S1132680809142028150823000F58091D9088530D2
S1132690E1F40E947B0C8823C1F0289882EC8EBD63
S11326A00DB407FEFDCF8EB583E08EBD0DB407FEDD
S11326B0FDCF8EB5289A80916F008F7D80936F0037
S11326C01092FE0783E08093D908909142029130E2
S11326D041F48091D9088330B1F52F9A9093D908A9
S11326E025C0923039F58091D908833061F51EC038
S11326F0973001F50E947B0C8823E1F0909101034F
S1132700289888EC8EBD0DB407FEFDCF8EB590667B
S11327109EBD0DB407FEFDCF8EB5289A8091D908D1
S1132720853021F484E08093D90804C088E0809344
S1132730420204C080914202883029F4109242027D
S113274082E00E94880180914202882309F58091E9
S1132750D9088530D1F48091FE078823B1F48091A3
S1132760BE02882391F480916403882371F490E07D
S113277080914505882309F491E0992331F00E9462
S1132780E70D80914202882319F488E00E948801B1
S113279080914505823009F092C010924505F09071
S11327A0E403F2E0FF1609F466C023E0F21609F42C
S11327B06AC081E0F81609F082C020914A04309181
S11327C04B048091840090918500409164034038CB
S11327D029F4109264030E94E70D71C08901081B5B
S11327E0190B47FF03C010161106ECF0C0915F03EC
S11327F0D09160038091BE028823A9F4CE010E9487
S1132800FF0D9927882351F48CA58E7F8CA7F09215
S1132810BE02D093E108C093E00829C09927F82E9E
S1132820882329F102C065E0F62E20916403822FEB
S113283099278F77019759F42078226020936403B5
S113284080E198E00E9434030E94640B38C027FFA3
S11328500AC0101611063CF480E880936403C80192
S11328600E94640B02C0109264038F2D09C083E0A0
S11328708093640324C01092BE021092640380E02B
S11328800E94F20D1CC08091D908823019F4F09294
S1132890D90813C080914202863079F41092420222
S11328A0289881E88EBD0DB407FEFDCF8EB51EBC01
S11328B00DB407FEFDCF8EB5289A0E9481148FB700
S11328C0F894282F332780910003813061F081E050
S11328D0809300032FBF49CB289A85E08093D908C1
S11328E01092420230CF109200032FBFDF91CF919C
S11328F01F910F91FF90EF90DF90CF90BF90AF901A
S113290008958FB7F894282F3327809100038823E4
S113291029F08068809300032FBF089581E080939D
S113292000032FBF0E94AB0F089578941F920F925B
S11329300FB60F9211242F933F934F935F936F938E
S11329407F938F939F93AF93BF93EF93FF93E6E8A7
S1132950F0E080819181208131818FB7F8949927AB
S11329603093A5032093A40321E02093FE078FBF97
S11329700E948114FF91EF91BF91AF919F918F912C
S11329807F916F915F914F913F912F910F900FBE67
S11329900F901F90189578941F920F920FB60F9274
S11329A011242F933F934F935F936F937F938F9350
S11329B09F93AF93BF93EF93FF9380916F008D7FAD
S11329C080936F0078949FB7F89480914505813087
S11329D019F482E080934505892F99278FBF0E94BF
S11329E08114FF91EF91BF91AF919F918F917F914E
S11329F06F915F914F913F912F910F900FBE0F9068
S1132A001F9018958FB7F894282F332780910003CF
S1132A10815080930003803811F02FBF089581E026
S1132A20809300032FBF0E94AB0F08951F93FC01F6
S1132A308FE38287809136028F5F8093360283838F
S1132A402FB7F8943327809100038F5F809300039E
S1132A502FBF80916303882311F015E00DC0F0931C
S1132A608005E0937F0581E08093630310924C0519
S1132A7083E00E94880110E00E940215812F9927AB
S1132A801F910895FF920F931F93CF93DF93F82E16
S1132A908B01EA01622F2D3118F086E090E091C09D
S1132AA0FA0131968181298170E09927582F4427B2
S1132AB03327422B532BCA0187749C7C815498483A
S1132AC009F471E0772349F4CA018073907081643A
S1132AD098688983892F99278183635F68832FB7D7
S1132AE0F894332780910202909103022FBF8887C4
S1132AF0892F992789872FB7F89433278091040267
S1132B002FBF99278C831D82CE010E940502FC01F0
S1132B10F0820E83812F99278F838FB7F894282F03
S1132B20332780911602882371F482E08093160281
S1132B30109207022FBFCE010E9416159927182F55
S1132B40882399F00FC02FBFD0930403C0930303CD
S1132B508FB7F894C82FDD272C2F80911602882375
S1132B6091F406C080E00E94A70C812F992729C008
S1132B7081E080931602109202030E948801CFBF65
S1132B8080E090E01EC0809105038F3F89F4E091BE
S1132B900602EE2369F010C01092050204C0FF275C
S1132BA0EB5FFC4F10821092060280E090E002C0BE
S1132BB085E090E02FBF05C0809105028F3F79F733
S1132BC0EBCFDF91CF911F910F91FF900895EF927A
S1132BD0FF920F931F93CF93DF9380911002992755
S1132BE0019665E070E00E944630682F80931002E1
S1132BF000E0462F5527FA01EE0FFF1FE45BFB4F61
S1132C00C081D181209799F0E62FE695E695E69567
S1132C10FF27E35CF74F808199279A012770307072
S1132C2002C0959587952A95E2F780FF0DC0CA01E9
S1132C30019665E070E00E944630682F0F5F053012
S1132C40C1F6009310021FC0609310026530D8F4DF
S1132C50E88083EFE80EFF240F811127102F00274F
S1132C608E819927082B192BCE010E940502FC01A5
S1132C702E2DAE01B80180810E944215882319F0DF
S1132C808EE10E948801DF91CF911F910F91FF90F7
S1132C90EF900895EF92FF920F931F93CF93DF93DA
S1132CA0E82E8B01F42E84E08E1518F481E090E078
S1132CB03BC0CE2DDD27CC0FDD1FC45BDB4F8881ED
S1132CC09981892B19F085E090E02EC0798368837F
S1132CD0EDE0FE0EFB01F082F3EFFF0E8091100297
S1132CE0853018F480E090E01FC0CB010E940502FB
S1132CF0FC018081F80167817727762F662726817A
S1132D003327622B732BE09210022F2DA8010E940F
S1132D1042159927282F882329F085E080931002F3
S1132D2019821882822F9927DF91CF911F910F91D9
S1132D30FF90EF900895CF92DF92EF92FF920F935E
S1132D401F93CF93DF936C0180917E02882309F453
S1132D5084C080916103882309F07FC066E085E424
S1132D6092E00E94F701EC01892B09F476C081E01E
S1132D7080936103C9828D2D992788838AE2C816BE
S1132D80D10429F020E030E040E050E008C0209178
S1132D9028023091290240912A0250912B02FE010F
S1132DA032962383BB27A52F942F832F8283CA01B6
S1132DB0AA27BB278183252F3327442755272A8316
S1132DC0E280FF2400271127102F0F2DFE2CEE2464
S1132DD0522F4427332722279927AA27BB27DC0110
S1132DE099278827282B392B4A2B5B2B83819927FA
S1132DF0AA27BB27282B392B4A2B5B2BE22AF32A41
S1132E00042B152BE114F1040105110511F410E054
S1132E1011C08AE2C816D10421F414E063EA75E013
S1132E2003C010E060E070E0412F5527CE01069604
S1132E300E94B2308FEF80934B0280934C0285E462
S1132E4092E00E940502FC0180E680831A5F412F14
S1132E5065E472E080E00E944A16DF91CF911F91F1
S1132E600F91FF90EF90DF90CF9008951F93CF9331
S1132E70DF931FB7F89480910F02E82FFF27EE0F1E
S1132E80FF1F9F0129543D4FE901A881B981109783
S1132E9041F4E35EF74F118210828AE10E948801B7
S1132EA049C0ED018A819B81E90199838883892B3B
S1132EB021F4E35EF74F318320838D919C91119728
S1132EC09093840580938305B0931508A093140808
S1132ED0B0938702A093860220914605309147055E
S1132EE040914805509149056091D3087091D408E8
S1132EF08091D5089091D6080E942A0A8091D3081F
S1132F009091D408A091D508B091D6082091460597
S1132F10309147054091480550914905820F931F10
S1132F20A41FB51F8093D3089093D408A093D50809
S1132F30B093D608812F99278FBFDF91CF911F912E
S1132F4008951F920F920FB60F921124EF92FF92E1
S1132F501F932F933F934F935F936F937F938F931D
S1132F609F93AF93BF93CF93DF93EF93FF93E0903F
S1132F707800F090790078948FB7F894992720918D
S1132F80FF02122F1695117021708FBF222309F0B2
S1132F90B1C080917A00877F80937A0080910F027C
S1132FA0813009F487C08091830590918405892B31
S1132FB059F40E9463096093D3087093D4088093F2
S1132FC0D5089093D60845C0E0918602F091870217
S1132FD0E192F192F0938702E09386028091830557
S1132FE090918405880F991F209114083091150839
S1132FF0820F931FE817F90779F58FB7F894C82F54
S1133000DD2780919E0390919F03892B71F0E091BD
S11330100F02FF27EE0FFF1FE35EF74F11821082AE
S11330208BE10E948801CFBF45C0809183059091B8
S1133030840590933C0880933B08809114089091F8
S1133040150890939F0380939E03CFBF8CE10E9449
S113305088010E9436172EC02091460530914705FD
S113306040914805509149056091D3087091D40866
S11330708091D5089091D6080E942A0A8091D3089D
S11330809091D408A091D508B091D6082091460516
S1133090309147054091480550914905820F931F8F
S11330A0A41FB51F8093D3089093D408A093D50888
S11330B0B093D60880911404813021F0823009F055
S11330C043C00AC0112351F0F0927E05E0927D05C1
S11330D085E10E94880138C0112349F48DE790E00E
S11330E0019701960197E1F70E94A2052DC0109265
S11330F014042AC08FB7F89499278FBF2FB7F89478
S1133100332780917A00582F5770482F4072987D4A
S1133110942B952B8074977B982B90619F77892FA4
S1133120992780937A00887D842B852B877380610F
S1133130992780937A00887D842B852B877B8069EF
S1133140992780937A002FBFFF91EF91DF91CF9160
S1133150BF91AF919F918F917F916F915F914F91AB
S11331603F912F911F91FF90EF900F900FBE0F9002
S11331701F901895AF92BF92CF92DF92EF92FF9279
S11331800F931F93282F33278BE090E0289FF001A3
S1133190299FF00D389FF00D1124E95CFD4F8281C9
S11331A09381A481B5810097A105B10569F080815F
S11331B09181880F991F918380838150944020F0DE
S11331C080E094E0918380838BE090E0289F50011D
S11331D0299FB00C389FB00C112487E392E0A80E0D
S11331E0B91EF50186819781A085B1858283938379
S11331F0A483B583C080D180EE24FF2469E0CC0C85
S1133200DD1CEE1CFF1C6A95D1F70E94FF00DC0157
S1133210CB01F50100811181B801762F6627770F64
S11332200E943230AA27BB278C0D9D1DAE1DBF1DE9
S1133230222733274AE0000F111F221F331F4A950C
S1133240D1F7081B190B2A0B3B0B06831783208726
S113325031872281338144815581280F391F4A1FC8
S11332605B1F22833383448355831F910F91FF9007
S1133270EF90DF90CF90BF90AF900895CF93DF93FE
S1133280EC010E94E307282F8091BD022817D1F09A
S1133290382F31503093BD0213C0822F9927E3E0B9
S11332A0880F991FEA95E1F7DC01AA5FBC4FFC0186
S11332B0E25FFC4F88E001900D928150E1F72F5FAF
S11332C0231758F38091FF07909100088C179D07EE
S11332D0A1F48FEF9FEF909300088093FF07109263
S11332E0020810920108109203081092040881E069
S11332F08093350282E20E948801DF91CF91089584
S113330068E00E94F701FC0186819927089568E02E
S11333100E94F701FC0187819927089568E00E94C3
S1133320F701FC0181819927089568E00E94F70163
S1133330FC0186819927089568E00E94F701FC0149
S113334084819927982F882725813327822B932BD3
S11333500895DF92EF92FF920F931F93CF93DF9321
S11333608C01D0907502F0904704EE2432C068E0DE
S1133370C8010E94F701FC014F2D43705527248199
S11333803327322F222785819927282B392BEA01CD
S1133390CC0FDD1FCC0FDD1FC40FD51FC651DD4F71
S11333A0888199812817390791F4C8010E949519D9
S11333B09A81981761F4C8010E948E199C8198170C
S11333C031F4C8010E9487199B81981721F0E39476
S11333D0F394ED1461F68E2D9927DF91CF911F910F
S11333E00F91FF90EF90DF9008958F929F92AF928C
S11333F0BF92DF92EF92FF920F931F93CF93DF93CD
S11334004C01FC018281882329F49092D208809295
S1133410D1088FC0442309F484C0F401A080B18092
S113342080917502843009F046C0C5010E94A91933
S113343020917502622F0E942630492F9217D8F5E9
S1133440992359F4809147049927019664E070E028
S11334500E9446308093470429C080914704840F1A
S1133460912D911D9C0123703070E901CC0FDD1F5B
S1133470CC0FDD1FC20FD31F019664E070E00E94E1
S11334804630FC01EE0FFF1FEE0FFF1FE80FF91F80
S1133490C651DD4FE651FD4F85E001900992815000
S11334A0E1F74F5F809175024817B8F28091750279
S11334B0815080937502D0907502009147040D0DE0
S11334C0112D111D0370107068E0C5010E94F701F1
S11334D0FC017801EE0CFF1CEE0CFF1CE00EF11E4B
S11334E08AEE92E0E80EF91E84819927982F8827A6
S11334F025813327822B932BF70191838083C50188
S11335000E949519F7018283C5010E948E19F70163
S11335108483C5010E948719F7018383D394D092D1
S11335207502F401808191810E949D03C4010E946F
S1133530BC03DF91CF911F910F91FF90EF90DF902B
S1133540BF90AF909F908F900895AF92BF92CF920B
S1133550DF92EF920F931F935B016C010E94CE01E7
S1133560AB01BC01E1E0EE2E9601850187E00E94EB
S1133570AF011F910F91EF90DF90CF90BF90AF906C
S11335800895CF92DF92EF92FF920F931F936C01F5
S11335907B010E94FF00DC01CB01B6010E943230A6
S11335A0E80EF91E00271127C801B7010E94A51AC9
S11335B01F910F91FF90EF90DF90CF9008950F939C
S11335C01F93CF93DF93EC01E0912D02FF27EE0FC1
S11335D0FF1FE452F84F00811181662329F06CE14A
S11335E070E08CE190E032C080912C0283FF40C0F7
S11335F0BE0180E00E9428038823D1F58F8199279A
S1133600982F88272E813327822B932B0E94B40076
S1133610982F8F3F71F08BE0989FF0011124E45AAA
S1133620FB4F82858F5F8287853018F0CF010E941F
S1133630FB0382E20E948801F80183818150838325
S1133640882339F067E070E087E090E00E94C11AB7
S11336503FC00E94820380912C028F7E80932C02B3
S113366067E070E087E090E00E94C11A40E02CC05F
S11336700E94820380912C028F7E80932C0267E04B
S113368070E087E090E00E94C11A8F819927982FFB
S113369088272E813327822B932B0E94B400982FE6
S11336A08F3F89F08BE0989FF0011124E45AFB4F7F
S11336B081858F5F818782858F5F8287853018F04F
S11336C0CF010E94FB0341E0BE01C8010E94F5192D
S11336D0DF91CF911F910F910895282FCB012130B5
S11336E039F0213028F0223031F0233089F407C03A
S11336F0109261030895642F0E94DF1A089565569D
S1133700734031F480913402882311F01092340212
S11337100895AF92BF92CF92DF92EF92FF920F93F0
S11337201F930E94CE017B018C016091F004709183
S1133730F1048091F2049091F304A0903902B090C6
S11337403A02C0903B02D0903C02A114B104C104DF
S1133750D10409F44EC0EFB7F89420914B0520FD35
S113376036C0A8019701261B370B480B590B2A15A5
S11337703B054C055D05C8F4A21AB30AC40AD50A70
S11337808091390290913A02A0913B02B0913C029F
S1133790821B930BA40BB50B8093390290933A02CE
S11337A0A0933B02B0933C0215C081E090E0A0E0FE
S11337B0B0E08093390290933A02A0933B02B09315
S11337C03C0201E0A02EB12CC12CD12C03C02E7FD1
S11337D020934B058E2F99278FBF0E94CE01AB01FA
S11337E0BC0111E0E12E9601850184E00E94AF0145
S11337F005C08091F8048D7F8093F8041F910F9188
S1133800FF90EF90DF90CF90BF90AF900895FF921C
S11338100F931F93CF93DF93F82E282F33278BE03A
S113382090E0289FE001299FD00D389FD00D1124EE
S1133830C95CDD4F81E090E0998388831A868A8190
S11338409B81AC81BD810097A105B105A1F00FB7A3
S1133850F8941127C9010E9420060FBF1A821B8207
S11338601C821D821E821F82188619868F2D0E943B
S1133870BA180E94891BDF91CF911F910F91FF907D
S113388008952F923F924F925F926F927F928F9200
S11338909F92AF92BF92CF92DF92EF92FF920F93DB
S11338A01F93CF93DF93CDB7DEB722970FB6F8946B
S11338B0DEBF0FBECDBF8FB7F894282F332780917A
S11338C0F607882309F461C4E0912508FF27EE0F69
S11338D0FF1FE958FD4F808091802FBFF40182853E
S11338E0178106818F3309F012C4C4010E940502B6
S11338F02C01FC017081F40161915F01812F9927F2
S1133900582F4427802F9927482B592B8FB7F89489
S1133910992720910202309103028FBF4217530767
S113392021F04F5F5F4F09F028C49CE0292E312C11
S1133930280C391C83EF782E760E733609F4C6C032
S1133940743630F4703659F0713609F0FAC396C003
S1133950703709F4C3C0713709F0F3C3A9C2F40185
S1133960848525859927782F66273327622B732B27
S113397026856784908951886A32710521F0AA24CA
S1133980BB24650108C0A0902802B0902902C09011
S11339902A02D0902B0280917E02882309F4D1C39D
S11339A0892F9927AA27BB27EE24F82E092F1A2F2F
S11339B0332744275527522F442733272227862D80
S11339C09927AA27BB27DC0199278827282B392B7D
S11339D04A2B5B2B852D9927AA27BB27282B392B0C
S11339E04A2B5B2BE22AF32A042B152BA114B104D6
S11339F0C104D10461F4E114F1040105110591F14C
S1133A006A32710509F09DC3FAEF7F0E1BC0E11401
S1133A10F1040105110529F46A32710509F091C315
S1133A2018C0D801C7018A199B09AC09BD09181629
S1133A3019061A061B068CF46A32710509F081C353
S1133A402AEF720EA8019701672DC10106960E9404
S1133A50990B80E00E94071C74C3EA14FB040C0554
S1133A601D0551F46A32710509F06BC3809141025E
S1133A708F5F8093410265C3CB0125C080917E0294
S1133A80882309F45EC3F401848525859927982F3A
S1133A9088273327822B932B8A9709F052C380916E
S1133AA0280290912902A0912A02B0912B0200973A
S1133AB0A105B10509F445C3F10180819927982F27
S1133AC08827822B932B0E949B163BC383E090E0B4
S1133AD09093200880931F08129833C3F4018781C0
S1133AE026819927982F88273327822B932B8F5F42
S1133AF09F4F09F0EFC062E0C4010E94F7017C010E
S1133B00F401818520859927D82ECC243327C22A15
S1133B10D32AC6010E94B4008F3F21F0F7016181CE
S1133B2077271CC00E94A807182F8F3FD1F0B60139
S1133B300E94DF06F7014181212F33278BE090E0BB
S1133B40289FF001299FF00D389FF00D1124E45AAD
S1133B50FB4F4283F70161817727812F0E94FF0683
S1133B60B9C081E40E94BA07182F8F3FA1F0282F13
S1133B7033278BE090E0289FF001299FF00D389FB8
S1133B80F00D1124E45AFB4F808191810E943E196B
S1133B90B601812F9DC090E0F40185A5893C08F011
S1133BA091E0992309F496C0C4010E945F0D982FF7
S1133BB0F2018081803709F08DC0953009F0C1C2CF
S1133BC065E0C4010E94FE018C01FC018181228117
S1133BD09927982F88273327822B932B8F5F9F4F0A
S1133BE009F47EC0F801838124819927582F442742
S1133BF03327422B532B4115510521F18091BD02EE
S1133C00E82EFF246091FF0770910008A0E020E0F7
S1133C1030E0E6E0F3E00EC08081918186179707DB
S1133C2031F0848195814817590708F4A1E02F5F8A
S1133C303F4F38962E153F0514F4AA2369F3AA239F
S1133C4009F453C010E0E1E6F4E08081992780FF95
S1133C5004C083FD02C081FF1F5F3B9624E0EF3C5C
S1133C60F20799F71123B1F10E94FF00DC01CB01A7
S1133C70612F77270E94323000E010E0E1E6F4E0A3
S1133C809081992349F0292F332723FD05C021FD75
S1133C9003C081508F3F39F00F5F1F4F3B960A30AE
S1133CA0110571F717C0202F0F3FA1F033278BE0C8
S1133CB090E0289FF001299FF00D389FF00D11240A
S1133CC0E45AFB4F808191810E943E19B601802FF6
S1133CD00E94DF06C4010E945F0D853009F031C2E5
S1133CE065E0C4010E94FE018C01F501F084B780F7
S1133CF060E4C4010E940308382E68010894C11CC2
S1133D00D11CF801818126010894411C511CF60143
S1133D1021819927982F88273327822B932B8F5F14
S1133D209F4F09F4BDC08F2D9927F82EEE248B2DBB
S1133D309927E82AF92A63E0A62EB12CA00EB11E19
S1133D40F801838154E0652E712C600E711E24816C
S1133D509927982F88273327822B932B892B49F572
S1133D60C7010E94B4008F3F09F50E94A8078F3F46
S1133D7011F0B70119C08AE00E94BA07182F8F3FCB
S1133D80A9F0282F33278BE090E0289FF001299F8A
S1133D90F00D389FF00D1124E45AFB4F808191817E
S1133DA00E943E19B701812F0E94DF06C7010E94BD
S1133DB0E500F501B080F301A080F601D080F201A6
S1133DC0C080C7010E94CC008C01C7010E94E30798
S1133DD0482F8A30F1F18B2D9927782F66278A2D69
S1133DE09927682B792B8D2D9927382F22278C2DF5
S1133DF09927282B392B8091BD024817C9F4023327
S1133E00110538F5E42FFF2703E0EE0FFF1F0A9595
S1133E10E1F7EA5FFC4FF182E0823383228375830A
S1133E20648381E0868317824F5F4093BD0211C093
S1133E30E42FFF2713E0EE0FFF1F1A95E1F7EA5F67
S1133E40FC4FF182E082338322837583648381E0B3
S1133E50868380911102882319F5C7010E94E30724
S1133E60E82F8091BD02E81748F4FF27B3E0EE0F76
S1133E70FF1FBA95E1F7EA5FFC4F3782809104088F
S1133E80882311F0332049F08091FF0790910008B6
S1133E908E159F0529F4332019F082E20E948801CF
S1133EA060E8C4010E940308882309F44AC120C1C0
S1133EB0C4010E948E19182F1F5F68E0C4010E947C
S1133EC0F7016C01FC011183FCE1F71508F439C119
S1133ED0C4010E94A91920E090917502891708F481
S1133EE021E0222309F02DC120912F02822F99274E
S1133EF0B82E882309F44EC000912D02020F015000
S1133F00BA940D3010F4E02F02C0E02FED50FF27DB
S1133F10EE0FFF1FE452F84F0190F081E02DE08096
S1133F20F18068E0C7010E94F701FC01248145810A
S1133F30F601848165813327322F22275527242BCC
S1133F40352B9927982F88277727862B972B281787
S1133F50390709F015C1C7010E949519182FC4012A
S1133F600E949519181709F00BC1C7010E948E19F8
S1133F70182FC4010E948E19181709F001C1C70136
S1133F800E948719182FC4010E948719181709F075
S1133F90F7C0D7C080917602882309F0D2C020915F
S1133FA01704222309F481E0882309F0CAC0909100
S1133FB01604992309F481E0882309F0C2C09923E7
S1133FC009F4BFC080913E08E82FFF27EE0FFF1FC2
S1133FD0EE51F74F0081118111821082915090931C
S1133FE016048F5F80933E088C3011F410923E08C3
S1133FF00115110509F4A5C0222309F4A2C080917A
S1134000A103E82FFF27EE0FFF1FEB57FA4FE080C5
S1134010F180118210822150209317048F5F8093C6
S1134020A1038C3011F41092A103E114F10409F4FA
S113403088C08FE2F70111928A95E9F788E290E04F
S1134040880E991E87E0F40111928A95E9F788EDAC
S11340509FEF880E991EF801918280828FEF8283F0
S11340608EE18383C8010E94F404882389F5CE017C
S113407001960E945703882311F5F601828123815A
S11340809927982F88273327822B932B29813A81CC
S113409028173907A0F080E890E0A0E0B0E0809312
S11340A0120290931302A0931402B09315020E947B
S11340B0160B6CE170E08CE190E00E94C11A8091D3
S11340C0130581FD03C081E20E948801470139C0C4
S11340D0C7010E949D03C8010E94BC0332C068E06E
S11340E0C4010E94F701FC0180818078803849F581
S11340F080E890E0A0E0B0E0809312029093130275
S1134100A0931402B09315020E94160B1AC0812FBB
S11341109927582F4427802F9927482B592B8FB73D
S1134120F894992720910202309103028FBF42171D
S1134130530719F04F5F5F4F21F48FB7F894992715
S11341408FBF9FB7F89480912508E82FFF27EE0FC3
S1134150FF1FE958FD4F918280828F5F809325086D
S1134160833010F0109225088091F60781508093D7
S1134170F607892F99278FBF9ECB713711F7AFCFE1
S11341800150BB2009F0BCCE05CF2FBF22960FB63D
S1134190F894DEBF0FBECDBFDF91CF911F910F9179
S11341A0FF90EF90DF90CF90BF90AF909F908F9053
S11341B07F906F905F904F903F902F900895AF92B3
S11341C0BF92CF92DF92EF92FF920F931F93CF9300
S11341D0DF935B016C01C0E0D0E0ECECF4E06085BF
S11341E061FF3DC22081318142815381E480F580A9
S11341F006811781D601C501821B930BA40BB50B55
S11342008E159F05A007B10708F429C260FF03C0FB
S11342106D7F608708C02E0D3F1D401F511F2083F6
S1134220318342835383C33009F470C1C43038F4FA
S1134230C13009F4B0C0C23008F02DC10DC0C53082
S113424009F49BC1C53008F463C1C63009F4F4C154
S1134250C73009F00AC2FAC180911F089091200862
S1134260009751F001979093200880931F08892BA1
S113427019F4129A119A109A8091BA0280FF28C0F8
S11342808FB7F894C82FDD2780911B02882389F407
S113429091E090931B0210929903CFBF80911E026C
S11342A0882321F48EE00E94880112C090931F029B
S11342B00FC080919903882351F080E00E94D604B6
S11342C0882329F48091BF0281608093BF02CFBF0D
S11342D08091BA0281FFC9C18FB7F894482F55273E
S11342E0E0911D08F0911E083097A1F027E238E014
S11342F08AE090E0909328088093270810922A0877
S113430010922908318320832E5F3F4F30931E087B
S113431020931D084FBF8FB7F894282F3327122FEF
S113432080912502882389F491E0909325021092CC
S11343307D022FBF80912602882321F488E10E9408
S113434088011CC09093270219C080917D028823A4
S113435011F42FBF13C080E00E944804882319F091
S113436085E090E007C080910F08816080930F087A
S113437080E090E01FBF892B09F077C180E197E2CC
S1134380A0E0B0E08093570390935803A09359039F
S1134390B0935A036AC180E00E94C104882309F4DF
S11343A03AC09FB7F89420911B02222319F421E00C
S11343B030E00FC080910C02813019F020E030E031
S11343C008C040E050E02150223010F441E050E0B9
S11343D09A01892F99278FBF2223E9F08FB7F89488
S11343E0C82FDD279C2F80910C02813099F4809195
S11343F01B02813021F48CE00E94880109C08230C4
S113440049F48091990380930C0283E080931B020A
S1134410CFBF01C09FBF81E00E94C104882309F47B
S113442024C19FB7F89420911C02222319F421E09F
S113443030E00FC080911D02882319F020E030E0A5
S113444008C040E050E02150223010F441E050E038
S11344509A01892F99278FBF222309F406C18FB7A8
S1134460F894C82FDD279C2F80911D02882309F022
S11344704BC080911C02813011F48DE038C0823031
S113448009F042C08091E90280931D0283E0809389
S11344901C02CFBFEAC09FB7F894209125022223C3
S11344A019F421E030E00FC080910E02813019F040
S11344B020E030E008C040E050E02150223010F409
S11344C041E050E09A01892F99278FBF222309F4F4
S11344D0CCC08FB7F894C82FDD279C2F80910E0293
S11344E0813091F480912502813021F487E10E948A
S11344F08801CFCF823041F480917D0280930E02F7
S113450083E080932502C5CF9FBFAFC04298ADC062
S11345102091F4043091F5044091F6045091F7048D
S11345208091390290913A02A0913B02B0913C02F1
S11345300097A105B105F1F082179307A407B50709
S1134540C9F480914102882361F42FB7F89433278A
S113455080915B04816080935B042FBF80E20E94A2
S1134560880180E090E00E94200680E00E94BA1852
S1134570109241020E94891B78C0809132028823E4
S113458009F473C080913302882309F46EC08091CA
S1134590FC07882349F582E20E94880183E20E9495
S11345A08801A0901202B0901302C0901402D0901F
S11345B0150280915B0390915C03A0915D03B0911F
S11345C05E03A81AB90ACA0ADB0A81E08093FC07D1
S11345D00E94CE01AB01BC01E1E0EE2E9601850103
S11345E085E00E94AF0141C08091120290911302B4
S11345F0A0911402B0911502880F991FAA1FBB1F26
S11346008093120290931302A0931402B0931502A4
S11346108150904DA740B04060F080E090EDA7E05D
S1134620B0E08093120290931302A0931402B0930B
S113463015020E94160B19C0809132028823A9F03A
S113464080913302882389F082E206C080912C0293
S11346508F7E80932C0281E20E94880106C02196FD
S11346603996C830D10509F0BACD87E00E94880197
S1134670DF91CF911F910F91FF90EF90DF90CF903A
S1134680BF90AF900895EF92FF920F931F93809184
S1134690B902282F332720FF07C083E090E09093CE
S11346A0200880931F08129821FF3AC08091EF04DC
S11346B081FF27C0E090EB04F090EC040091ED043E
S11346C01091EE040E94CE019B01AC018091E7049D
S11346D09091E804A091E904B091EA04281B390BF5
S11346E04A0B5B0B2E153F054007510750F4E21AA5
S11346F0F30A040B150B85E6E816F1040105110510
S113470078F40E94CE01AB01BC0111E0E12E04E675
S113471010E020E030E083E00E94AF013A9A429A30
S11347208091B90282FF14C08FEF8093B30380930A
S1134730B4038DEA93E00E940502FC0183E68083C2
S113474040E06DEA73E084E00E944A160E94EA04A5
S11347508091B90283FF5BC008E812E062E0C801FF
S11347600E94DB03FC01892B09F451C080910002F3
S1134770909101028183892F9927808380912C0253
S113478081FD03C084E090E040C06AE0C8010E945B
S1134790120468E0C8010E94F701FC018091000244
S11347A0909101028583892F9927848380918502C2
S11347B08F5F80938502815086838BE0878311828B
S11347C0E091D108F091D208309719F485E090E097
S11347D01CC01183008312828EE18383CF010E9467
S11347E0F404882319F081E090E00FC080912C023A
S11347F082FF05C084FD03C081E20E9488011092FB
S1134800D2081092D10880E090E00E94EA041F913F
S11348100F91FF90EF900895EF920F931F933C9A9E
S1134820449A0E94CE01AB01BC0101E0E02E01E1FB
S113483010E020E030E082E00E94AF0180E090E0F0
S11348401F910F91EF9008956F927F928F929F9294
S1134850AF92BF92CF92DF92EF92FF920F931F938A
S1134860CF93DF93CDB7DEB722970FB6F894DEBFB0
S11348700FBECDBFE82FFF27E432F10510F00C94F2
S1134880F12BEA59FF4FEE0FFF1F0590F491E02D35
S1134890099420E030E0E7E2F8E013C080913D089D
S11348A0882309F0B8C40C94F12B8FB7F8942091A5
S11348B05B0420FDEBC420E0EDC481919191280FAD
S11348C0391F48E0EB33F407C1F7C9016AE070E02F
S11348D00E94323020E030E040E050E07497819153
S11348E09191861B970BDC01AA9FC001AB9F900D91
S11348F0BA9F900D1124AA2797FDA095BA2F280FCF
S1134900391F4A1F5B1FB8E0EB33FB0741F729321D
S113491031054105510508F464C70E94432361C76A
S11349202FB7F8943327809102038093070282E023
S1134930809316022FBF80910702882309F051C784
S113494080910303909104030E941615A82EBB24A2
S1134950AA2009F446C780E00E94A70CC090030374
S1134960D0900403C6010E940502F0901002E4E016
S1134970EF1508F436C7EF2DFF27EE0FFF1FE45B9A
S1134980FB4F008111810C151D0509F02AC7118206
S113499010820E94E7154A2DB8018F2DFFC0809127
S11349A0630310926303853009F07FC0B1E0FB2EEE
S11349B0F092320280913302882311F00E94FF00AA
S11349C080912C02846080932C0290E080912F02CD
S11349D0882309F491E0992319F481E20E94880163
S11349E08091390290913A02A0913B02B0913C022D
S11349F00097A105B10529F51092390210923A02E7
S1134A0010923B0210923C0210923D0210923E0220
S1134A1010923F02109240021092410280E00E94E4
S1134A20BA180FB7F894112780E090E00E9420068E
S1134A300FBF0E94891B80E00E94071CF092740241
S1134A4003C080E00E94071C41E040937E028091F5
S1134A502C02826080932C028FB7F89499272091BE
S1134A600202309103028FBF30939E0520939D056F
S1134A7080913302882309F0B4C64093330280E85E
S1134A8090E0A0E0B0E08093120290931302A09310
S1134A901402B09315020E94160B40E050E260E04D
S1134AA070E086E00E9416049CC6863031F41092B1
S1134AB0320280912C028B7FC0C4873009F491C6E6
S1134AC0809363038EC62FB7F89433278091000335
S1134AD08F5F809300032FBF40916303413081F5C2
S1134AE080914C058F5F80934C05863048F520916A
S1134AF07F0530918005809164038823C1F490E0A0
S1134B0080914505882309F491E0992381F030933D
S1134B10600320935F03409364038BED91E10E9453
S1134B2034030E94640B1092430883E004C085E0C0
S1134B308093430882E0809363030E94021551C668
S1134B40109263030E940215C090430800917F05F0
S1134B5010918005F80182858F3309F042C680E008
S1134B600E94A70CC8010E940502D0901002F4E034
S1134B70FD1508F436C6ED2DFF27EE0FFF1FE45B8D
S1134B80FB4FE080F180E016F10609F02AC611829D
S1134B9010820E94E7154C2DB7018D2D0E946D1BCC
S1134BA020C60E94411C1DC60E94FF002FB7F89426
S1134BB0332770938205609381052FBF12C68091BD
S1134BC0FE02882361F5209110083091110840916C
S1134BD0120850911308EFB7F894FF2760917F02F1
S1134BE0709180028091810290918202E0903F084E
S1134BF0F090400800914108109142086E0D7F1D0D
S1134C00801F911FEFBF2093100830931108409329
S1134C101208509313081092FE020E94C5060E94C7
S1134C20CE0143C00E94CE015B016C018FB7F894A2
S1134C309927109294038FBFFFEFEF2EFFEFFF2E03
S1134C40FFEF0F2FFFE71F2F60E0ECECF4E080850F
S1134C5081FF1CC080819181A281B381A60195014D
S1134C60281B390B4A0B5B0BDA01C90124813581FE
S1134C7046815781281B390B4A0B5B0B2E153F05C8
S1134C80400751071CF479018A0161E0399635E047
S1134C90E431F307E1F6662309F4A3C51E141F04E7
S1134CA0100611062CF0C601B5010E94DF2099C53B
S1134CB0E0921008F0921108009312081093130860
S1134CC081E08093FE02A8019701C601B5010E940C
S1134CD0C50687C58FB7F8949927109215051092C9
S1134CE014051092D8081092D7081092440210921A
S1134CF043021092490410924804D2C02FB7F8948A
S1134D0033278091E00380930A0282E080931702A4
S1134D102FBF80910A02882309F063C5209A289A3C
S1134D208091D908882309F075C08EEF91E001972E
S1134D3001960197E1F716982F9886E090E0019785
S1134D4001960197E1F7169A289883EC8EBD0DB46D
S1134D5007FEFDCF8EB51EBC0DB407FEFDCF8EB58C
S1134D60289A289882EC8EBD0DB407FEFDCF8EB52F
S1134D7088E08EBD0DB407FEFDCF8EB5289A8EEF68
S1134D8091E0019701960197E1F728988EEC8EBD8A
S1134D900DB407FEFDCF8EB58DE48EBD0DB407FEB8
S1134DA0FDCF8EB5289A289889EC8EBD0DB407FEE8
S1134DB0FDCF8EB587EC8EBD0DB407FEFDCF8EB54D
S1134DC0289A289885EC8EBD0DB407FEFDCF8EB5CC
S1134DD080E88EBD0DB407FEFDCF8EB5289A1092E3
S1134DE015048BE080930103289888EC8EBD0DB4E4
S1134DF007FEFDCF8EB58BE68EBD0DB407FEFDCF4D
S1134E008EB5289A2F9A81E08093D90880E00E9479
S1134E10250CE7C40E948114E4C48FB7F894992741
S1134E202091A70520930B0223E0209319028FBF42
S1134E3080910B02882321F0813009F0D2C403C091
S1134E406D9A759A02C06E9A769A0E94CE01AB0151
S1134E50BC01E1E0EE2E0AE010E020E030E081E069
S1134E600E94AF01BEC42FB7F894332780919903F1
S1134E7080930C0283E080931B022FBF80910C026D
S1134E808093FD0780E00E945C04ABC48FB7F89464
S1134E9099272091E90220931D0223E020931C020C
S1134EA08FBF9FC480E005C075986D9882E1D2C21F
S1134EB081E00E94C40595C476986E9883E1CAC2C5
S1134EC080E00E94BA0B80911F02813019F480E0C7
S1134ED00E94C4058FB7F894992710921F0210926C
S1134EE01E02DECF81E00E94BA0B80912102813044
S1134EF011F40E94C4058FB7F894992710922102E7
S1134F0010922002CDCF8FB7F89499272091CA042C
S1134F1020930D0223E0209323028FBF80910D0282
S1134F20882321F0813009F05CC408C081E08093BB
S1134F301404109226080E94A20553C4E0909F0511
S1134F40F090A0050091A1051091A205109287028E
S1134F50109286021092150810921408109284057B
S1134F6010928305A0901B08B0901C08CC24DD246B
S1134F708AE790E0A0E0B0E0E80EF91E0A1F1B1FCC
S1134F80C801B70124EF30E040E050E00E945930FE
S1134F903B014C01C801B70124EF30E040E050E090
S1134FA00E945930CA01B901A60195010E94073037
S1134FB07B018C01C401B3010E94073066587F4F06
S1134FC08F4F9F4F24EF30E040E050E00E94593073
S1134FD0E20EF31E041F151FE0924605F0924705EA
S1134FE0009348051093490510920F020E949405FE
S1134FF0F8C310921404A0907D05B0907E058091B2
S11350002608882309F0EDC30E94EF0C80E00E947B
S1135010C104882309F455C09090FD078FB7F89414
S1135020C82E80911B02833009F041C080910C028C
S11350308915E9F58091BF02882309F0CCC3C2C366
S1135040ED2DE695E695E695FF274D2D5527E15480
S1135050FD4F9A012770307081E090E002C0880F04
S1135060991F2A95E2F780952081282320830093B5
S11350701A0212C00F5F1F4F0130110511F400E036
S113508010E0D02E802F0E94D6048823C9F60E1576
S11350901F0581F74FEF50E0409399038FEF809302
S11350A00C0281E080931B028CE00E948801CFBE39
S11350B0992039F498E5A91692E0B90610F40E94F3
S11350C0432381E00E94C1048CC344988091270249
S11350D0813011F40E940C248FB7F8949927109210
S11350E0270210922602DCCE2FB7F8943327809142
S11350F07D0280930E0283E0809325022FBF80916E
S11351000E02E82FFF27EE0FFF1FEE0FFF1FE95AD5
S1135110FC4FE080F18002811381882309F061C390
S113512081E00E945C04882309F05BC3E0929F0540
S1135130F092A0050093A1051093A20552C30E940A
S11351400C244FC386E186C120910F028FB7F894D7
S11351509927E22FFF27EE0FFF1FDF01A954BD4F50
S113516011961C921E92E35EF74FB183A0838FBF0A
S113517081E080930F02222309F033C30E94EF0CD5
S113518080E00E94790D80E065C140910F028FB7E5
S1135190F8949927A42FBB27FD01EE0FFF1FE954B4
S11351A0FD4F0190F081E02D8FBF03C00280F38199
S11351B0E02D3097D9F72FB7F8943327AA0FBB1FE8
S11351C0FD01E954FD4F11821082A35EB74F842F75
S11351D09927880F991F89549D4F8D939C932FBFB6
S11351E081E080930F02442309F0FBC20E94EF0C7C
S11351F080E00E94790D83E090E0909320088093F2
S11352001F081098EEC28FB7F894992710929F0345
S113521010929E0345CEB1E0DB2EEE24FF240CE475
S113522014E090913D088D2D892379F0D8016D917A
S11352307C9111971D921C928D2D809598239093AB
S11352403D0843E08E2D0E946D1B0894E11CF11C67
S11352500E5F1F4FB8E0EB16F10409F4C2C2DD0C77
S1135260E0CF10911002E12FFF27EE0FFF1FE45B48
S1135270FB4FE080F180118210820E94E71541E02B
S1135280B701812F8BCC0E94720BABC22E7F20936F
S11352905B0421E099278FBF222309F4A2C28AE28A
S11352A090E00E949B1680E2D5C080912C0284FD80
S11352B098C290E080912F02882309F491E0992309
S11352C009F08FC280917602882359F420E08091FE
S11352D0FF07909100088F5F9F4F09F021E0222380
S11352E031F0CE0101960E945703882339F060E122
S11352F077E280E090E00E94A51A73C2E0912D024B
S1135300FF27EE0FFF1FE452F84FC080D180D60173
S1135310ED91FC91B0808090FF0790900008CF0140
S11353200E94A91920E090917502891708F421E0E0
S1135330222359F00E948203F601808191810E9408
S11353409D03C6010E94BC0384C080917602D601ED
S1135350ED90FC908823A9F068E0C7010E94F70152
S1135360A091E103B091E203F7018FE201900D9265
S11353708150E1F760E0F601808191810E94DF1A9B
S113538030C209811A8168E0C7010E94F701FC015B
S11353900383012F1127028368E0D6018D919C912C
S11353A00E94F701FC0180818F738083F6014081A4
S11353B05181DA011196FD018181FA012181992738
S11353C0982F882733272062822B932B8183892F60
S11353D09927FD01818380912C02886080932C029F
S11353E080FF0FC068E0D6018D919C910E94F70167
S11353F0FC0180818064808380912C028E7F809365
S11354002C02F60100811181F8018682892D9927E9
S11354108783C8010E940502FC0181E78083F3EFC2
S1135420BF0E4B2D5527B80182E00E944A169927DA
S1135430882331F480912C02806180932C02D1C1A5
S1135440823009F0CEC16CE1D6018D919C910E940D
S1135450120481E20E948801C4C1809176028823EB
S113546009F0BFC1AA24BB242FEFE22EF22E9FEF36
S1135470892E992ECC24DD2443C0022F112783E0EA
S1135480000F111F8A95E1F70A5F1C4FF801228172
S11354903381FFEF2F3F3F0781F180919D0590916C
S11354A09E052817390749F1D8018D919C910E94D6
S11354B0CC003C01F80164817581AC01460F571F93
S11354C0208131818091FF0790910008A7812817DE
S11354D0390741F47093020860930108A09304080B
S11354E04A010BC0AA2349F4F2E36F16710428F4AD
S11354F04E155F0510F458017A010894C11CD11CA3
S11355002C2D8091BD02C81608F4B7CF2FEFE216F8
S11355102FEFF20609F47AC03FEF83163FEF9306AC
S113552091F080910408882341F0809101089091C2
S113553002080A96E816F90630F0C7010F96881596
S1135540990508F063C08091210890912208A091E8
S11355502308B09124080196A11DB11D8093210850
S113556090932208A0932308B09324088091FF0706
S1135570909100080E94B4008F3F81F0282F3327B8
S11355808BE090E0289FF001299FF00D389FF00DEB
S11355901124E45AFB4F8581877F8583D5018D9142
S11355A09C910E94E500F501808191810E94B400E4
S11355B08F3F41F0EBE08E9FF0011124E45AFB4F42
S11355C012861186D5018D919C9190930008809349
S11355D0FF07F50184819581909302088093010867
S11355E0878180930408C4018E199F09459770F040
S11355F080E890E0A0E0B0E0809312029093130260
S1135600A0931402B09315020E94160B80913502E8
S1135610882369F4FFEF8F16FFEF9F0641F42FEF05
S1135620E2162FEFF20619F081E20E94880110922F
S11356303502D7C080913402882309F0D2C0E091AA
S1135640AA03F091AB0310828091FF0790910008A8
S1135650E091AA03F091AB038283892F9927818378
S113566080917602882329F08091010890910208A4
S113567020C08091FF0790910008009101081091CB
S113568002083FEF8F3F930781F4E091AA03F09162
S1135690AB030483812F99278383E091AA03F091BC
S11356A0AB038081806880830CC00E94CC00800F93
S11356B0911FE091AA03F091AB038483892F99276A
S11356C0838362E085E693E00E94F7016C0168E061
S11356D085E693E00E94FE0175E0A72EB12CA80E8A
S11356E0B91E40E0FF2400E010E06BE0862E912C10
S11356F053E0E52E8091310299270196800F911F86
S11357006AE070E00E9446309C019927889DD00190
S1135710899DB00D989DB00D1124A45ABB4FFD0175
S11357208581992780FF15C081FF13C08D919C91BD
S11357301197FE9CA00111244A0D5B1DFA0181837F
S1135740892F99278083FD018681FA018283F3944E
S1135750422F0930110529F00F5F1F4FF6E0FF15A6
S113576048F640933102809130028F5F809330027B
S11357708150F60181838F2D8F7080838FEF80930A
S11357806B0380936C0385E693E00E940502FC01A1
S113579080E7808383E0F89EC0011124895F482F4D
S11357A0552765E673E083E00E944A16992788230B
S11357B021F481E08093340214C0843091F4109277
S11357C032020FC081E080930C0210921B0280937E
S11357D01E028FE06ACC80911A02E82EFF24870112
S11357E049CC22960FB6F894DEBF0FBECDBFDF9131
S11357F0CF911F910F91FF90EF90DF90CF90BF90CA
S1135800AF909F908F907F906F90089580911A0829
S11358108F3FB1F0282F3327F901EB53FD4F8081DF
S113582080931A088F3F11F48093DF088FEF8083F1
S11358302F3F31F0822F0E94242481E090E00895CC
S113584080E090E008950F931F930FB7F89414BE6F
S113585088E10FB6F89480936000109260000FBE48
S113586044E250E06FEF70E085EC92E00E94BB30C0
S11358708FEF80931A088093DF0856985E985498A7
S11358805C9880916F008F7D80936F00209A289A96
S1135890279A2F980E9A169A85EE93E09093840295
S11358A0809383021092A0038AE58093560381E0DB
S11358B08093810080E28093B60083E08093B100FE
S11358C080918400909185004AE720918400309172
S11358D085002817390708F44150442311F0C90101
S11358E0F4CF9091B2008091B2008917E1F3209136
S11358F08400309185009091B2008091B2008917A4
S1135900E1F38091840090918500821B930B409673
S113591025E0969587952A95E1F790931C08809346
S11359201B081092B1008091B10080938100809196
S113593081008093B6001092B200109285001092FC
S113594084008FEF87BB87B386BB8091B6008571D7
S1135950E1F70A9A099A089A129A119A109A18B8B1
S11359608FEF87B90C9814981092950010929400B8
S11359708091710081608093710080919100887F93
S113598082608093910010927A00109285001092A8
S1135990840080916F00816080936F00809181000A
S11359A0887F8260809381000E94062C8823E1F71F
S11359B01092470410927502E2EEF8E08DE495E04F
S11359C081939193049628E0EA3FF207C9F78CE0AB
S11359D08093160410923E08E5E8F5E088EA95E025
S11359E0819391938F9625E0ED39F207C9F78CE006
S11359F0809317041092A103109232021092330282
S1135A001092210810922208109223081092240860
S1135A10109276028FEF9FEF909300088093FF0718
S1135A2010920208109201081092030810920408C0
S1135A301092BD026AE185E693E00E94FE01909314
S1135A40AB038093AA0385E993E09093D2088093F3
S1135A50D10886E195E09093E2038093E1031092EC
S1135A608502E1E6F4E010823B9684E0EF3CF8071F
S1135A70D1F780E094E0909338028093370210923B
S1135A8041021092390210923A0210923B02109293
S1135A903C0210923D0210923E0210923F0210927C
S1135AA0400210925B0410924B0587EB92E09093B6
S1135AB01E0880931D0810920F0810925A04109229
S1135AC0BF021092CB048FEF8093AC0380E00E945E
S1135AD03E02182F8091B60080628093B6008091B8
S1135AE0B60081FDFCCF82E08093B0008091B600C7
S1135AF080FDFCCF83E08093B1008091B60083FDEC
S1135B00FCCF86EE8093B300809170008260809316
S1135B1070000E9439068091000290910102019662
S1135B20AA27BB2780939A0390939B03A0939C037B
S1135B30B0939D0384E498E0909378028093770275
S1135B408F9690937A028093790282EA98E09093F8
S1135B507C0280937B028FEF9FEF909306088093E3
S1135B600508909308088093070890930A08809387
S1135B70090890930C0880930B0890930E08809367
S1135B800D08809100028295807F809336028FEF0A
S1135B90809305030E94062C8823E1F7802F992720
S1135BA08FBF789483E090E09093200880931F083F
S1135BB0109881E08093B9028093BA0248EE53E0D2
S1135BC060E070E080E00E9416042FB7F894332759
S1135BD0809100038F5F809300032FBF8091630344
S1135BE08823D9F4809142028823B9F48091D9089A
S1135BF0813049F490E080914505882309F491E0CF
S1135C00992359F002C0853041F083E08093420229
S1135C100E94811485E0809363030E9402158FB76C
S1135C20F894482F552757C08091700099278370A6
S1135C309070892B19F4E5E0F0E014C08091B6006F
S1135C408A71E1F78091B3009091B200891B8C3086
S1135C5038F08091B200853F18F4E3E0F0E002C030
S1135C60E2E0F0E080916E00867009F580916F00AB
S1135C708E72E9F4809171008E72C9F40CB407FC41
S1135C8016C08091C100887191F48091C900887117
S1135C9071F48091BC0082FD0AC080917A0087FF74
S1135CA003C081E090E005C085E090E002C080E0A0
S1135CB090E023B78E1708F4E82FFF27EC5EFE4F21
S1135CC0E491207F2160E22BE3BF78948895F894D7
S1135CD083B78E7F83BF80911A088F3F09F4A4CFC6
S1135CE0282F3327F901EB53FD4F808180931A0845
